:0200000407FCF7
:10000000D831FC072501FC072D01FC074501FC0741
:1000100000000000000000000000000000000000E0
:100020000000000000000000000000005D01FC076F
:1000300000000000000000005F01FC07BB03FC079C
:10004000B901FC07751CFC07A526F007BD03FC07DA
:10005000E902FC076301FC07AD01FC076301FC0733
:100060006301FC076301FC071902FC072302FC077C
:100070002D02FC073702FC074102FC076301FC0765
:100080002104FC076301FC076301FC076301FC0713
:100090006301FC076301FC076301FC076301FC07C4
:0800A0000000000090070E00B3
:0200000407FCF7
:100110000348854600F038F8004800475D12FC07A8
:10012000D831FC070F4880470F480047042071462C
:10013000084203D0EFF309800C490847EFF3088029
:100140000A49084704207146084203D0EFF30980AA
:1001500007490847EFF3088005490847FEE7FEE72F
:10016000FEE7FEE76D1FFC071101FC07F902FC0723
:100170006102FC07704770477047421C0178401CC1
:100180000029FBD1801A7047064C0125064E05E078
:10019000E36807CC2B430C3C98471034B442F7D3A8
:1001A000FFF7BAFF942AFC07B42AFC070148012193
:1001B000018070470E15005080B5E1488189408963
:1001C00060F7ACFF5FF7EDFA10484188890703D06C
:1001D0004188032291434180018880220A430280A2
:1001E000018904229143018181898907FCD542F765
:1001F00098F807480021016006480168490700D5C2
:1002000000BE01684907FCD580BDC046080000500B
:10021000080200401000004080B50A2000F016F8E7
:1002200080BD80B50B2000F011F880BD80B50C209A
:1002300000F00CF880BD80B50D2000F007F880BDFF
:1002400080B50E2000F002F880BD000010B5044615
:100250005FF7AEFCE0B2012181405048016010BD63
:10026000F8B5044601273E0205200507688DC00544
:1002700006D51B205FF7D2FA4A480188394301802E
:100280008036288840013040698A474A0A40024344
:100290006A8221681348016061684160A1688160D9
:1002A000E168C1602169016161694161A1698161A0
:1002B000E169C16104623E490A6842624A68826239
:1002C0008A68C2624A690263CA68426309698163D3
:1002D000334808210180A88AC00600D4FEE700BE8A
:1002E000F8BDC04600F8FC07024800882B481021E2
:1002F000016070472C130050F8B50446052005072F
:10030000288A042101432982288940210143298127
:100310002248012707602248082101803E02688D9B
:10032000C00506D51B205FF779FA1E4801883943BE
:1003300001808036288840013040698A1A4A0A4084
:1003400002436A8221681948016061684160A168BE
:100350008160E168C1602169016161694161A169F0
:100360008161E169C161046211490A6842624A68B7
:1003700082628A68C2624A690263CA684263096922
:100380008163A88AC00600D4FEE700BE688A0949D6
:1003900008404018001D6882F8BDC04680E200E0B9
:1003A00000330050800000507FFE000050F8FC0732
:1003B00028ED00E0FC7F000070477047B0B5174C97
:1003C0005F4DA1880F200840022806D0042810D0D5
:1003D0000C2811D00128F4D11FE0A8882989814276
:1003E0000FD2A088C02101402046C02912D0103071
:1003F00011E001F05BFDE4E701F058FD20880121E8
:1004000005E02088022188432080208880218843BD
:100410002080D6E778300088D3E7B0BD04110050C3
:1004200080B55FF7BEF91948018809050CD5184950
:100430000A8805231340052B06D1088804220243AD
:100440000A80088801221EE00188C90606D51149E4
:100450008A88D20702D00A88120610D40088C00603
:100460000CD50C488188890708D50188C90505D5B0
:10047000022181800188084A0A40028080BD012053
:100480008880088880229043088080BD0400005046
:100490000002005000010050FFFE000070B5374818
:1004A00009210424182322465AF726FC05461B205E
:1004B0002870FD26304662F727FC0021A982E960FA
:1004C00029616C606E80687028465AF730FC70BDF8
:1004D0001FB51446002202920192069A00921A4613
:1004E000234662F7BDFE04B010BD0000B0B514484D
:1004F00082781449D4B20C236343CD5CFF2D0AD01B
:10050000012C02D102228270F4E7521C8270C818BA
:10051000406880470EE0C178F64ACCB21C236343A2
:10052000D45CFF2C08D0491CC170D318DB68002BA9
:10053000F3D098470020B0BD002141800120B0BD1C
:1005400068CDFC072826FC0770B50C480921042457
:100550000A2322465AF7D0FB05461B202870142692
:10056000304662F7D1FBFF21743129816C606E80C7
:10057000687028465AF7DBFB70BDC0461B0D0000B3
:100580001FB5144601220292044A0192069A009273
:100590001A46234662F764FE04B010BD4C20FC07E7
:1005A00070B5124D2C68002C19D111480921042274
:1005B0002C235AF7A1FB04462860172020840D48FD
:1005C00020800026668020460A3011215CF709FF52
:1005D0002685E6846684E683A6832020E07620468E
:1005E0005AF7A5FB0020286070BDC04684CCFC07EC
:1005F000040D0000030A000010B5154C2068002807
:100600001CD114480921042252235AF775FB0246D3
:100610002B2000211154226091720F48D0809080CD
:100620000D201080D172FF200830108110460B3051
:100630000C320E21094B62F7A7FA20685AF777FBB4
:1006400000202060042002215AF787FD10BDC0461B
:1006500080CCFC070D0D00004C040000FC29FC07B9
:10066000F8B500920D468100104A56585418002ED5
:100670000AD101020A31F14804271E233A465AF7EB
:100680003BFB064607702060B71C102138465CF71C
:10069000A8FE38462946009A5CF78AFE0120707051
:1006A00030465AF744FB00202060F8BDB8CCFC0768
:1006B00010B5014601200A4A914210D3121D914201
:1006C0000DD8029CF231C8B28100064A5058002869
:1006D00003D0511800220A6080470020207010BD0E
:1006E0000E040000A0CCFC071FB5144605220292A0
:1006F000044A0192069A00921A46234662F7B0FD18
:1007000004B010BD7020FC0770B50C464C498842FF
:100710001ED04C4A90422CD04B49884247D1207879
:10072000401E09285ED88000494A11584D4B994215
:100730005CD04848814200D07CE042480421082334
:100740000A465AF7D9FA21780170616841606FE072
:100750006268002A01D100BE62683C48824201D32F
:1007600000BE626820783749401804215AF703FE1A
:1007700060E02578681E092836D8800034490B5877
:10078000344EB34256D10818816A01606468324819
:10079000018809062FD53149096809042BD4764907
:1007A0000988C90727D1A81804212246DEE7531C6F
:1007B0000121984241D30A3290423ED8C01EC0B2B5
:1007C000411E8A00224B9958002933D0214CA14266
:1007D00030D0244CA1422DD09A180023136093628C
:1007E000884727E000BE25E000BE23E01018002166
:1007F000016081621EE0EFF31083012181F3108814
:100800000088000603D4164806880E430680002B95
:1008100002D081F3108802E0002080F31088901E3F
:1008200080B2042108230A465AF766FA446005702C
:100830005AF77DFA049800210170084670BDC04641
:10084000010400000304000002040000FDFF3F005B
:10085000D4CDFC07AB1EFC07080000503000004060
:1008600008330050A91EFC07B0B50C460025202D0A
:1008700004D042F744F860556D1CF8E70020B0BD85
:10088000B0B5044609480A4D402229465CF790FD60
:1008900048350848302229465CF78AFD0648001B87
:1008A0000649088014304880B0BDC04670E0FC079F
:1008B0007C37F207B0E0FC07B8E0FFFF78E0FC0708
:1008C00007481E214180018803220A4302800188D3
:1008D00004220A4302806D48012101707047C0461E
:1008E0000016005070470000FD2801D0002070471E
:1008F00000487047F820FC077047704710B5044661
:1009000040793F280FD841F7FAFF2070010EE170BF
:10091000010CA170000A607041F7F1FF2071000A1C
:10092000C0210143617110BD80B5FFF765FE80BD38
:100930006A21564A515A01807047C04680B5482204
:1009400052498A5C0270401C49315CF731FD80BD20
:100950007D21C180002181801021418008210180FA
:100960007047000080B562F7FBF903480021C170B1
:100970000248017080BDC04618FAFC0778FAFC07EF
:10098000F8B504467A2646431B4885194F782F77D9
:100990002846143008210A4662F7A1FCA81C0090E2
:1009A00010223946174662F79AFC41F7A8FF124B0E
:1009B000995D01220A439A556882204600F034FC72
:1009C000297F0177698A4182E98AAA8A6B8B2D8BFC
:1009D000058343838282C182801C00993A465CF77A
:1009E000E7FC204600F020FC5AF7A1F9A0002749B7
:1009F000081800210161F8BDBCCCFC0770B581006E
:100A00000D4A54585518002C10D101020A310B48D8
:100A100004221E235AF770F9044601260670286046
:100A2000801C074907225CF7C3FC667020465AF712
:100A30007EF90020286070BDB4CCFC07140E0000C5
:100A40008C2AFC0780B562F775F8002801D0FFF703
:100A5000D3FD80BD10B50C46017801290CD00029CA
:100A600010D142884821094B5A544933011DD2B252
:100A700018465CF79DFC03E040886A21034A505207
:100A8000002000E04820207010BDC04668CDFC0763
:100A9000F0B585B04A78032A15D8C0467A44127951
:100AA000520097440601010C0849019101A9042252
:100AB00007E007A201A90B46F0CAF0C300E0891CB9
:100AC0001022FFF7CDFD05B0F0BDC04640E20100A9
:100AD000000102030405060708090A0B0C0D0E0F9E
:100AE00000208880488001200870704780B55EF73C
:100AF00033FC80BDF8B56946C870020A8A70020CE2
:100B00004A70000E087008465EF70EFC8FBD7047F5
:100B1000704770B505460469261D3068002805D069
:100B2000304641F7BBFF5AF754F8F6E7002028613A
:100B300020465AF74EF870BD10B589B2431C00200C
:100B400009280AD00C46C440E40704D09CB2641CB7
:100B5000944203D09B1C401CF2E70920C0B210BD98
:100B6000F0B58BB01E4607920F46044610980690CB
:100B700000880890002101200246092913D003258E
:100B80008540099020463446089ECE403B460127CA
:100B900037407E421F462E4032432646044609987F
:100BA000801C491CE9E70A92802030439E210140C5
:100BB000A08A03911D4902910190002000901C49D8
:100BC0000AAA132338464EF7ADFE0546002829D160
:100BD0000897202701210591384659F77FFF09968C
:100BE000064639465CF7FDFB266130461E3011494A
:100BF0006160A0600898008830830598E081142027
:100C0000E082A08A70800998C00307990843308069
:100C1000069800887083301D41F738FFA08A0021B4
:100C20005AF79BFA28460BB0F0BDC046EC24FC07EF
:100C30000A180000D025FC0700487047F025FC0783
:100C4000FEB5019302920C46142060F757FF05464B
:100C5000002800D100BE2778082F13D8698B288B75
:100C60003A4600F0F7F800280ED060788D268028EC
:100C700039D8082F0AD0072F0BD0062F0BD1082800
:100C800009D030E081262EE082262CE0072802D011
:100C900029E0062827D32E1D35462D68002D0BD0C0
:100CA0002979B942F9D100223046294641F766FF39
:100CB000284659F78EFF60780830012159F70EFF5A
:100CC0000546617808315CF78CFB207828716078E4
:100CD0006871A81D6278A11C5CF76AFB3046294642
:100CE00041F7F8FE0026064802230199029A5AF7B6
:100CF00003F82178017046705AF719F80020FEBDFC
:100D000001140000F8B514460D4610465AF73AFA99
:100D1000012840D1142060F7F1FE0746002803D0D7
:100D2000798B388B3E7F06E000BE1A2001881820A0
:100D300000881C221678324600F08CF80246787F34
:100D40000002083029788E4213D117466A7881B2A2
:100D5000931DF548224659F7CFFF06460020307113
:100D6000378068787080701D6A78A91C5CF720FB5A
:100D70000AE081B2EC4806231546224659F7BCFF2B
:100D80000646802030713580304659F7D0FF00216B
:100D900020465AF7E2F90020F8BDC046F8B51F46D4
:100DA0000C460878082811D80725002100911AA6BA
:100DB000784400794000874419040F040606121590
:100DC00018001A4E12E00D25174E0FE000BE002647
:100DD00001200090354609E00A2515A606E0082501
:100DE00018A603E006250EA600E014A6AB1C1848C2
:100DF000394659F781FF0746207838707D70009892
:100E0000002804D1B81C31462A465CF7D1FA38468E
:100E100059F78DFF0020F8BD52656E657361730050
:100E2000FFEEDDCCBBAA00008D29FC077929FC0769
:100E3000312E302E302E302D4C45000001D2008056
:100E400005000100123456FFFE9ABCDE00000000CF
:100E500003140000B0B58BB2411C00200446092CDD
:100E60000DD01D46E540ED0702D0A24202D0891CFC
:100E7000641CF4E7092A01D0481C00E0002080B27D
:100E8000B0BD80B55AF798FC4BF70BF980BD00BE9A
:100E9000704780B5002048F7D3FA60F7B1FB80BDFA
:100EA00080B5012048F7CCFA80BD80B54BF7F9F842
:100EB000FFF706FD80BD80B548F70EFB80BD000042
:100EC00080B5064801880122914301805AF758FCF9
:100ED00041F7B6FBFFF7F4FC80BDC0460833005075
:100EE00070B50C78A51E052D37D81C0A7D442D79C8
:100EF0006D00AF440221323543517A206043524A9B
:100F00001518887878216854C0070DD071350C20E9
:100F10006043D0490E1831462D31062228465CF731
:100F200047FA2C20305CA8710C206043C94908188E
:100F300033210022425449E07A2060434249081894
:100F40007821002242540C206043C2490818332102
:100F50004254204661F77EFE38E000F0BFFF35E0E6
:100F60007A256543384C60193A30891C17225CF7A2
:100F70001FFA605D04210143615527E07A2565432E
:100F8000314E70196130891C102422465CF710FA2A
:100F9000705D2043705519E07A2060432A4A141886
:100FA0008B1C488A002808D020461E301C22194677
:100FB0005CF7FEF92078022106E0A01C1C221946ED
:100FC0005CF7F6F92078012101432170002070BD03
:100FD00080B50A78072A24D8180A920001A39A58E3
:100FE0009746C0460510FC072310FC072310FC079A
:100FF0002310FC072710FC073110FC073110FC07F9
:101000002D10FC077A2141430F4A002353540C2131
:101010004143904A5118332201238B54FFF7EEFCD1
:1010200006E000BE04E0FFF733FD01E0FFF7A8FC97
:10103000002080BD180A7A224243034880180978AC
:101040007822815400207047BCCCFC0700207047F8
:1010500000207047FEB51F4615460E4610465AF74B
:1010600091F801280DD0002400285AD102971420AD
:1010700060F744FD07460028019604D0798B388B31
:1010800006E002244DE000BE1A20018818200088E6
:101090003288FFF751FD064608281ED800943C1DF3
:1010A0002468002C27D02079B042F9D16079831DC3
:1010B0001D4802992A4659F71FFE054601980088E7
:1010C000288000232B7160796880681D6279A11DDA
:1010D0001C465CF76DF928460AE01348062302997E
:1010E0002A4659F709FE019909880180802101717A
:1010F00059F71DFE15E03E770298010A79773846C8
:1011000060F71AFD0146094801272A463B4659F770
:10111000F3FD067059F70BFE284639465AF71DF8BD
:10112000009C2046FEBDC046140C000002140000C6
:1011300070B5294EB06800F051F80546084C2146BC
:101140005CF7BCF8706107494143481901D0201A87
:1011500080B23061306808210143316070BDC04603
:10116000710200008FFDFFFFF8B5174800210160F4
:10117000842016490E5A374CA76B304678432849CD
:10118000401828495CF79AF80546A0811048007875
:10119000022801D00B2400E01C243C367743204871
:1011A000381820495CF78AF82818001900F016F85A
:1011B0000849401880B25AF70DFB0120C0070649C4
:1011C0000A6882430A60F8BD9CF9FC07C0CBFC07A3
:1011D00078FAFC07E20400003000004080B50246C7
:1011E000C00B09D01B48C06B00210B465CF790F880
:1011F0008905800A401880BDF848C06B4243900AB8
:1012000080BDC04680B5FFF7E9FF80BD80B5F349DA
:10121000896B41430248081802495CF74FF880BDCA
:1012200020A1070040420F0010B501468000EB4AA4
:1012300014182069002800D010BD103409020A31AA
:10124000054804221E2359F757FDFF21083101806C
:10125000206010BD68CDFC07140E00009AB0DC4879
:10126000C8210491018000254580DA4808210D91AC
:1012700001801095D84C1098002812DC00200F90A7
:101280000F9A10990B2A09DC30224A43A1180F9AB1
:10129000920088500F99491C0F91F1E7481C10905B
:1012A000E9E7E368E9430120002B0E90074600D0F0
:1012B0000F46F800C94E326A0243706A0B903262E0
:1012C0000C977F0F002B0A4600D11A46D000C01998
:1012D0000B9A104370622769002F0E9B00D00B46BB
:1012E0001A0F002F084600D1384600018018726A94
:1012F0000243306A72620B931A01024332626768DA
:10130000002F0E9B00D00B46DA0F002F00D139467C
:1013100048008018716A0143306A716259000143C4
:101320003162756235620C98E0600B9820616360F1
:1013300010951098002835DC00200F900F980B288E
:101340002CDC0F9810990B2828D830201099414395
:1013500061180F9A92008958491C00D100BE10995B
:10136000414361180F9A92008958002913D01099AF
:10137000484320180F9989004058C1170F9A5CF70D
:101380005BF8109A12015CF757F8726A0A43316AE7
:101390007262014331620F98401CCEE71098401CE6
:1013A0001090C6E78E4F38880FAC20802088C0464A
:1013B000C04620880422D1430842089201D03D80D3
:1013C00003E0B88901218843B8810F200E90800284
:1013D000B98B0143B983834F38880D99084338800E
:1013E000012420020B902C305EF7C0F97C4B7888EA
:1013F00080210A9108437880F88D06229043F88571
:101400000C94A0033C46998B014399833888764914
:10141000014039807888029210430D998843788082
:101420000520099000070790408D704AFF32F98D22
:1014300011400E9A1203C005039222D403271046CE
:101440007A021143E185E18D0143E185998B0D9885
:1014500081439983998B0422914399836188644ADB
:101460000A4062806188634A0A40F802101860806E
:10147000E08D0C990843E085079F788D4007FCD5E7
:1014800019E00C9A90020143E185E08D5A49014030
:10149000D0030818E085988B0D9908439883988BA2
:1014A000089988439883E08D9043E085988B40218C
:1014B00001439983079F988B03210E9108439883DA
:1014C0002088202101434020C04301402180F98A27
:1014D0000A9A11430140F982398EFF220592914305
:1014E0003986398F089B1943182291433987398FE0
:1014F000A0220A4302403A87E9480380B888E949B4
:101500000140B9800C9C2004E7490860701CE74941
:1015100006905FF70BFB02205FF7D0FAE448006803
:10152000C1B20C20AA29014600D008993A8882430A
:1015300088183880C046C046DE4800883083DE48C0
:10154000006870612046C046C0468827DB48C55306
:1015500010ACDBA1242220465BF72AFFE149D748E3
:101560002A4623465DF782FFD44BD85DC10701D0E0
:1015700000BED85D4008D8558920195CCA070E9C6A
:1015800001D000BE195C490819548420195A22025E
:101590000029C74F02D11146E83119520192862124
:1015A000585A00282BD1059802023868104035227D
:1015B0001202904209D00D229202904203D03322AF
:1015C000120290421AD1942000E09020585216E066
:1015D000003100500233005038CDFC0768CDFC07C5
:1015E0000403005052000050FFBF000000F0FFFF56
:1015F000FFF90000FFC70000FF0F0000002070810E
:101600005DF71EFEB869A949886006985FF73AFB46
:10161000B5480068B5498842099F00D0CAE0B6487D
:10162000B6495BF7DEFE072008900102B4485BF77D
:10163000D8FEFEF7A1FDB348B3490160B348B449F1
:1016400030225BF7B5FEB3480027C7718771477139
:101650000771C770877047703F210170AE48AFA116
:1016600040225BF7A5FEBD48C7718771447105999B
:101670000171C170817041700170B9480770B9483B
:10168000B9490160B948BA490160BA48BA4901602C
:10169000BA480A250570BA480770BA480999016026
:1016A000B9480C9A0260B9480160B94802990160D2
:1016B000B84808990160B8480D9901600B98801DE1
:1016C000B6490860B6490860B6498B480860727828
:1016D0001B2076495EF7FAF8B34806970760B34CCB
:1016E0000E9839462A460C9D2B46A04704200990A7
:1016F0000922019C21462B46AC4FB847069F28463D
:101700002146099A3B46A94CA047A94C20465EF7C2
:101710008BFFA8480188A1890A9B1943A181A6498A
:101720000B220A800D992180A780A1899943A1816C
:101730000E99A1819B4C8583078487849F485FF71E
:1017400071F856490889284308815DF7A7FC5DF7C1
:10175000EBFC0399FF31079AD08C084008994902A5
:101760000143D1845DF7FCFC5F4800685F49884213
:101770003BD02068924908604C4B98689870010EE5
:101780005971010C1971000AD8700B99C031594A6E
:1017900018460E9F002917D0491E564BCB5C157872
:1017A0002C463C400419A4785C406C4014707D4C7D
:1017B000521CEFE74E484F497A02954200D92EE776
:1017C0002A586A502D1DF7E70C304A491C2205465D
:1017D0005EF76AFB0028069F00D000BE28465DF732
:1017E000A3FD4148414901600C9D206840F732FD4E
:1017F000744C2771E770A80701680B9A11430160C8
:10180000FFF75EF83078012808D16F480188490752
:10181000FCD43770304638305DF7BCFC48200E22CF
:101820003254E77069480770B762F7623763304631
:10183000493067495BF7BCFD483677840424654925
:10184000204659F758FC2046394659F786FCFFF7E1
:1018500089F8FFF789FC0F48049901800E480D991B
:1018600001805D485D4EB0475D48B0475DA0B04720
:10187000109762A0B04719A8077001210FAE324639
:101880003B465FF747F810A8214632463B465FF7D4
:101890007DF8FEE700310050023300500403005091
:1018A00000020050FFF7000080E200E0B82AFC07C9
:1018B000D02FF807D82FF807D42FF807C0CBFC0794
:1018C000D11AFC07A51AFC07511AFC0700000000FA
:1018D0007D1AFC070000000000000000D02EF80771
:1018E000C02FF807A000FC079CF8FC07658734129E
:1018F00000F0FC0724CEFC0700E0FC07AC1400005D
:1019000000F9FC0724FAFC070026FC07C8F9FC07CD
:101910005CDEF107A4F9FC073CFCFC07200080001A
:1019200000C00000000004000000282200000000A9
:101930000000040000F7FFFF7F00000030F0070800
:101940000000000000040000000000000000000093
:10195000000000000000000000000000ACF9FC07DF
:10196000C5F9FC0750F9FC07E036F20754F9FC070B
:101970009027FC0758F9FC077826FC07A1F9FC071B
:10198000A2F9FC075CF9FC0760F9FC0764F9FC07A5
:1019900068F9FC076CF9FC0770F9FC0748F9FC07CB
:1019A00044F9FC074CF9FC070000084099F9F107DD
:1019B000001100507C110050C01100501626FC0789
:1019C0000802004018FAFC070016005078FAFC07DD
:1019D000FC29FC073C20FC075A29FC07BD1EFC071C
:1019E0009B29FC070D0A202D2D2D2D2D2D2D2D2D64
:1019F0002D2D2D2D2D2D0D0A0000000049324320E4
:101A0000537461727431210A0D00000010B5984CB6
:101A10002078401C20700D490968C3B2314800226B
:101A20005DF776FE2078401E207010BD10B5904CFA
:101A30002078401C2070C3B22A48044900225DF778
:101A400033FE2078401E207010BDC046D42AFC070B
:101A500070B50C461D4811188925224E705DC000D6
:101A600030183030A2005BF7A3FC705D0019705590
:101A7000C0B20D2800D300BE70BDC0461348115837
:101A800009234B431058000C1A1A1204D214154B98
:101A900060331A8489B2401A0104890C0818401C6A
:101AA000D883704770B50C460848111888250D4E2C
:101AB000705DC0003018A2005BF77AFC705D001901
:101AC0007055C0B20D2800D300BE70BDD42EF807EB
:101AD00088001018024940587C21024A5052704731
:101AE000D02EF807C0CBFC070549884200D000BEC5
:101AF00004480188044A11408918091D0180704773
:101B00001111111112000050FC7F000070470000FD
:101B1000F0B58BB03022002181541F221204204BDB
:101B20001C6894430122550464191C601E4C1F4D0F
:101B300045611F4D1F4E204F204BC361066244621A
:101B4000184B8362C5621E4B07604360D004544A41
:101B5000136883431360282903D001A84154491C0A
:101B6000F9E718480068403001A928225BF720FCFB
:101B7000C048082101705FF72DFDFFF757FFFFF701
:101B800045FF00F091F85FF763FD5FF775FD5FF7C4
:101B9000E7FC23485FF7AEFD5FF732FD0BB0F0BD09
:101BA00074000040CD1BFC07C91BFC074D1CFC0743
:101BB0003516F207B903FC07251CFC07271CFC0798
:101BC0000D1BFC074CF9FC07002070477047000014
:101BD00080B51F20000401218A07536F8343480406
:101BE0001818506710680721884310600B48018857
:101BF00008220A4302805FF7EDFCFFF717FFFFF7AB
:101C000005FF00F051F85FF723FD5FF735FD04484D
:101C10005FF760FD5FF7F4FC80BDC0460800005030
:101C200070E0FC07704780B5E62800D3E62028283E
:101C300000D82820FF22EC3242437D20C10010460C
:101C40005BF73CFB7E38C0B280BD0000022902D0A9
:101C5000012900D000BE002802D0FF2804D000BE19
:101C6000022901D10C207047824800787047C04695
:101C70004CCCFC0780B50A480168C90703D001684D
:101C800002220A4302600168490204D50121890544
:101C900002680A43026003485FF76AFA80BDC046E3
:101CA00000020040A020FC07FCB57F2000025E4936
:101CB0004A6982430B20000210184861086880B20C
:101CC0005A4A801808608869594A02408A6103208C
:101CD000019000020A6B02430A63888F10220243BC
:101CE0008A8788880122009210438880514852498F
:101CF00001605249088810430880514E3046103820
:101D0000504DA98B01401520440108195030A8837B
:101D100068694D4901404D4808186861A8694C49F7
:101D20000140092040020818A8612868494901407B
:101D30004948081828606868484901404848081818
:101D40006860A8684749014047480818A860E868E3
:101D50004649014046480818E860C120400145490D
:101D60000978090608184449086005208102434A99
:101D700011804F1D9780178C55203843AA27B843F0
:101D80001084FF276C373846C93010853C4B184605
:101D90000E3090853B4810869386C01D10870A310F
:101DA0002985A86B3849014038480818A863384885
:101DB0000780028F32402146203152180287354D6C
:101DC0002A883240D219D5322A80AA883240121984
:101DD000AA802A89324051182981394621318180CF
:101DE0002D4801883140091960310180818A19220A
:101DF0000A4306218A43828207841F4A908F27491B
:101E0000014000984003081890870C4A106C019913
:101E10000843042188431064506A21490140214845
:101E200008185062FCBDC0462030004000006666C5
:101E3000FF00FEFF8000004059055C074010004095
:101E40001FFCFFFF042000400000E0FF09601A00B3
:101E5000FEE1FFFFE0E0000008092949000003035C
:101E6000696A686C031FFFFF70600000E0E0E0E05B
:101E70000B0A0A084CCCFC07001000402813004055
:101E8000260A0000510800002304E0FE181A06018B
:101E9000001200404412004088120040FF9F0000E2
:101EA00000FE00FE50015001704770470248018853
:101EB00001229143018070470411005010B504467F
:101EC000FEF75BF91D4900220A81888082B2024830
:101ED00021465EF7FFFB10BD00110050B0B50C4667
:101EE0000649884209D1481C022519462B4658F755
:101EF00003FFA188018058F71AFFB0BD0D0C000048
:101F000070B504460C2060430C4908182A21405C37
:101F1000FF280ED000250A4E1C206843315CFF29A3
:101F200009D030180169002901D0204688476D1C6E
:101F3000F2E7FEF761FBFEF715FD70BD68CDFC070B
:101F4000F820FC0780B5FEF757FB80BD02E008C80B
:101F5000121F08C1002AFAD170477047002001E023
:101F600001C1121F002AFBD17047000080B5024852
:101F70005CF7B2FD80BDC046A000FC0717B96798AA
:101F80004C664C01963331B1915900152368EC52DF
:101F90001E6244749A1BD18BAB75B66E9EE7BA086D
:101FA000B9A948ABA1AC031C2E0D296C20EE8D0CF9
:101FB000E1F04A0CB325DC536A68862D28D5E1C1CF
:101FC000E1C54729B55765C3BA47159E4F43313C14
:101FD000939242E6A876FA3BEFB4875A8C09E0D197
:101FE000815442408E4FD2B377E32A7720EE8D0C96
:101FF000E1F04A0CB325DC536A68862C4F43313C30
:10200000939242E6A876FA3BEFB4875917B96798DE
:102010004C664C01963331B1915900142368EC524F
:102020001E6244749A1BD18BAB75B66D28D5E1C185
:10203000E1C54729B55765C3BA47159D00000000A3
:10204000983BF20788CCFC07040001000214000052
:102050009D0DFC07FD31F2070907FC07B106FC07DF
:10206000E906FC078105FC07D104FC07F800000025
:10207000130E0000D10FFC07150E0000E10EFC0747
:10208000170E00004D10FC07190E00003510FC075C
:10209000150D00005110FC07032800280229012912
:1020A00080000000AB0EFC0702000000B70EFC072A
:1020B00008000000930EFC0700010000A10EFC07C1
:1020C0000002000075C1F007400000003794F007DF
:1020D00010000000C97BF00704000000C10EFC07DF
:1020E00001000000830EFC07200000008F0EFC079B
:1020F0000000000000000000FD0000003021FC078F
:102100002D0000009D04FC070000000000000000FE
:1021100000000000FF0000000000000000000000C0
:1021200000000000000000000000000000000000AF
:102130009A20FC07100000000100000010001000B1
:10214000B924FC079820FC070200000001000000F1
:102150000000000000000000AC1FFC0710000000A1
:102160000800020001000000000000009E20FC07A3
:1021700002000000010000000D000D00EE29FC0728
:102180009820FC0702000000010000000000000091
:1021900000000000CC1FFC071000000008800000B9
:1021A00001800000000000009E20FC0702000000EB
:1021B0000100000009000900CC29FC079820FC0759
:1021C000020000000100000000000000000000000C
:1021D0007C1FFC071000000001020000020000004C
:1021E000000000009C20FC07020000000900020023
:1021F00002000000000000009E20FC07020000001A
:10220000010000000B000B006D29FC079820FC0763
:1022100002000000010000000000000000000000BB
:102220008C1FFC07100000000100000002000000ED
:10223000000000009E20FC070200000001000000DA
:102240000B000B008129FC079820FC07020000000E
:102250000100000000000000000000009C1FFC07BF
:10226000100000000102000001000000000000005A
:102270009C20FC0702000000090002000200000090
:10228000000000009E20FC0702000000010000008A
:102290000C000C00D629FC079820FC070200000067
:1022A000010000000000000000000000BC1FFC074F
:1022B00010000000410000001400000000000000B9
:1022C0009C20FC0702000000090002000200000040
:1022D000000000009E20FC0702000000010000003A
:1022E0000C000C00AE29FC079820FC07020000003F
:1022F000010000000000000000000000DC1FFC07DF
:10230000100000000902020032000000000000007E
:102310009C20FC07020000000900020002000000EF
:10232000000000009E20FC070200000001000000E9
:102330000A000A00E329FC079A20FC0710000000AD
:102340000100000010001000C924FC079820FC07C1
:10235000020000000100000000000000000000007A
:10236000EC1FFC07100000000800020001800000C4
:10237000000000009E20FC07020000000100000099
:1023800008000800C329FC079820FC070200000091
:10239000010000000000000000000000FC1FFC071E
:1023A0001000000008800000010000000000000094
:1023B0009E20FC0702000000010000001100110037
:1023C0003729FC079A20FC071000000001000000DC
:1023D00010001000D924FC079820FC070200000020
:1023E0000100000000000000000000000C20FC07BD
:1023F00010000000010200000200000000000000C8
:102400009C20FC07020000000900020002000000FE
:10241000000000009E20FC070200000001000000F8
:10242000100010004929FC079820FC07020000005A
:102430000100000000000000000000001C20FC075C
:102440001000000001000000020000000000000079
:102450009E20FC07020000000100000007000700AA
:10246000BB29FC079820FC070200000001000000C7
:1024700000000000000000002C20FC0710000000FD
:102480004100000002000000000000009C20FC074A
:10249000020000000900020002000000000000002D
:1024A0009E20FC0702000000010000001200120044
:1024B0002429FC07001A212D03595A08E4862A9E74
:1024C0008FE911BC7C98434218595A08E4862A9E29
:1024D0008FE911BC7C7C464218595A08E4862A9E32
:1024E00008E911BC7CD04742180000000028000019
:1024F00001000000000000000328000001000000AF
:1025000002000000292A0000010000008080000075
:10251000032800000100000004000000242A00003D
:10252000010000008080000003280000010000007E
:1025300006000000252A0000010000008080000045
:10254000032800000100000008000000272A000006
:10255000010000008080000003280000010000004E
:102560000A000000262A0000010000008080000010
:1025700003280000010000000C000000282A0000D1
:10258000010000008080000003280000010000001E
:102590000E000000232A0000010000000880000057
:1025A0000328000001000000100000002A2A00009B
:1025B0000100000008800000032800000100000066
:1025C00012000000502A00000100000007800000F7
:1025D000D825FC070300000000140000410CFC0794
:1025E000130C00005510FC0703140000050DFC0738
:1025F000610BFC07130BFC07110BFC070F0BFC070F
:102600000000000000000000F4011700F43523482A
:10261000D0070640643248004F0008001700010050
:102620000100A00001010000140000004905FC07A2
:1026300000000000FF00000000000000000000009B
:1026400014000000390CFC07FD0000003D1EF207DD
:10265000FF00000000000000A105FC07ED04FC07DE
:102660000C2AFC07DD1EFC075420FC0790CDFC075C
:10267000BCCCFC0789CCFC0705000000D831FC0766
:102680000004000030D2FC07B002000024CEFC079A
:1026900000040000ECD4FC077005000020030000DB
:1026A00000A60E0004000000D2000000320000006E
:1026B0003C000000010000000100000002000000DA
:1026C00002000000040000000300000006000000FB
:1026D00000000000020000000200000000000000F6
:1026E00000000000030000000300000005000000DF
:1026F00005000000060000000A0000000A000000BB
:10270000C8000000B80B000002000000B80B000079
:10271000B80B000010000000D4010000CC01000044
:10272000700200006A0000000400000001000000C8
:10273000200000000C00000001000000E204000086
:102740008A020000DC050000AF0000001029FC0731
:102750007027FC078027FC071829FC075826FC0770
:102760000000000000000000000000005E0100000A
:10277000A8F8FC07A0F8FC07B8F8FC07F8F8FC0775
:10278000B424FC07B824FC073021FC07E908FC0747
:10279000111BFC07D11BFC07A7C6F00703C7F007F6
:1027A0000BC7F0075FC7F00777C7F0078DC7F007C3
:1027B000AFC7F00731CBF007D5CDF00715CCF00748
:1027C00035CCF00755CCF00793CCF007A3CCF0073D
:1027D0000DE2F007C9DFF007E7DFF00703E0F007DD
:1027E0001DE0F00731E0F007AFE0F007C7E0F007C9
:1027F000E3B0F1076BB3F10707A9F007B5EFF107F5
:1028000099F0F10795F0F10791F0F1078D21F007AC
:10281000E91AFC073111FC076911FC070D12FC07CE
:102820000512FC07057DF007D37BF007737CF007EA
:10283000AD82F1074134F1075D19F207DD19F207A6
:10284000811AF207BD1AF2074D1BF207851BF2072A
:1028500000000000F908FC07FB08FC077DB3F00747
:10286000D976F107617DF107B181F1079780F10712
:10287000C549F1079759F107F10AF107A1ECF007F3
:10288000E508FC07ED9CF007DDBAF00725AAF00784
:1028900099AAF00749ABF007E72DF007A32EF00740
:1028A000657FF0072F7EF0070136F007000000007B
:1028B000ED0AFC07F50AFC076908FC0701A7F10708
:1028C00083A7F10707A8F1078108FC07B5B7F00750
:1028D00000000000000000000000000000000000F8
:1028E00000000000000000000000000000000000E8
:1028F00000000000000000000000000000000000D8
:1029000000000000000000000000000000000000C7
:102910000826FC077CCDFC074026FC0750CCFC07B2
:102920000200000052656164206D652028696E64B4
:10293000696361746529005772697465206D65204B
:10294000286E6F20727370290052656164206D6576
:1029500020286E6F7469667929000D0A202D2D2DAF
:102960002D2D2D2D2D2D2D2D2D2D2D2D0041444383
:102970002056616C75652031004441313435333166
:10298000004144432056616C7565203200765F3605
:102990002E302E32302E31333338000D0A2049329A
:1029A0004320444131343533585F44535000496E1D
:1029B00064696361746561626C650052656164207D
:1029C0006D65005772697465206D65004C45442043
:1029D000537461746500427574746F6E2053746132
:1029E0007465004C6F6E672056616C756500436FAF
:1029F0006E74726F6C20506F696E7400526E6963F2
:102A0000615F4170705F546573740000011FFC07C3
:102A1000451FFC070000000000000000450AFC07FD
:102A20000000000000000000000000002909FC0771
:102A30000000000000000000000000003D09FC074D
:102A40003109FC075109FC07550AFC07000000008A
:102A5000E10AFC07FD08FC07000000000000000080
:102A6000FD09FC07910AFC070000000000000000BF
:102A70008109FC07000000000000000000000000C9
:102A80000000000000000000000000000300001033
:102A900000010000B42AFC07B82AFC072007000048
:102AA0005C1FFC07C0CBFC07C0CBFC076402000026
:042AB0005C1FFC07A4
:0400000507FC0111E2
:00000001FF
