:0200000407FCF7
:10000000B861FC072505FC072D05FC074505FC0725
:1000100000000000000000000000000000000000E0
:100020000000000000000000000000005D05FC076B
:1000300000000000000000005F05FC07B722FC077D
:10004000611FFC073D4DFC071D27F007B922FC0787
:100050000922FC076305FC07551FFC076305FC0725
:100060006305FC076305FC07BD20FC07C720FC07F0
:10007000D120FC07DB20FC07E520FC076305FC071B
:100080002123FC076305FC076305FC076305FC07E8
:100090006305FC076305FC076305FC076305FC07B4
:0200000407FCF7
:100510000348854601F00CFD004800472540FC07D4
:10052000B861FC070F4880470F4800470420714618
:10053000084203D0EFF309800C490847EFF3088025
:100540000A49084704207146084203D0EFF30980A6
:1005500007490847EFF3088005490847FEE7FEE72B
:10056000FEE7FEE7114FFC071105FC071922FC0707
:10057000A521FC0770B50E4604460022032151F761
:10058000EAF9054652F7B6FB6880284651F7F4F9B8
:1005900052F7B0FB7188884200D3084601462046D6
:1005A00051F7D1FA002070BD0246FF4B92009A58D5
:1005B0000120126900290ED0517F5E239B5C002B25
:1005C0000BD0052906D1517E090702D5917C090778
:1005D00000D400207047917DEFE70229F9D004296B
:1005E000F7D00529F6D10020EDE7024630B593009B
:1005F000ED4A0120D2581269137DD47E157F234025
:10060000547D2C40012901D0022909D1957C527ECC
:1006100015402A0704D41A462243D20700D10020ED
:10062000032901D0042904D1590702D4610700D459
:10063000002030BDF8B514460D4610465BF76DFC42
:10064000240A002830D0D949A2008B5801271E8BDC
:10065000BF023E431E83132826D0142824D0152819
:1006600011D088582D210A5C0123D10600290CDA0B
:100670000146A0318E7D002E07D08B753D2120468E
:1006800045F7B8FE10E00220F8BD110703D50021A0
:10069000A0308175F7E7A0308375204643F7A4FBAF
:1006A0002946204643F7E3FB0020F8BDFFB581B0A3
:1006B0001546170A10465BF730FC002838D013287F
:1006C00036D0142834D0290A8C00B84E152815D0FD
:1006D000FF20294603305BF707FD30592D21095CC7
:1006E000C90603D5A030C07D00280ED03D026D1C88
:1006F000A8B25BF712FC19280CD00FE03059012189
:10070000A030C175022005B0F0BD3D21384645F747
:1007100071FE0DE0A8B201215BF7CDFB305901223B
:10072000018B5202914301833846029943F79FFBA4
:100730000020E8E7F0B59D498700C95900268031BF
:100740004A8C8B8C1B2A00D21B228C8B944200D2A9
:1007500022468A849A4200D001260B8CCD8C1B2B1A
:1007600000D21B23CC8B9C4200D22346CB84AB42CD
:1007700000D001260B8ECD8D9C46FF2349339D4230
:1007800001D21C4600E02C460D8DA54200D3254623
:100790000D86654500D001264C8EA4468C8D9C426A
:1007A00000D21C464B8DA34200D21C464C866445A9
:1007B00000D00126EB080B3B9BB29A4200D21346B5
:1007C0008B86522379495843794BCA591C68803229
:1007D0000419D28C8034E285C9591A688031801896
:1007E000498E803001863046F0BD10B50446714810
:1007F000008D8007800F012800D000206071002844
:1008000007D057F7F3FE01460622A01D5DF74EFC08
:1008100010BD06226849A01DF8E770B50546002402
:1008200042F7A9F82855641C082CF9DB70BDF8B50F
:10083000022707700126044646700D4688795F49F5
:10084000C96988472A210855287900210007000F27
:10085000A07003005DF77EFC07050709100D100B63
:100860001000A1700AE0A67026E0032002E0A77045
:1008700004E00420A07001E001281DD0A888000A2F
:10088000801FC0B2A0721F2800D9A172284642F76B
:1008900027F9811D2046A27A0B305DF707FC284618
:1008A00042F71EF901460622201D5DF7FFFB28795D
:1008B0004006C00FE070F8BDA172F0E7F7B54468DC
:1008C0008CB02546243503950546074624354CF75C
:1008D0001BFA06464420405B5221484334490968CC
:1008E0004018C0304089694608840121384647F7DE
:1008F0004AF94CF77EF809900E9800698088000A42
:10090000C1002F480818298940182D495B315DF72F
:1009100053FB01466868039D4718403528890690B7
:100920000090A0680099381A400140095DF744FB27
:100930000A910098C019401A400140096946A06018
:10094000098C4900C919891C49014909884204D206
:100950000699401840014009A06001460998081A0C
:10096000400118494009884215D900202B89A26806
:10097000401CD21852015209A260EA89521CEA8135
:10098000A368099A9A1A520152098A42EED801B212
:100990000D9847F799F9A1680998081A4201607DF6
:1009A0005209824221D80FE02C7EFD071879FD07FD
:1009B0004C76FD074C7EFD07CF79FD07B47FFD0720
:1009C00016020000FFFFFF032A898918490149091F
:1009D000A1602A890A99511A814206D901210D98EC
:1009E00047F772F9E889401CE8812989A0685DF71A
:1009F000E3FAF1802889B080208A3081A88870814C
:100A00000020B081C807C00FB073A88852214843A6
:100A10008E30308230464CF782F903984663204688
:100A20000FB0F0BDFFB5002093B006460124FE498B
:100A300049680A7821460C2A0CD06A4611730022B4
:100A40001192002E09D015990291169D1F2D54D98F
:100A5000402052E000242246119413990291149DE3
:100A6000F4E7029989184978012905D0172903D09C
:100A7000182901D0192912D1631E04E003AFFF5CCD
:100A80008F4204D05B1E5BB2002BF7DA03E0002B31
:100A900001DB4A2003E003AB1955641CE4B20B00F0
:100AA0005DF758FB1D2610101010101010101026A6
:100AB000262626262626262626262626101010102E
:100AC00010102600119B03E00BAFFF5C8F4204D097
:100AD0005B1E5BB2002BF7DA03E0002B01DB4A2040
:100AE00006E0119F0BABD9551199491CC9B2119160
:100AF0000299895C521C89188AB2AA4201D2002844
:100B0000AFD0AA4200D04A20761CF6B2022E01D203
:100B1000002894D017B0F0BD10B50022134607E0AE
:100B200084186478012C07D0845C521CA21892B2FD
:100B30008A42F5D3184610BD80188378FAE7F0B5DD
:100B40000646A9B01546002084006318DA789F781D
:100B500012025B783A4352BA1B041A430B5D072416
:100B60001B061A43231A9F0020AB401CDA510828A9
:100B7000EAD300218A0090190746C37880781B02C7
:100B8000034378785BBA00040343B05C10AA000604
:100B90000343601A800013503846223043780078AF
:100BA0001B0203433846203047785BBA3F04007885
:100BB0003B43000603430F27781A8000491C13505B
:100BC0000829D7D35CF706F9014630465CF77FFD6C
:100BD00000282DD05CF7FEF8034620AA10A968462D
:100BE0005DF780F900226846A11A8B009600C75C69
:100BF0007119CF70C75A3F0A8F70C7583F0C4F709A
:100C0000C35820311B0EAB550F239B1A9B00C65CAB
:100C1000CE70C65A521C360A8E70C658360C4E70AC
:100C2000C3581B0E0B70082ADED3002029B0F0BD7C
:100C30000120FBE7F7B500251746064641232A4663
:100C400029460A205AF7B4FF0446002E10D0012E80
:100C500002D0022E0CD105E02022611C002041F7B9
:100C6000A3FE04E0621C3946019841F74DFE207056
:100C700020465AF7B6FF2846FEBDF8B56B480090EF
:100C800007680C46002F7BD005461C35287E0028BF
:100C900076D0012802D0022872D102E02078002804
:100CA00019D038896249002688423AD107204BF78B
:100CB00023FC002835D042233E2200215D485AF70C
:100CC00077FF082101702178002913D0032141709A
:100CD0002178817043E055480226611C14302E763D
:100CE000202204465DF7E2F922465349304641F797
:100CF00015FE45E0002146701F22531A1B194718A4
:100D00005B78491CBB702029F7DB00213F22531A76
:100D100047181B1920375B78491CBB702029F6DB6C
:100D20001DE043493889491C88421AD108204BF7F5
:100D3000E3FB002815D022233E2200213D485AF72C
:100D400037FF09210170217800291BD01221417041
:100D50000021FF224318491C9A702029FADB4DF725
:100D6000D7FE2E7640205BF7A6FB009841F7DAFE0F
:100D70005AF761FF00980068002801D041F7C9FDCB
:100D80000020F8BD002146701F22531A1B19471876
:100D90005B78491CBB702029F7DBE0E770B5087869
:100DA00000250C46012809D01D2810D02B2812D070
:100DB0004022194655F7BCFE284670BD5BF765FA20
:100DC0001948012504601D4857F745FAF4E71C4807
:100DD00041F708FDF0E71B4801680029ECD101212B
:100DE0000160194841F704FEE6E770B5104D174C55
:100DF000223DAB422ED10F4809232A460021C01EB6
:100E00005AF7D6FE044608221149401C5DF74EF9F8
:100E100020790821084320710025257020464DF7D0
:100E200077FE284670BD00004C7EFD07287AFD073E
:100E3000252000000408000089E7F107030C0000EA
:100E4000C3C3C3C35077FD07CC7DFD070DC3F007B7
:100E50005CE5F107A047E5E7F1B584B00498FF49E8
:100E600080000C5804980502A81D0290002C15D093
:100E70006068818804290CD34188861D0C38009154
:100E800001903146049857F7BCFFF549884206D1D6
:100E900060680C385AF7CFFE0020606033E4F178C8
:100EA000B2780F02019928431743C880384640386A
:100EB0003F2819D803223946049854F729F8060028
:100EC000E6D0B07B0128E3D13420B07329460A3143
:100ED0000423E448029A5AF76BFEB189418010213D
:100EE00001705AF77EFED3E7616834200870022152
:100EF00000985AF74FFD05463146009A5DF7D6F83F
:100F000068782978000208436168C880E878A97881
:100F1000000208436168062F08810BD0042F09D016
:100F20006068052F10D00C385AF785FE28465AF70E
:100F3000ACFDB1E760688188052913D329798172F6
:100F40006168287988720DE0818805290AD329799A
:100F5000817261682879887260688188062901D366
:100F60006979C17260685AF73CFEDFE7FFB587B068
:100F70000E4609985AF7D1FF0999090A03910028EA
:100F800076D08800B54905900D58B749B079096BFE
:100F90000A225043B478081841F7A2FD019068680E
:100FA000002808D0012C2DD00398FFF755FF686862
:100FB000002802D026E0022C5AD1B088012702284E
:100FC00005D30198417800780C02044302E051F700
:100FD00091FE044651F78EFEA04201D20224002762
:100FE00020464C3083B29E49A048099A5AF7E0FD4A
:100FF000241D68604480002F01D0002000E03420D0
:101000006968087068680028BAD0811D0091B288AC
:101010000199841C071D01928088238882189A42B6
:1010200009D8009A8018019A5DF740F8398801982C
:101030000818388009E01A1A009BC0185DF736F8C6
:1010400020883880696834200870388804280FD3D5
:10105000009841780278080210432188001D8842D8
:1010600007D280B220803988814207D9388002E0D7
:1010700068E0884202D9696834200870388821887D
:1010800088425FD1686800990C380190039857F73F
:10109000B8FE69680978002951D1714988424ED05B
:1010A00003990F0201993843C880208802210190DA
:1010B0005AF770FC0490228800995CF7F7FF0498B7
:1010C00000283FD0696800208880019802226B4682
:1010D000039907C36868049B821C011D801D41F7AA
:1010E000D9FB6968087004985AF7CFFC6868418892
:1010F000002902D00178002954D0018940393F29C4
:1011000044D8017830291ED00146544A05980C393C
:101110001058083041F722FD69680398891D41F78E
:10112000CAFB4628686801891FD00322039853F739
:10113000EFFE00282CD0808A00282CD028E00398CD
:10114000FFF78AFE42E04A49098D0906C90F07D018
:1011500048490C380968099A898D89B25AF75EFDA9
:1011600068680C385AF767FD12E00322039853F7BA
:10117000CFFE04000CD039460A3104233948099ABD
:101180005AF716FDA1894180102101705AF729FDF7
:10119000002068601AE0686800220189039841F71E
:1011A00085FBF5E70189084640383F280ED8032221
:1011B000039853F7ADFE002808D0808A002805D197
:1011C000686800220189039841F770FBB07941F704
:1011D0007AFC00200BB0F0BDFFB58BB00646169828
:1011E0000027022821D00D980188149881427DD3D0
:1011F0007188084640383F2802D8159853F7C9FE31
:101200000C98361D0088149A80190E995CF74EFFD1
:101210000C980188149808180C9908800D9801887A
:101220001498081A0D99088069E100200E9D079016
:1012300069782C78090221433180E978AC78090279
:10124000214371808C46403904242D1D02460346FB
:101250008E46402900D3287861460DE0AC7DFD071D
:10126000FFFF0000260E0000E078FD07010A0000E5
:101270004C7EFD075876FD0704291FD0052914D0A0
:10128000062918D070463F283ED8159853F781FE9E
:101290000006000E04D0FC48008D0006C00F31D0BF
:1012A00002230120F94A002712E0697800290FD0B3
:1012B000F74A17230CE0F74A0F2309E0522802D01F
:1012C000D22802D002E0142000E01520F24A1F23A9
:1012D000002A7DD098427BD28000105804900028CC
:1012E000F7D0002008900590708800E006E14038B3
:1012F000402803D32878052430716D1C701D0090A0
:101300000498AFE03027EDE03327EBE0522864D0BB
:101310000CDC4B283FD004DC41286AD042285AD14B
:1013200011E04C2820D0502855D140E0632830D01F
:1013300004DC572818D061284DD19BE06C2864D07C
:10134000772848D109E00098297801700098641C3A
:10135000401CA4B26D1C009081E00498401C0490D5
:101360000178089881427AD10098A41C401C410859
:101370004900881C009068782A7800021043088091
:101380000599AD1CA4B2002969D0089000200590F1
:1013900065E00120FBE71022294600985CF786FEF5
:1013A000009810341030A4B21035009057E0204659
:1013B00040301499039088420DD840222946009865
:1013C0005CF774FE009840300090039884B200E00F
:1013D00079E0403543E0342741E00822294600986F
:1013E0005CF764FE009808340830A4B20835009019
:1013F00035E00622294600985CF758FE0098A41DA7
:10140000801DA4B2AD1D009029E01498001B80B28D
:1014100003903088001B001D81B2012007900498C2
:10142000401C04900098401C400840000090049824
:10143000007857281CD04228CDD100980170090AA5
:10144000417000982946801C0090039A5CF72EFE9C
:1014500003980399201884B20098401800900498CB
:10146000401C04900078002820D0002F19D01DE0E7
:101470004908E2E71498001B80B203900098039A91
:10148000401C41084900012000910790294600981E
:101490005CF70CFE03980099201884B20398081892
:1014A000DCE70D990988A14200D32FE70D98008849
:1014B000A04208D304990978002904D1079900298A
:1014C00003D1A04201D034270CE00D99001B088005
:1014D0000C9801880098801B001F08180C99002F99
:1014E00008800CD07088042809D0062807D040381E
:1014F000402804D30E984079707100E034273846B4
:101500000FB0F0BDFFB581B01F4616460C46104621
:101510005AF703FD00253F2802D02189062908D06B
:101520003B4632462146019854F7BFF80546284607
:10153000B4E4000701D50225F9E720780028F6D1A8
:10154000300AA11D41F7C1F8F1E7F3B581B0019868
:10155000524C850060590F464068CE8801462431C0
:10156000009146F7E3FE00994D4A40310091C98948
:10157000701A80B2904214D2B14212D060593146F2
:10158000406845F78CFF60590522791C1F305CF7D5
:101590008DFD019805210002401C80B25AF78BFC9A
:1015A000FEBD60590522791C1F305CF77FFD009855
:1015B000808841F767FFFEBDF8B53A4C06468500C6
:1015C0000F4660594821095C24290ED10069102278
:1015D000791D2E305CF76AFD615925204031087273
:1015E00000221146304652F739FE60594821095C05
:1015F0000C291FD100691022791D2E305CF756FD91
:1016000060595F210069095C09072DD401462E311C
:1016100010221E305CF76EFD00280CD060590921A5
:1016200040300172304653F737FB01460022304606
:1016300052F79FF9F8BD0421684601706A460521FA
:10164000304652F741FB6846017860200143684606
:101650000170304653F720FB0146684602780123AB
:10166000304652F79BFAF8BD304653F715FB012878
:101670001AD06059072140300172002211463046CD
:1016800052F7ECFDF8BD00004C7EFD0714F3F107A6
:101690001CF3F10778F3F107B4F3F1071879FD07AC
:1016A000FF7F00002C7EFD07615900200969C031D1
:1016B000887160590421026930461E3252F704FBDA
:1016C000605901694031897F002907D01A214030D3
:1016D00001720021304652F74BFED3E71B21403008
:1016E0000172304652F799FECCE7F8B5FC4C05463E
:1016F0008600A0594822125C192AC3D140224930E1
:10170000491D5CF7D3FCA0594022F64949305CF7EB
:10171000F1FC002805D0F3492846203959F749FF44
:10172000B0E70B21684601706A460521284652F74A
:10173000CBFA68460178602001436846017028466C
:1017400053F7AAFA0146684602780123284652F761
:1017500025FA97E7FFB581B003980C46060A0025E5
:101760005AF7DBFB002818D0132816D0142814D001
:10177000DD48B700C0592030407BC00628D503980B
:101780005AF7CBFB15280CD0A07941F79CF93046CD
:1017900045F7B3FD032806D015E0A07941F793F98A
:1017A0001FE002251DE0D048C0592030407B400793
:1017B00004D53D21304641F7BEFD04E03D22002125
:1017C000304641F7C6FD3D21304644F713FE08E0A0
:1017D00020460C38C5498180C68020464DF798F9CF
:1017E00001252846A4E6F1B58EB00E9841F778F9A8
:1017F00004460E98694600794006C00F0A9006908C
:101800000A208883628BBA49101A88427ED2E08A05
:1018100006287BD31921C901884277D8238BFF2161
:10182000F5318B4272D85B1C990059184143491C11
:101830000A2349105A43914268DC217F00290CD1C8
:10184000617F002909D1A17F002906D1E17F00290C
:1018500003D12021095DC90658D027462037797861
:10186000C906C90E491F0C2950D2A18A81424DD800
:10187000E17C00294AD0421E082A01D9082000E054
:10188000401E814242D805A844F79CFD00283DD166
:10189000984D0622E861214608A85CF707FCA87865
:1018A0002E46803E00287ED06079800901280AD02B
:1018B00020460A994AF7C4FE00285ED03821095C08
:1018C000002954D059E020464AF727FFE861002854
:1018D00004D10BA920464AF736FFE861F16A887AFD
:1018E000012801D0042810D1E86900280ED0062272
:1018F000253010315CF7FEFB002807D1E869F16A5A
:101900002030C07AC97B884200D100E0A2E0E969BA
:10191000002932D0062208A825315CF7C7FBE86908
:101920002B21095C07AA253006914AF76BFD002898
:101930000FD0E8692030C07A002811D168466E497E
:10194000808B49F711FD07AA01216B484AF75AFD20
:1019500006E007AA01210BA84AF754FD00280CD085
:10196000E9696846808B323149F714FD05E0421879
:10197000527D002A08D010296CDBF06A407A0228D8
:1019800006D0032804D00EE0491C1029EFDBF4E751
:101990006846808B0A2806D307AA20460A994AF788
:1019A00031FD002856D0002205A920464AF7D4FD73
:1019B00000284FD1F06A407A02280BD0032809D0C2
:1019C00000236846828A08A806994AF7E6FD00289F
:1019D00002D02EE00123F4E7E18A68460180218BE2
:1019E0004180618B81807878062241096846817345
:1019F0007878C106C90E684641732146801D5CF7A0
:101A000055FB0E9800794006C10F68460173838A22
:101A10002146B26D45F783FC0146B065684641F743
:101A200029FB0020B065214668461C31808A44F7B6
:101A30001CFD47F7BAFC2F4C20342079002805D034
:101A4000002109205AF750FB002020710021084690
:101A50005AF731FA54E570B516460C46488853F7E4
:101A6000F2F80546FF2838D0012153F762F90C2817
:101A700004D100220121284652F744FF0023E01838
:101A80000079002803D15B1CDBB2082BF7D3144884
:101A9000A9004058006900280AD04030C07F0007E4
:101AA00006D4082B04D30121284651F7FCFF14E08B
:101AB00029021E23324611480A315AF779F80546A1
:101AC0000B202870A089688228460822211D143026
:101AD0005CF7ECFA28465AF784F8002070BD000045
:101AE0002C7EFD07EC7DFD071879FD070608000038
:101AF000770C0000E479FD0704E5F107160E0000FD
:101B000000207047F7B5784E0D468700F15982B036
:101B10000E2D08D10A69002A05D0537EDB063DD57B
:101B2000927CD2063AD540310402C97920460A3067
:101B3000C907009000290AD00146E32000015AF7A6
:101B4000D3FAF0594030C17949084900C1710520E4
:101B5000A11D48234002009A5AF72AF8044606209D
:101B6000A0806249A571A8000A58A01C049990475A
:101B700020465AF736F8052D10D00E2D0ED05C48B1
:101B80000099006880304269E32000015AF762FA48
:101B9000F05901224030C1791143C171C8E4F8B550
:101BA0000C4605465049800008584030C07940072F
:101BB00017D4204640F784FD69460870002809D0F4
:101BC00007280ED00121284653F7B3F860260C28C9
:101BD00008D00EE02079474980000A58214628465F
:101BE00090474FE56846027801213243284652F774
:101BF00089FE6A460521284652F766F820790128B1
:101C0000EFD00B28EDD0284653F746F8014668463A
:101C1000027801233243284651F7C0FF32E538B538
:101C20000D46044653F738F801280DD1204651F7E8
:101C3000B5FD69460870002807D0092804D10A4676
:101C40000521204652F740F838BD2749A000085822
:101C500000690028F8D10121204653F76AF80C28C2
:101C600004D100220121204652F74CFE21020A3104
:101C700008230A46204859F79BFF04460A20207093
:101C80000622691D601C5CF711FA204659F7A9FF6E
:101C900038BD70B50C460546012153F74AF8014698
:101CA00070200C2911D0104AA90051580969002947
:101CB0000AD064790443284652F7EEFF0146002318
:101CC0002246284651F76AFF08E76279012102435C
:101CD000284652F717FE01E70948084901600949FB
:101CE00041607047704770472C7EFD0730F4F10764
:101CF0005876FD076CF4F107120E00008CBFF10757
:101D0000C0000840C856FC07F8B53E4C6088C607BE
:101D10006088F60FC005C50F6088400840006080ED
:101D20006088FF270137B843608040F749FE40F7DD
:101D30004DFE00220821022040F73CFE002800D082
:101D400001206188A1886188490849003143618088
:101D500061882A02B94311436180F8BD70B501253D
:101D600029492A020A60BFF34F8FBFF36F8F2749BB
:101D70000A6027490B681C0A240240231C430C609C
:101D8000214980390A601F494C880626B443241D26
:101D90004C804C882C434C804C8838252C434C80FC
:101DA0004C889C434C800F280FD14888330218433D
:101DB000488048881043488048882A021043488059
:101DC0004888012292039043488070BD10B5114CA1
:101DD000E18A114ACBB21189248BC904890E6404AB
:101DE000640E001B093141430120C002401A80B239
:101DF000584340031189000E090A09020143118169
:101E000010BD00002020005080E100E080E200E0F2
:101E100008E400E000230050002C0050F8B5020256
:101E200005464123092134480A3259F7C1FE2721CA
:101E30000170044600201F233049AA008F581E1A43
:101E40004936BE5D2718401C7E702028F6DB002036
:101E50003F238E581F1A4937F65D27182037401C3C
:101E60007E702028F5DB5AF7B5FF0146601C5BF752
:101E70002EFC002812D10A2000906A46052128462F
:101E800051F722FF284652F707FF009960221143BD
:101E9000CAB201460123284651F780FE204659F771
:101EA000A0FEF8BD70B505460446008914490C34FF
:101EB00088B088421AD100201F216E460A1AA25CFF
:101EC0003254401C2028F9DB2022314620465CF7A2
:101ED000EDF800203F210A1AA25C3254401C202851
:101EE000F9DB20226946A0185CF7E0F8284649F79C
:101EF000FCF908B070BD0000270D00002C7EFD0726
:101F00002620000000280BD000BF00BF00BF00BF8C
:101F100000BF00BF00BF00BF00BF00BF401EF1D127
:101F20007047421C0178401C0029FBD1801A704781
:101F3000064C0125064E05E0E36807CC2B430C3C1C
:101F400098471034B442F7D3FEF7E6FA145BFC0767
:101F5000445BFC07014801210180704708150050CF
:101F6000F8B505252C07608980074E4E22D0A08A3F
:101F7000400701D502F042FC218C802001432184DE
:101F8000FF21718004213180218830220A43228080
:101F9000218803220A4322804349F288B38812042D
:101FA000D2188A42F9D33580DC49498A6180218C74
:101FB000814321843D4801884907FCD42088302290
:101FC000904320802188032081432180D3492B0620
:101FD00044D06D1E338802271F4301239F4337805F
:101FE0000423738037881F4337802388134323805B
:101FF00023880343238033885B0701D500BFFAE7BA
:10200000238893432380238883432380F388B788DE
:102010001B04DB19264FDB19042B0DD900238B82FF
:102020000B78002B01D019231B018F69BF1C9F4225
:1020300000D31F468F61CAE78A8A521C8A8292B2F5
:10204000142A0BD300228A820A79002A00D0132294
:102050008B695B1E934200D813468B6161898907A7
:1020600006D0618981436181608C0121884360844D
:102070002089802101432181208A042188432082F4
:10208000A08A8007FCD540F77AF90A480021016050
:1020900009480168490700D500BE01684907FCD519
:1020A000F8BDC04600160050E90300000833005098
:1020B00061F8FFFF080200401000004080B50A20D0
:1020C00000F04EF880BD80B50B2000F049F880BDCF
:1020D00080B50C2000F044F880BD80B50D2000F0E4
:1020E0003FF880BD80B50E2000F03AF880BD0000BA
:1020F000FEB5019300920291054601270021384662
:102100002A465CF717F8E84A536B0B40166B0640FB
:102110001E4300D100BE536B0B40166B0640019C62
:10212000002C06D01E4300D100BEAF400B4E3780BE
:1021300005E01E4300D100BEAF40084E7780536BD0
:102140000B40116B0140194300D100BE0298009969
:102150000143680030188180FEBDC0460230005047
:1021600070B5C0B203460A3B01210A469A4093B2B9
:102170000A4C1C195C406608094B1C880025360473
:1021800002D06D1C760CFAE79443AAB20D46954036
:1021900025431D8081404248016070BDFFFF010062
:1021A0000E14005016490A88802313430B800368DD
:1021B000144A13604368536083689360C368D360B4
:1021C000036913614369536183699361C369D3618F
:1021D0001062364803685362436893628368D3622F
:1021E00043691363C3685363006990632D480822F1
:1021F00002804888800600D4FEE700BE7047C046D3
:10220000120000500000FD070248008824481021F9
:10221000016070472C13005020490A89042313439E
:102220000B810A89022313430B810A88402313433D
:102230000B801B4A012313601A4A082313804A8922
:10224000802313434B810368174A1360436853602C
:1022500083689360C368D360036913614369536102
:1022600083699361C369D361106210480368536244
:10227000436893628368D36243691363C36853639B
:10228000006990638889800600D4FEE700BE488913
:10229000074A10408018001D488170470800005010
:1022A00080E200E0003300505000FD0728ED00E020
:1022B000FC7F000070477047B0B5174C7A4DA1887D
:1022C0000F200840022806D0042810D00C2811D076
:1022D0000128F4D11FE02889A98981420FD2A08862
:1022E000C02101402046C02912D0103011E002F078
:1022F000CDFDE4E702F0CAFD2088012105E0208839
:102300000221884320802088802188432080D6E7CE
:1023100078300088D3E7B0BD04110050604CFD0751
:1023200005200007018830229143018001880322A3
:10233000914301800421415E002906D50E490A8897
:10234000520702D50A88D2070DD18088C00609D568
:102350000A480188090605D501218180018880226B
:102360009143018070470888022202430A8008884E
:102370000122904308807047000200500001005085
:102380002048018802220A4302800549491C02D2E2
:1023900002889207FAD40021018140897047C04623
:1023A0005F79FEFF10B51749174A0A8000224A805C
:1023B000164A40231360BFF34F8FBFF36F8F00287F
:1023C0001ED00A88124B13400278D2021A430A80A8
:1023D000104A134640330C881C4043789B0123432A
:1023E0000B800B881340827892021A430A800922DC
:1023F0004A804A8802239A43C078400010434880AC
:1024000010BDC046001500500140000080E100E012
:10241000FFF70000FFFBFFFF70B5334809210424DC
:102420001823224659F7C4FB05461B202870FD26B9
:10243000304601F081FD0021A982E96029616C60CC
:102440006E806870284659F7CCFB70BD012070473C
:10245000B0B5154842791549D4B20C236343CD5C1D
:10246000FF2D0AD0012C02D102224271F4E7521C46
:102470004271C818406880470EE081790C4ACCB29E
:102480001C236343D45CFF2C08D0491C8171D318F2
:10249000DB68002BF3D098470020B0BD00214171CC
:1024A00081710120B0BDC046604CFD07F057FC07AC
:1024B0000C51FC0770B50C48092104240A2322465C
:1024C00059F776FB05461B2028701426304601F08C
:1024D00033FDFF21743129816C606E80687028465D
:1024E00059F77FFB70BDC0461B0D00001FB5144699
:1024F00001220292044A0192069A00921A46234649
:1025000000F02AF904B010BD3050FC0770B5174E2A
:102510003468002C20D1164809250422522329466C
:1025200059F746FB04462B20002121543460A17248
:102530001048E080A0800D202080E172FF2008304C
:10254000208165730F20207320460E300A490E2229
:102550005BF7ACFD1020E072204659F742FB0020EB
:1025600030600420022159F7A6FC70BD0C4BFD071A
:102570000D0D00004C040000FC5AFC07F8B5009259
:102580000D468100104A56585418002E0AD10102F7
:102590000A310E4804271E233A4659F709FB06461E
:1025A00007702060B71C102138465BF798FD38464D
:1025B0002946009A5BF77AFD01207070304659F782
:1025C00010FB00202060F8BD404BFD07140E0000FA
:1025D000F0B585B0039302920E4607460020041D15
:1025E0001C2C0ED004A900910AA10D583846314682
:1025F000029A039BA84700282046F0D104A800783F
:1026000006E038463146029A039B02F05FFC002048
:1026100005B0F0BDE126FC07BD27FC070127FC073C
:102620003927FC07ED24FC074D24FC07F0B587B0E3
:102630000590069201918A4200D200BE0698011FC1
:102640000391C01E02900198C11E0491002402460D
:102650002046C5B20498854218DAE843069947181F
:10266000164640F788F9010E059BD955D919491E20
:10267000020C0A700299491B020A5A543246039905
:10268000491B5854321F281D241DE2E7E0B201996E
:1026900088420ED106980199411AC8B2059A891844
:1026A000491E002803D000220A70401EF8E707B038
:1026B000F0BD069805994018FF21C9431346E2432F
:1026C0000A431518D8B2C60040F755F918217218F8
:1026D000182ADFD00246CA402A706D1E0839F6E774
:1026E0001FB514460E220292044A0192069A0092E5
:1026F0001A46234600F030F804B010BD3850FC07ED
:1027000010B5014601200A4A914210D3121D914290
:102710000DD8029CF231C8B28100064A50580028F8
:1027200003D0511800220A6080470020207010BD9D
:102730000E0400002C4BFD071FB514460722029221
:10274000044A0192069A00921A46234600F004F8C1
:1027500004B010BDA850FC07F0B585B001260C9C54
:10276000002C25D004960191029303920B9B0A99A9
:10277000E500EE18083E671C0F4B7F1E012F16DB8D
:1027800034463588854203D02646083E9D42F4D122
:102790006568002D049E03D100BE6568002D07D03A
:1027A0000C4601AB0ECBA8472070002600E0049E2B
:1027B000304605B0F0BDC046FFFF000070B50C46C6
:1027C0004C4988421ED04C4A90422CD04B498842FA
:1027D00047D12078401E09285ED88000494A115808
:1027E0004E4B99425CD04848814200D07CE0424840
:1027F000042108230A4659F7DBF921780170616842
:1028000041606FE06268002A01D100BE62683C4806
:10281000824201D300BE6268207837494018042103
:1028200059F718FC60E02578681E092836D8800022
:1028300034490B58344EB34256D10818816A0160AE
:1028400064683248018809062FD5314909680904AE
:102850002BD430490988C90727D1A818042122465A
:10286000DEE7531C0121984241D30A3290423ED800
:10287000C01EC0B2411E8A00224B9958002933D095
:10288000214CA14230D0254CA1422DD09A180023D2
:1028900013609362884727E000BE25E000BE23E076
:1028A00010180021016081621EE0EFF31083012106
:1028B00081F310880088000603D4174806880E4369
:1028C0000680002B02D081F3108802E0002080F304
:1028D0001088901E80B2042108230A4659F768F92F
:1028E0004460057059F77DF904980021017008468D
:1028F00070BDC04601040000030400000204000093
:10290000FDFF3F00C84CFD078B4EFC070800005040
:10291000300000405877FD0708330050894EFC070F
:10292000B0B50C460025202D04D040F724F86055A2
:102930006D1CF8E70020B0BD704770B514460D4619
:102940000646FD2002F0B6F8002800D100BE00695E
:10295000002C00D100BE002D00D100BE002804D004
:102960000179B14204D00068F8E70020288002E035
:1029700041792980801D206070BD000070B515462A
:102980000C46104659F7C9FA002816D1FD2002F06E
:1029900091F80646002800D100BE09480821062308
:1029A0002A4659F705F9A1884180A1790171B188BA
:1029B00062885118018059F714F9002070BDC04693
:1029C000180C0000FEB501920C460646FD2002F0F0
:1029D00071F80546002800D100BE10352F463F682B
:1029E000002F0DD03879B042F9D17879A04217D0B4
:1029F00000222846394640F705F9384659F745F888
:102A00000294029C08340121204658F7C3FF074670
:102A10002146029C5BF763FB2846394640F79EF847
:102A20007C713E71B81D019922465BF73FFBFEBDEC
:102A3000F8B50C46204D18350069009001271F4E4F
:102A40002D2F0FD02878022809D1281F0068008870
:102A5000B04204D1F9B20022204600F021FA143528
:102A60007F1CEDE702200099085E57490140C20B28
:102A7000200210400843002159F71DFAF8BDC04656
:102A8000F8B50C46082900D300BE0B4D18350126B9
:102A90000A4F2D2E0FD02878022809D1281F006850
:102AA0000088B84204D1F1B20022204600F0F8F9C3
:102AB0001435761CEDE7F8BD4451FC0702290000EF
:102AC00070B505460469264610363068002805D0E2
:102AD000304640F727F858F7D8FFF6E7002028617E
:102AE000204658F7D2FF70BD7CB5FD2001F0E2FF13
:102AF0000446002800D100BEA568607B6E4601AA8E
:102B00003146FFF71AFF3088082800D000BE217B2D
:102B1000019807290CD84A1C2273435C6E7B002E57
:102B200002D0DB0702D012E09B0710D41146F0E779
:102B3000A068C28801896B7B2248002B2CD004231B
:102B400059F736F800218170E98901802DE0A068ED
:102B5000C2882B8AC12000010902083189B20833DA
:102B60009BB259F725F80646687B002801D0122051
:102B700000E013203070A088E9890818B080288A06
:102B8000F080304608302A8A123529465BF78EFAE3
:102B9000304659F726F87CBD801C80B2062359F7D1
:102BA00007F800210171E989418059F71AF8A068F6
:102BB00058F76BFF0021A16062880348104059F765
:102BC0007AF97CBD07FD0000FF7F000010B50446C8
:102BD000FD2001F06FFF002800D100BE8179A142E5
:102BE00002D98088001900E0002080B210BDB0B585
:102BF0000C460546FD2001F05DFF0146002800D18E
:102C000000BE8A888020AA4206D889798918A942FC
:102C100002D9A81A20700020B0BD0000F0B597B00E
:102C20001E460292079105462824012120460F9155
:102C300058F7B0FE074621465BF751FA089504970E
:102C40002F61079D1E20019630403F21C943411846
:102C500003915F21C943411805917F21C943401861
:102C6000069000228C4E032A00D1D9E00898848A6D
:102C700013A887490180511C86480B91415C0C9236
:102C8000875C781CC2B291421291084600D8104667
:102C90001092F9430818C1B2182048431830032194
:102CA00058F778FE2988018011904480142420462A
:102CB0000A97784330180279022A069903D0042A29
:102CC000059900D00399119A11710169901D102284
:102CD0005BF7ECF9109A54433619002709963C46E5
:102CE0001019129988424FD23079102817D0042831
:102CF00028D0022844D11198C519B0890E90B06827
:102D00000D903068017840786876297628461A3028
:102D10000E215BF7E4F9109A0D99080C2CE011983C
:102D2000C51928461830316810225BF7BFF9109A90
:102D3000B0682885B189A9850F99C9040143080C99
:102D400068851DE01198C519B0890E90B0680D9086
:102D50003068017842788378C078E876AB766A7616
:102D6000297628461C300C215BF7B9F9109A0F9888
:102D700080040D990843000C688529850E98A88564
:102D800014361837641CABE7119844714DF77BF883
:102D9000109B04460028079D099F13D0119858F7EF
:102DA00074FE0C98002802D1288804998880129813
:102DB0000A99401A298840182880002C0B9A364E10
:102DC00062D150E711980088288000242646129886
:102DD0008342E3D2002CE1D10C20385E761C002423
:102DE00000281AD4F989002917D03879022808D187
:102DF0003868027840780002801813AA128890423E
:102E00000BD0F0B2119A1288101880B21C463B69A0
:102E100000224DF712F92346044614375B1CD6E70F
:102E20002D20049A9071FD200899C8820F9DCD81B4
:102E30001A484860888A508010462430886001987B
:102E4000C003029908431080103210463FF762FE1B
:102E500000241594149414362D2D10D030790228A6
:102E60000AD10B48FF3031680988814204D1E8B2A9
:102E7000082114AAFFF7A6FD14366D1CECE708988C
:102E8000808A214659F717F8E0B217B0F0BDC04666
:102E9000032800000851FC074451FC07C854FC07F4
:102EA000F0B585B000920C460646082800D300BE57
:102EB00004AF03AA20463946FFF73FFD38880028B3
:102EC00000D100BE0399002901D100BE039904A8D6
:102ED000078801AD28463A465BF7E8F80098A85500
:102EE000204639462A46FFF76DFD05B0F0BDFEB518
:102EF00014460E46FD2001F0DDFD0546002800D1F8
:102F000000BE00967788AE880194204659F705F8F0
:102F1000012801D102271BE0B81980B200F0D6FFCA
:102F2000002801D100BE002002A9FFF760FE0028A2
:102F30000198009C00D000BE0127394658F7BBFF1E
:102F4000002028730C3CAC6002986873FFF7CCFD3E
:102F50003846FEBDFEB514460E46FD2001F0AAFD22
:102F60000546002800D100BE00967788AE880194FF
:102F7000204658F7D2FF012801D102271BE0B819DB
:102F800080B200F0A3FF002801D100BE002002A9FA
:102F9000FFF72DFE00280198009C00D000BE0127FD
:102FA000394658F788FF002028730C3CAC60029823
:102FB0006873FFF799FD3846FEBD10B50C46FD203D
:102FC00001F078FD002800D100BE808861880818D3
:102FD00080B2A188A31D002422464DF72EF820467A
:102FE00010BD000070B514460D46104658F795FF09
:102FF00001282FD1287801020831AA791648002A21
:103000000CD089B20623224658F7D2FD0646A8788E
:10301000FFF7DCFD3080A879307114E0AA8889B20E
:10302000921D93B2224658F7C3FD0646A878FFF7D3
:10303000CDFD002131713080A8887080701DAA8874
:10304000E91D5BF733F8304658F7CBFD00212046E9
:1030500058F731FF002070BD140C00007047704716
:1030600000200849142806D0FF220A540A18042315
:103070005370801CF6E704480021C17003480170BA
:103080007047C046144BFD075877FD07B477FD071E
:10309000F0B593B05821394C605C002866D101919D
:1030A00037A003A90A46274678C878C238460830B0
:1030B0000A4610320346F0CBF0C20A46203278C8E6
:1030C00078C22E4C20680025401C206062686A414E
:1030D000626010950F95119012921834402220468C
:1030E0005AF7E4FF0A2D33D00295002120292CD075
:1030F0002748425C9300E55847187A789200A65812
:10310000AD19E550FE78B600A05968401025E84199
:10311000A051BD78AD00675938186051A758474095
:103120001420C741A750E058C019E050A3594340AC
:103130001820C341A3516059C0186051A35843409F
:103140001920C341A350091DD0E7029D6D1CC9E79A
:1031500000200A4C402807D003A909582218936977
:1031600059189161001DF5E710200199401E605427
:10317000C0B280002018806913B0F0BD485BFC0726
:10318000657870616E642031362D62797465206BCC
:10319000E850FC075821044A0023535400BA136036
:1031A000536090607047C046485BFC0770477047AB
:1031B00070B505460469261D3068002805D03046E4
:1031C0003FF7B0FC58F761FCF6E700202861204685
:1031D00058F75BFC70BD10B589B2431C002009286C
:1031E0000AD00C46C440E40704D09CB2641C94424C
:1031F00003D09B1C401CF2E70920C0B210BD0000A8
:10320000F0B58BB01E4607920F4604461098069004
:1032100000880890002101200246092913D00325C7
:103220008540099020463446089ECE403B46012703
:1032300037407E421F462E403243264604460998B8
:10324000801C491CE9E70A92802030439E210140FE
:10325000A08A03911D4902910190002000901C4911
:103260000AAA132338464DF7C6F90546002829D186
:103270000897202701210591384658F78BFB0996BE
:10328000064639465AF72BFF266130461E30114953
:103290006160A0600898008830830598E081142060
:1032A000E082A08A70800998C003079908433080A3
:1032B000069800887083301D3FF72CFCA08A0021FF
:1032C00058F7F9FD28460BB0F0BDC0465855FC072D
:1032D0000A1800003C56FC07FEB5019302920C460A
:1032E000142001F0E7FB0546002800D100BE277836
:1032F000082F13D8698B288B3A4600F0F9F800287C
:103300000ED060788D26802839D8082F0AD0072F54
:103310000BD0062F0BD1082809D030E081262EE0F3
:1033200082262CE0072802D029E0062827D32E1D6C
:1033300035462D68002D0BD02979B942F9D10022EC
:10334000304629463FF75EFC284658F79EFB6078DA
:103350000830012158F71EFB0546617808315AF7FD
:10336000BEFE2078287160786871A81D6278A11C63
:103370005AF79CFE304629463FF7F0FB00260648E8
:1033800002230199029A58F713FC217801704670C4
:1033900058F727FC0020FEBD01140000F8B51446C4
:1033A0000D46104658F7B9FD012840D1142001F010
:1033B00081FB0746002803D0798B388B3E7F06E0DF
:1033C00000BE1A200188182000881C221678324678
:1033D00000F08EF80246787F0002083029788E428D
:1033E00013D117466A7881B2931D1248224658F7C6
:1033F000DFFB064600203071378068787080701DD2
:103400006A78A91C5AF752FE0AE081B209480623DD
:103410001546224658F7CCFB064680203071358091
:10342000304658F7DEFB0021204658F744FD0020C7
:10343000F8BDC046140C0000F8B51F460C460878CD
:10344000082811D80725002100911AA67844007990
:103450004000874419040F040606121518001A4E7E
:1034600012E00D25174E0FE000BE0026012000904F
:10347000354609E00A2515A606E0082518A603E04A
:1034800006250EA600E014A6AB1C1848394658F7CE
:103490008FFB0746207838707D700098002804D193
:1034A000B81C31462A465AF701FE384658F799FBB0
:1034B0000020F8BD52656E6573617300FFEEDDCCD0
:1034C000BBAA00009E5AFC07965AFC07312E302EEC
:1034D000302E302D4C45000001D200800500010047
:1034E000123456FFFE9ABCDE0000000003140000F8
:1034F000B0B58BB2411C00200446092C0DD01D46EE
:10350000E540ED0702D0A24202D0891C641CF4E71A
:10351000092A01D0481C00E0002080B2B0BD0000A4
:1035200070B50C78A41E052C46D81D0A7C4424795D
:103530006400A7440221414452607A206843DB4A78
:103540001418887878216054C0070DD071340C208D
:103550006843D0490E1831463D31062220465AF7BD
:10356000A5FD3C20305CA0710C206843FA49081886
:1035700043210022425458E07A206843CB4908187E
:103580007821002646540C206843F3490D1838353D
:10359000EE720A200343F5208343254804220224C7
:1035A0001946234658F704FB13214170012101708D
:1035B000EE7058F716FB38E001F088FC35E07A240D
:1035C0006C43BA4D28193A30891C17225AF76EFD00
:1035D000285D04210143295527E07A266E43B34D27
:1035E000A8196130891C102422465AF75FFDA85D96
:1035F0002043A85519E07A206843AC4A14188B1C64
:10360000488A002808D020461E301C2219465AF746
:103610004DFD2078022106E0A01C1C2219465AF715
:1036200045FD2078012101432170002070BDC04676
:10363000040E0000F0B585B00878072833D81C0ABE
:103640007844007940008744032E2E2E3083833E39
:103650007A206043404900250D540C2060433F49C7
:103660000818432201278754A0000E18F4691C365D
:10367000002C13D10A200343F52083433D48042244
:103680001E241946234658F793FA04460770306003
:10369000801C394907225AF709FD6770204658F700
:1036A000A0FA356054E000BE52E0487803284FD8B5
:1036B0007844007940008744400101462848019041
:1036C00001A9042241E07A266643234885194F78F0
:1036D0002F772846143008210A46FEF7A7FFA81CBA
:1036E0000090102239461746FEF7A0FF3FF743F936
:1036F000194B995D01220A439A556882204600F0D1
:1037000077FC297F0177698A4182E98AAA8A6B8BD3
:103710002D8B058343838282C182801C00993A46A7
:103720005AF7C4FC204600F063FC58F75AFAA00090
:103730000A490818002101620AE00AA001A90A4604
:10374000E8C8E8C200E0891C10222046FEF716FFF8
:10375000002005B0F0BDC046444BFD07604CFD079E
:1037600040E20100000102030405060708090A0BF4
:103770000C0D0E0F140E00000B5BFC0710B50C783F
:10378000012C03D0092C09D04C7802E04C78432C52
:1037900002D0002C00D000BE01F098FB002010BD2C
:1037A000F0B585B01D4610460E4658F7B6FB022808
:1037B0004ED12C0A00D000BE0C20604387490F1860
:1037C0003A203C54FF2C45D038463A3004900195BD
:1037D0003D46383501200390E87004200290032113
:1037E00058F769FB30883887707A28713D370A3678
:1037F0000622384631465AF759FC7A2060432B4955
:1038000008187821465C0A2001990143F52081437C
:1038100014482C23029A58F7CBF928214654014624
:103820002831039A4A7058F7DCF904980078FF2889
:1038300010D000250C4E1C206843315CFF290BD0B2
:1038400030180169002901D0204688476D1CF2E735
:1038500000BE03E0FEF75AFEFFF702FC002005B0B1
:10386000F0BDC046020E00000C51FC0710B51C460E
:10387000104658F752FB032809D1200A0C21414376
:1038800056484018FF214187FEF740FE00E000BE89
:10389000002010BD604CFD07180A7A2242430348FD
:1038A000801809787822815400207047444BFD0726
:1038B00000207047F0B58BB01D46087802282AD04A
:1038C000012837D0002842D101924420434F3E5C6A
:1038D00000211F2E029101D82020811B03ACA019CA
:1038E00000945AF7FCFB45372046394632465AF7D2
:1038F000DDFB33460A3317482946019A58F758F931
:103900000446468002982070201D009932465AF7DE
:10391000CDFB204619E00F480A23294658F748F9FD
:103920007D2101810021C1801021818008214180F9
:10393000022109E0662029490E5A06480A23294631
:1039400058F736F946800121017058F74AF90020EE
:103950000BB0F0BD0B0E0000604CFD07002070475F
:1039600010B51946E1200001062358F721F900247B
:10397000848044800121017058F733F9204610BD3E
:10398000002070470020704770B51D460C4608782F
:1039900001280BD000280FD1628844210F484254DF
:1039A0004530211DD2B25AF781FB03E060886621C1
:1039B0000A4A5052002600E048260A200543F52016
:1039C0008543074804220223294658F7F1F8467038
:1039D0002178017058F705F9002070BD604CFD0793
:1039E0000D0E0000002070470020704770B50C7865
:1039F000172C14D80125A540224E354201D00020B5
:103A000070BD012C06D0032C09D14878002809D0BC
:103A100000BEF4E7487800280FD000BEEFE701F0C1
:103A200055FAECE70420012158F745FAFEF710FD9E
:103A30000028E4D0FEF76AFDE1E7134D2C68002C66
:103A400019D11248092104222C2358F7B1F8044651
:103A50002860172020840E4820800026668020469B
:103A60000A3011215AF73BFB2685E6846684E683FB
:103A7000A6832020E076204658F7B3F8002028607F
:103A8000BDE7C04600F08E00104BFD07040D00009E
:103A9000030A000010B5104658F73FFA002801D07D
:103AA00000BE09E00548092104220124234658F7F5
:103AB0007FF8047058F795F8002010BD020D000043
:103AC00080B5104658F729FA012809D1FEF7C0FC45
:103AD000002805D00420022158F7EDF9FEF716FD65
:103AE000002080BD0020704700207047F8B51D46BB
:103AF00016460C46104658F710FA002817D1FD203C
:103B000000F0D8FF0746002800D100BE0948042174
:103B100032460B4658F74CF8290A0170E90A00D0E2
:103B200000BEB9882288511A418058F75AF80020FF
:103B3000F8BDC0460DFD000080B50878FE210140AB
:103B4000122901D1FEF7D0FF002080BDFEB51C4632
:103B500015460E46104658F7E0F901280DD000270B
:103B6000002860D102960194142000F0A3FF0646BD
:103B7000002804D0718B308B06E0022753E000BE92
:103B80001A20018818200088029A1288FFF723FB68
:103B9000044608281ED80097371D3F68002F27D0FD
:103BA0003879A042F9D17879831D614801992A4674
:103BB00057F7FEFF044602980088208000232371F7
:103BC00078796080601D7A79B91D1F465AF76EFAC0
:103BD00020460AE05648062301992A4657F7E8FF8F
:103BE0000299098801808021017157F7FAFF1AE0D4
:103BF0003477019B180A70773088B14A024000B2CE
:103C0000C10B1940FF2081431143084801262A4671
:103C1000334657F7CDFF047057F7E3FF2846314688
:103C200058F749F9009F3846FEBDC046021400000F
:103C3000F0B587B01D4614460E46104658F76DF98C
:103C4000002801D002206DE0FD2000F033FF02903B
:103C5000002800D100BE04A900270F703088FEF7AD
:103C6000C6FF03A90F80002817D02946354606460F
:103C7000BB1D2F48224657F79BFF0446288820800B
:103C800067802671002E04D1601D03A93A465AF7B9
:103C90000DFA204657F7A5FF43E02F0A04A909783B
:103CA000142301914B438549CA181279022A1FD166
:103CB000C9580A881C498A421AD102900097082FD5
:103CC00000D300BE06AF05AA01983946FEF735FEBF
:103CD0003888002800D100BE059900290298009A72
:103CE00001D100BE05998A5C03A90A800227BCE7BE
:103CF00000200299085E72490140C00B0540FF2078
:103D000085430D43094804232946224657F750FFAF
:103D100001994180077057F764FF0121204658F749
:103D2000CAF8002007B0F0BD0229000004FD000021
:103D3000140C000000207047F0B595B009931746A9
:103D40000C46FD2000F0B6FE0890002800D100BE11
:103D50000CA900250D702088FEF749FF06466088F3
:103D6000002800D000BE002E00D08DE00998000A87
:103D700005900CA801781420049148434F490A1873
:103D80001279022A48D1085800886A49FF318842CE
:103D900042D1029700200B9007900A900394268846
:103DA00030464CF7C1F8014606908888B4B2844288
:103DB00019D3C888844216D80DAD204629464CF741
:103DC000D2F8079B00930FA910AF28463A464CF74C
:103DD000BDF93888761E574988420699E5D1601C9E
:103DE00081B2814201D000BE079880B210A900269E
:103DF0000AAB32464CF73DFB039CA088022851D108
:103E0000E28810A8407880074FD40220C0430242C5
:103E1000029F4DD0812612E011951095208810A99F
:103E20004CF7A1F808201099085E002806D4628893
:103E3000A1882088A31D4CF700F905462E46002EC8
:103E400022D100260898805F1D4A0240C00B0999C4
:103E50000140FF2081431143A088801D83B219488F
:103E60003A4657F7A5FE25460446801DAA88A91D97
:103E70005AF71CF904986080A88805992170A080E1
:103E800020462C4657F7ADFE0F48042309993A46C1
:103E900057F78EFE86702188018057F7A2FE00201A
:103EA00015B0F0BD0D26029FC9E7012A029FB1D8C7
:103EB00005980499FEF7F4FFC1E7C0464451FC079A
:103EC000FF7F00000AFD0000160C0000F0B58BB06B
:103ED00004464CF729F8024602909188A0B20026C9
:103EE000884223D3D188884220D8039404AF39462E
:103EF0004CF739F80026009606AD07AC384629463F
:103F0000224633464CF722F90A4B287821881A4674
:103F1000FF32914201D1022807D09942039C01D17E
:103F2000022803D0641C029AD7E7039EB0B20BB0FC
:103F3000F0BDC046032800001321C943064A0029EA
:103F400007D053181B7D891C8342F8D15018C07CC0
:103F5000704704207047C046144BFD0770B51F4ED4
:103F6000B06844F79CFF0546084C21465AF724F8F0
:103F7000706107494143481901D0201A80B230616D
:103F8000306808210143316070BDC04671020000F5
:103F90008FFDFFFF80B50F49002008601F49896928
:103FA000573906D988B2C00B081800B241103D201D
:103FB0004843C10700D01F3080B20749884200D86B
:103FC000084658F797FA0120C00704490A68824357
:103FD0000A6080BDAC76FD07E204000030000040BE
:103FE00080B544F75CFF80BD80B544F749FF80BDD4
:103FF00010B501468000094A1418206A002800D034
:1040000010BD203409020A31054804221E2357F747
:10401000CFFDFF2108310180206010BD604CFD07FD
:10402000140E000098B04B48C82114910182002260
:104030004282494808210F91018013921792474C00
:104040001798032812DC00201690169A1799092A4F
:1040500009DC28224A43A118169A92008850169922
:10406000491C1691F1E7481C1790E9E7E36813989B
:10407000C0430122002B114600D00146CD00384F2D
:104080003E6B2E437D6B3E634E0F002B074600D1E7
:104090001F46FB009B192B43314F7B632369002B89
:1040A00000D00246150F002B064600D11E463301F4
:1040B0005B197D6B1D433B6B7D6312011A433A63B1
:1040C0007A6B3A6B78630F23DB4313433B63139A9A
:1040D0007A633A63E1602061179222A5179803285A
:1040E00044DC00201690169809282FDC16981799A2
:1040F0004900695AC140C80728D028201799414370
:104100006118169A92008958491C00D100BE17996F
:1041100041436118169A92008958002913D01799C3
:1041200048432018169989004058C117169A5AF723
:1041300001F8179A120159F7FDFF7A6B0A43396BA0
:104140007A63014339631698401CCBE71798401CEB
:104150001790C3E7F030005002330050C04BFD070A
:10416000604CFD07FF003F00FF03FF01D3480088BC
:10417000C046C046D24B188807210C91884318804E
:1041800005242207508D8005CE490AD5188808409D
:10419000610340181880188840210143382081436A
:1041A00019800B9401215488002C00D1C64C480280
:1041B00009907C82508C084350840D200D4611924A
:1041C000FDF7A0FE119948890D952843022212920D
:1041D0009043488148894006FCD54C807D20C00032
:1041E0001590FDF78FFE119B588903210A91884392
:1041F000588158890006FCD5588C0D9A90435884F4
:10420000B24D13992960588A402420435882588A15
:104210000E94A04358826961FB48A8621704EF62BC
:10422000188880211091084318803F20FDF76AFE0E
:10423000119B1888000600D400BE2888400700D0D3
:1042400000BE0D9E2E60F7480088F24A1085F648A1
:1042500000685062F548018811824088139C2C60E8
:10426000D081588A0E9908435882588A88435882C8
:104270006C61EB48A862EF621888109F3843188081
:104280003F200890FDF73EFE28680C99884328607F
:1042900011980088B84311990880E548E54959F715
:1042A0001EFF0B9D6902E44859F719FFFDF71BFD3E
:1042B000E248E3493022079259F7F8FEE1480470DA
:1042C000E148E2490160E248E2490160E248E3492D
:1042D0000160E3480A210170E2480470E24832219B
:1042E0000170E2480560E2480660E2480560E24885
:1042F00006250560E1480C990160E1480F9C0460C7
:104300003702B81DDF490860DF490860DF48C84947
:10431000016000F073FA119B18890799884318818E
:104320001889109A104318811889304312998843CC
:104330001881188920431881188C10431884588AD2
:10434000A043588218890E9908431881188A0421BD
:1043500088431882988A8007FCD5188C30431884CB
:10436000AE48401C598DC9000140188CC84A024013
:104370000A431A84188C2821014350208143198450
:10438000188C28431884588A0F9908435882188C2F
:1043900010998843188418890E9988431881588D7C
:1043A0000999084202D09C480B994180B1070868DE
:1043B000B8430B91086008984002B6490A688243E6
:1043C000700312180A6072050B6813430B608F4B61
:1043D0001A8809928922119C2281088020881099CC
:1043E0000843208020880A998843208018881299E1
:1043F0000843188000F046FC3EF7E2FA3EF7E6FA82
:104400006420FDF77FFDA44908880A904888089039
:10441000A24A90880790D0880690C8880590488B5B
:1044200004909F480088039010880290139C0C8091
:104430004C809C4890803846D130D080CC80C320BE
:10444000108099490F98088038467C30FDF75AFD56
:104450009649B44A974801900C97012C38D8129489
:104460004A80FF238B8001250D80CB88DB07FCD1A0
:1044700000273E463B469BB2159C1534A34219D2F9
:10448000D45CD018807860402840F4B2A040FFB2DD
:104490000743761CF0B2082807D1139CA0B2854EC2
:1044A0003754641C139400273E465848149C0482D9
:1044B0001033E0E7129C641CCFE7C0464200005076
:1044C00082000050FF0F00005A0400000000F407B3
:1044D0004E4F099838800024734804806E480A992A
:1044E0000180089941806D49079A8A80069ACA809E
:1044F000059AC280049A42836948039A028002980E
:104500000880119A108810998843108068480146E5
:104510000831019F6CCF6CC1582144540460446041
:104520005A4800683DF7C6FE44200E22394D2A54F1
:104530000B9908680C9B184308605F4804715F4939
:104540000C70C470AC63EC632C64284645305C4945
:1045500059F7ACFD28464430448404265949304676
:1045600057F777FC15963046214657F7A4FCFEF71F
:1045700077FDFFF70FFD0D9E2E702E711199CC82E5
:10458000488C0A46A02101430E9881435184149817
:104590001E4908824F20A8611D480F9901804AA03A
:1045A0004E4DA8474EA0A84752A0A84757A0A847DD
:1045B0005A495B48320408D0761E828B9207FCD59C
:1045C0000C80828D002AF5D0028822460C9E159F11
:1045D000032C18D8042A134600D83B46934205D032
:1045E000858BAD0703D50E80521CF7E71A46032CC6
:1045F00005D8838C9B0602D00B88641CF7E7838D5B
:10460000002BE5D00088FEE7204F101AF030005054
:1046100002330050604CFD0782000050FF0F000085
:10462000204F101AACFFF807A8FFF80710FEF80794
:10463000005CFD07781600000076FD07FC76FD079C
:1046400058ECF107F976FD075076FD076C56FC072C
:104650005476FD07C458FC075876FD070858FC0738
:10466000B476FD07B576FD07DD76FD075C76FD07C0
:104670006076FD076476FD076876FD076C76FD07BA
:104680007076FD074876FD074476FD074C76FD07FA
:10469000FFEF00000002004000240050622800509C
:1046A000022600508080000020200050003500507D
:1046B000485BFC07A85BFC075877FD07B477FD074C
:1046C000FC5AFC071050FC070D0A202D2D2D2D2D16
:1046D0002D2D2D2D2D2D2D2D2D2D00009D4EFC072A
:1046E0000D0A2049324320444131343533585F4468
:1046F000535000000D0A202D2D2D2D2D2D2D2D2D4B
:104700002D2D2D2D2D2D0D0A0000000049324320A6
:10471000537461727431210A0D00000010130050AF
:10472000541300501001FC0701207047F8B51546DE
:104730000C4601464039042915D8880001A10858C3
:104740008746C0465947FC078947FC079347FC0743
:104750009D47FC07A747FC07207802282ED3072097
:104760006870D02032E0072825D0012829D11E4FBB
:1047700024371E4906263846324659F7BBFC002826
:1047800028D02846394629E02078002816D006206F
:104790000DE02078002811D0402008E02078002883
:1047A0000CD0642003E02078002807D03220287045
:1047B0000020012616E02078022804D204200026DA
:1047C00010E00120F8BD01206870F420287000205E
:1047D000022607E00648811C06262846324659F77D
:1047E00065FC00202670F8BD604CFD0790E1F107E4
:1047F0000857FC070020704701207047F0B589B0CA
:10480000614CA089022106918843A081208A00077B
:10481000FCD501263002E18B0143E1835B485C4912
:10482000902259F743FC5B485B494822089259F7AC
:104830003DFCFDF751FA5948594901600325002113
:1048400002910A22574F284633460196B8470495ED
:104850002D0204270922384629463346514EB047D7
:1048600038462946029D3A46019E2B464D4FB84791
:10487000EFF3108086F310882188402205921143BF
:104880002180002802D086F3108801E085F310888B
:104890002A46454B1888454FB98980200143B98184
:1048A00043490B250D80082103913980BA80B989CD
:1048B00007908143B9810498B8819E8311463A8A52
:1048C0002025AA433A823A8A069882433A8219847A
:1048D0009984EFF3108286F31088238806952B4382
:1048E0002380002A304603D00E4680F3108802E071
:1048F0000E4681F310882F4B1A88014682431A8096
:104900001A88D207FCD12C4F3E860898B8824F22D5
:104910003A830398B88317223A843A880625AA4333
:104920003A801F22D243BD8F1540BD873D8F154071
:104930003D873A8808460A433A803A8805990A43EF
:104940003A803A8806990A433A803D881022954376
:104950003D803F25AD02BE882E40A036BE801D881A
:1049600005431D801D88ED07FCD0144B1D6807987A
:1049700005437F2085431D6011480260E08908439C
:10498000E08109B0F0BDC04604000050200008409E
:104990006057FC07C000FC071857FC0700000840E0
:1049A000FFFF1300F120FC077C11005000110050A4
:1049B000C01100506C1300500013005004E400E0DC
:1049C00000E100E00549884200D000BE04480188AB
:1049D000044A11408918091D0180704711111111F5
:1049E00012000050FC7F0000FEB505464488E0B28E
:1049F000142803D0FD2817D1654800E06348624EB3
:104A00003246163221235B1E05D017881832A74282
:104A1000F9D142201DE02027002F1BD0F28AFF2A67
:104A200004D07F1E1836F7E74020FEBD02916B7858
:104A3000AA88294608310091A91D04683046A0477C
:104A4000002804D16988F182B18A029A1180002F6E
:104A500000D0FEBD4B20FEBDF8B50C4605464A4EC3
:104A60002027002F0ED0B07D1428484902D0FD2801
:104A700005D14749CB6830462946224698477F1ED4
:104A80001836EEE7F8BDC046F8B504463E4D202680
:104A90003E4F002E0DD0A87D1428394602D0FD28A7
:104AA00004D13B498A68284621469047761E18352E
:104AB000EFE7F8BD344916312122521E06D00B888B
:104AC00018318342F9D11E390868704700207047B9
:104AD000B0B52D491431C3B22124FF22641E06D083
:104AE0000D8818319D42F8D11639098800E0114629
:104AF00090430843B0BDC046B0B523491631C3B298
:104B00002124FF22641E06D00D8818319D42F8D161
:104B10001A39098800E0114690430843B0BDC046E9
:104B2000F8B5194C00281AD02025184E184F002D22
:104B300028D0A07D1428314602D0FD2803D1394663
:104B40004968204688470020E0816060A060FF201F
:104B5000E082207D57F7F4F96D1E1834E7E7102541
:104B6000302D0FD0FF20E082A58200202060606001
:104B7000A060E0602061E8B2214657F76AF96D1C39
:104B80001834EDE7F8BDC0460C48FD075C56FC073D
:104B90001855FC0770470000F0B58BB01F210904C1
:104BA000294A13688B430124610459181160E204F7
:104BB00026490B6893430B60264B274D274E4661D1
:104BC000274E284F284AC26106624362204A826209
:104BD000C562264A07604260A0040A6882430A60F0
:104BE0000020282803D001A90854401CF9E72048D8
:104BF0000068403001A9282259F758FA00F042F81D
:104C00001C48018802882243028003881E229343A5
:104C10000380A502184B5D8005251D801D886D074A
:104C2000FCD49B88038814251D430A239D430580DB
:104C30000388A343038011400388934359180180DC
:104C4000FDF762F80BB0F0BD7400004000020040B8
:104C5000814CFC077D4CFC07294DFC07394DFC07B6
:104C6000B522FC071D4DFC071F4DFC07954BFC07AB
:104C70004C76FD07220000500016005000207047BF
:104C8000704700000B480C4901600C480C4901803A
:104C90000C48418802220A4304218A4342800A497F
:104CA00063220A808749CA89084B1A80098A0180D1
:104CB0007047C046800000404C0554076A280050E9
:104CC000EBE6000000260050062C00501028005093
:104CD00080B51F20000401218A07536F83434804D5
:104CE0001818506710680723984310600A48028814
:104CF0000A4302218A430280028808210A43028073
:104D0000428C920504D5028B0A4370218A430283A8
:104D1000FFF7B8FF80BDC04608000050704740084C
:104D20007038C0B2704700000248016807220A4389
:104D3000026070473000004000207047F0B587B037
:104D40000126740230020590494F00963846083813
:104D50000568002D00D186E0280603D58020386044
:104D600047F7F1FFA80703D50220386043F7B1FFEA
:104D7000280704D508203860002043F76AFF05980B
:104D8000054204D005983860012043F762FF2542B0
:104D900002D03C6048F740F8680603D540203860F0
:104DA00043F752FFE80603D51020386042F787FB2F
:104DB00068070CD4E80704D03E6057F78DFB47F72F
:104DC000C2FFA806C2D52020386000BEBEE704207E
:104DD000386029490888B043088057F761FB3DF7E0
:104DE0006BFC26480078264909882142E2D0002839
:104DF000E0D1224806701F480088C007DAD1214858
:104E0000069006A80490FDF7CDFA1420FDF77AF875
:104E1000184A10881549084026464036304310800D
:104E2000FDF7AEFA039002200190FDF76BF8002128
:104E3000029104988170FDF7B5FA0E4908880B4A73
:104E400010403043009E0880FDF79AFA0299094A03
:104E500011800399401821462C318842AAD907486D
:104E600001990170A6E707B0F0BDC0463FFC000005
:104E70001800004000150050083300500848FD0796
:104E80002A00005001000101704770470248018864
:104E900001229143018070470411005010B504466F
:104EA000FDF73FF8074900228A810881064902047C
:104EB00007D022788B8A9B06FCD50A80401E641C92
:104EC000F5E710BD604CFD0700110050B0B50C4671
:104ED0000649884209D1481C022519462B4656F737
:104EE00067FEA188018056F77CFEB0BD0D0C000066
:104EF00002E008C8121F08C1002AFAD170477047A3
:104F0000002001E001C1121F002AFBD17047000000
:104F10000D48062101800120C1030C4A1160BFF336
:104F20004F8FBFF36F8F02211160BFF34F8FBFF31D
:104F30006F8F1060BFF34F8FBFF36F8F0520000797
:104F40000021018062B670470034005080E100E02B
:104F500017B967984C664C01963331B191590015D9
:104F60002368EC521E6244749A1BD18BAB75B66EEB
:104F70009EE7BA08B9A948ABA1AC031C2E0D296C59
:104F800020EE8D0CE1F04A0CB325DC536A68862DC7
:104F900028D5E1C1E1C54729B55765C3BA47159E74
:104FA0004F43313C939242E6A876FA3BEFB4875ADE
:104FB0008C09E0D1815442408E4FD2B377E32A77F7
:104FC00020EE8D0CE1F04A0CB325DC536A68862C88
:104FD0004F43313C939242E6A876FA3BEFB48759AF
:104FE00017B967984C664C01963331B1915900144A
:104FF0002368EC521E6244749A1BD18BAB75B66D5C
:1050000028D5E1C1E1C54729B55765C3BA47159D04
:10501000000000002050FC07284BFD0704000100A1
:105020002850FC0701000000FFFF0000D125FC070D
:10503000021400003934FC07010D0000953AFC070A
:10504000000D0000ED39FC07000E00007D37FC0765
:10505000010E0000A137FC07030E00006D38FC07AD
:105060000A0E0000B538FC070C0E00008939FC0759
:105070001C0D0000C13AFC07100D0000E939FC07C7
:105080000F0E00006139FC072C0E00005D39FC0793
:10509000120C0000353DFC07080E00008139FC07AA
:1050A0001B0E00008539FC07130E00003536FC0787
:1050B000150E00002135FC07170E0000B138FC0763
:1050C000190E00009938FC07150D0000E539FC07A2
:1050D000210D0000E93AFC07220D0000E53AFC072B
:1050E00003280028022901290004080C0105090DE4
:1050F00002060A0E03070B0F00050A0F01060B0C30
:105100000207080D0304090E001A212DFD000000FE
:105110004451FC072D0000001924FC07000000008A
:105120000000000000000000FF0000000000000080
:10513000000000000000000000000000000000006F
:1051400000000000E250FC07100000000100000019
:10515000100010002855FC07E050FC07020000007A
:10516000010000000000000000000000804FFC076C
:105170001000000008000200010000000000000014
:10518000E650FC0702000000010000000D000D00C9
:10519000EC5AFC07E050FC07020000000100000090
:1051A0000000000000000000A04FFC0710000000FD
:1051B000088000000180000000000000E650FC07AD
:1051C000020000000100000009000900CA5AFC07A3
:1051D000E050FC0702000000010000000000000099
:1051E00000000000504FFC0710000000010200000A
:1051F0000200000000000000E450FC070200000074
:10520000090002000200000000000000E650FC0758
:1052100002000000010000000B000B007E5AFC079A
:10522000E050FC0702000000010000000000000048
:1052300000000000604FFC071000000001000000AB
:105240000200000000000000E650FC070200000021
:10525000010000000B000B008A5AFC07E050FC071D
:10526000020000000100000000000000000000003B
:10527000704FFC0710000000010200000100000058
:1052800000000000E450FC070200000009000200DA
:105290000200000000000000E650FC0702000000D1
:1052A000010000000C000C00D45AFC07E050FC0781
:1052B00002000000010000000000000000000000EB
:1052C000904FFC0710000000410000001400000097
:1052D00000000000E450FC0702000000090002008A
:1052E0000200000000000000E650FC070200000081
:1052F000010000000C000C00AC5AFC07E050FC0759
:10530000020000000100000000000000000000009A
:10531000B04FFC071000000009020200320000003C
:1053200000000000E450FC07020000000900020039
:105330000200000000000000E650FC070200000030
:10534000010000000A000A00E15AFC07E250FC07D5
:105350001000000001000000100010003855FC078C
:10536000E050FC0702000000010000000000000007
:1053700000000000C04FFC07100000000800020001
:105380000180000000000000E650FC070200000061
:105390000100000008000800C15AFC07E050FC07AB
:1053A00002000000010000000000000000000000FA
:1053B000D04FFC0710000000088000000100000032
:1053C00000000000E650FC070200000001000000A1
:1053D000110011005B5AFC07E250FC0710000000AE
:1053E00001000000100010004855FC07E050FC07C9
:1053F00002000000010000000000000000000000AA
:10540000E04FFC0710000000010200000200000055
:1054100000000000E450FC07020000000900020048
:105420000200000000000000E650FC07020000003F
:1054300001000000100010006D5AFC07E050FC074E
:105440000200000001000000000000000000000059
:10545000F04FFC07100000000100000002000000F7
:1054600000000000E650FC07020000000100000000
:1054700007000700B95AFC07E050FC0702000000D3
:105480000100000000000000000000000050FC07C8
:1054900010000000410000000200000000000000B9
:1054A000E450FC07020000000900020002000000B6
:1054B00000000000E650FC070200000001000000B0
:1054C00012001200485AFC07D054FC0709000000E3
:1054D000130C0000313CFC07150C0000393DFC07A3
:1054E000170C0000ED3AFC07000C0000393BFC07EC
:1054F00006FD0000552FFC0703FD0000BB2FFC0735
:1055000008FD0000EF2EFC070EFD00007D29FC07C2
:1055100005FD0000E52FFC071D2CFC07C12AFC0738
:10552000812AFC07312AFC07595A08E4862A9E8FF3
:10553000E911BC7C98434218595A08E4862A9E8F88
:10554000E911BC7C7C464218595A08E4862A9E0818
:10555000E911BC7CD047421800280000010000007F
:10556000000000000328000001000000020000000D
:10557000292A0000010000008080000003280000AC
:105580000100000004000000242A000001000000C7
:1055900080800000032800000100000006000000D9
:1055A000252A000001000000808000000328000080
:1055B0000100000008000000272A00000100000090
:1055C0008080000003280000010000000A000000A5
:1055D000262A00000100000080800000032800004F
:1055E000010000000C000000282A0000010000005B
:1055F0008080000003280000010000000E00000071
:10560000232A000001000000088000000328000099
:1056100001000000100000002A2A00000100000024
:1056200008800000032800000100000012000000B4
:10563000502A000001000000078000004456FC07CB
:105640000300000000140000D932FC07130C000016
:105650004D3BFC07031400009D33FC070132FC079F
:10566000B131FC07AF31FC07AD31FC0750460003F8
:105670000003983A6400F401B80BB80BB80B000CA7
:10568000B80B120030003000CD009A011200240047
:1056900030006400B0001800280012001200D0078B
:1056A0000000FFFF000000006400C8000000D007F9
:1056B000000244413134353835000000000000005C
:1056C000000000000000000001001D013506FC077D
:1056D000060006086D0FFC0701001E01AD06FC0761
:1056E0000900020D9D0DFC0700000508EB0DFC07ED
:1056F000010000015517FC070A00020A011BFC0704
:105700000000000000000000F4011700F4352348F9
:10571000D0070640643200007505FC071D1EFC071B
:10572000A905FC07EB05FC07EB07FC07190BFC07B9
:105730001B08FC07BD08FC072F08FC07250AFC070F
:105740004B15FC07E717FC07B915FC07EB16FC0720
:10575000571AFC07051BFC071F1CFC07931CFC07C2
:10576000750BF10700000000B3B5F1070000000061
:105770003B3FF107000000004538F1070000000042
:105780005791F107000000001584F10700000000A8
:105790005764F007000000007985F0070000000062
:1057A000C397F00700000000B97AF107000000007D
:1057B000A145F007000000002D94F0070000000054
:1057C000E393F107000000004796F1070000000096
:1057D000BF9BF10700000000C93CF107000000007A
:1057E0009F91F10700000000AF94F1070000000056
:1057F00014000000B524FC0700000000FF000000BA
:10580000000000000000000005000000B861FC0777
:10581000000400002451FD0768020000184DFD0738
:10582000000400009853FD077005000020030000ED
:1058300000A60E0004000000D200000032000000AC
:105840003C00000001000000010000000200000018
:105850000200000004000000030000000600000039
:105860000000000002000000020000000000000034
:10587000000000000300000003000000050000001D
:1058800005000000060000000A0000000A000000F9
:10589000C8000000B80B000002000000B80B0000B8
:1058A000B80B000010000000D4010000E50100006A
:1058B000700200006A000000040000000100000007
:1058C00020000000994BFC07D14CFC074BD3F0079C
:1058D000A9D3F007B1D3F00701D4F00719D4F0072A
:1058E0002FD4F00751D4F007E1D7F00781DAF007A1
:1058F000C1D8F007E1D8F00701D9F0073FD9F00788
:105900004FD9F007FBEEF007D5ECF007F3ECF0070A
:105910000FEDF00729EDF0073DEDF007BFEDF007C3
:10592000D7EDF0073FBEF10749C0F10773AFF007AD
:105930002D47FC07F947FC072947FC07F547FC07FB
:10594000ED21F007C549FC075D3FFC07953FFC07CB
:10595000E93FFC07E13FFC07FF75F007C974F0075A
:105960006B75F0077190F1071F40F107214BFC07A1
:10597000E949FC07894AFC07594AFC07D14AFC0758
:10598000F94AFC07000000005D30FC075F30FC07AF
:1059900057BBF0070986F107D911FC07778FF1078C
:1059A0005F8EF1070515FC075366F1077F17F107B6
:1059B00073F9F0073929FC07D599F0073F0BFC076D
:1059C000EBB2F007350CFC077B0CFC073507FC0736
:1059D000532EF0075B78F0072577F007F535F007D1
:1059E000000000009130FC079531FC072129FC07DD
:1059F00095D5F0078BD6F007D7D6F0078FB5F1070E
:105A00002FB6F107BFB6F10700000000000000004C
:105A10000000000000000000000000000000000086
:105A20000000000000000000000000000000000076
:105A30000000000000000000000000000000000066
:105A4000000000000000000052656164206D6520C8
:105A500028696E64696361746529005772697465A9
:105A6000206D6520286E6F20727370290052656169
:105A700064206D6520286E6F746966792900414441
:105A8000432056616C7565203100414443205661C6
:105A90006C75652032004441313435383500765F0D
:105AA000362E302E32302E3133333800496E646951
:105AB0006361746561626C650052656164206D6547
:105AC000005772697465206D65004C45442053741D
:105AD00061746500427574746F6E205374617465EF
:105AE000004C6F6E672056616C756500436F6E7475
:105AF000726F6C20506F696E74000000526E6963A3
:105B0000615F4170705F54657374000300001000A2
:105B1000010000001001FC071001FC070004000058
:105B2000004FFC07445BFC07485BFC077006000065
:105B3000004FFC070848FD070848FD071005000056
:045B4000004FFC070F
:0400000507FC0511DE
:00000001FF
