:0200000407FCF7
:100000005039FC072501FC072D01FC074501FC07C1
:1000100000000000000000000000000000000000E0
:100020000000000000000000000000005D01FC076F
:1000300000000000000000005F01FC073B08FC0717
:100040003906FC07A120FC07A526F0073D08FC07A0
:100050006907FC076301FC07FD05FC076301FC075A
:100060000906FC076301FC079906FC07A306FC07C9
:10007000AD06FC07B706FC07C106FC076301FC07D9
:10008000A108FC076301FC076301FC076301FC078F
:100090006301FC076301FC076301FC076301FC07C4
:0800A000000000008E070E00B5
:0200000407FCF7
:100110000348854600F060FA004800475D17FC0779
:100120005039FC070F4880470F48004704207146AC
:10013000084203D0EFF309800C490847EFF3088029
:100140000A49084704207146084203D0EFF30980AA
:1001500007490847EFF3088005490847FEE7FEE72F
:10016000FEE7FEE7C121FC071101FC077907FC0748
:10017000E106FC0770477047704700007FB5E44810
:100180006B460188428889186A46118001214C001B
:1001900022181546403DED8F065B5288AD19AA180E
:1001A000491CC9B21A530729F1D38189C08908189B
:1001B00081B2D981D888002821D01889002820D080
:1001C000988800281FD0588900281ED098890028B8
:1001D0001DD0588800281CD000291CD01888002861
:1001E0000BD00720062254001C5B8C4201D2214612
:1001F000D0B2521E52B2002AF5DA04B070BD03200C
:10020000FBE70420F9E70220F7E70520F5E70620E1
:10021000F3E70120F1E70720EFE7F0B595B0EFF342
:1002200010801090012080F31088BA48816B4A0733
:10023000520F69460A800A92816B0122C908C900DF
:100240008163B5498B8869464B800224B24B0021FB
:100250009980C16A09078B0F69468B800F93C16A29
:100260000C2399430831C162052109070988090651
:10027000CB0F6946CB8005210907099309888023A4
:10028000194305231B071980A449898A4906CB0F06
:1002900069460B81A1490893898A402319439F4BE2
:1002A0009982016A09074B0F69464B810C93036AD7
:1002B0000E218B4303629B4D99486860FF204030BC
:1002C000A8602888A0432880974841680B071B0F27
:1002D00069468B810B934168090909010831416026
:1002E000416849064B0F6946CB810D9341687023E5
:1002F0009943603141608748403801688904CB0FD9
:1003000069460B820293036841140B430360016842
:10031000CB07DB0F69464B820E93016811430160E6
:1003200041688903CA0D69468A8203924168CA05F9
:10033000D20D6946CA82049281688903CA0D694652
:100340000A8301928168CA05D20D69464A830592E3
:100350004168764A11400322D203891841604168FE
:10036000490A4902FF314131416081686F4A1140B9
:100370000322D203891881608168490A4902FF314A
:1003800041318160642000F00FF9A8896946800737
:10039000C00F8883A8892043A8810024604F288843
:1003A00000260121084328800A2000F0FDF8FF20E4
:1003B0005F4941303A680A4200D0761C401E3F1D1A
:1003C0000004000CF6D1A88A8004FCD15149886B46
:1003D000671CC208D2007807400F02438A630A20D4
:1003E00000F0E2F860004A49FCB20E52082CD5D366
:1003F00048480A99826BD208D2000A438263694650
:10040000454A498891800F998A00C16A0C23994313
:100410001143C1620999CA0105210907098880238E
:100420009943114305221207118008998A013B491B
:10043000898A402399431143384A91820C994A0092
:10044000016A0E2399431143016237480B994268B0
:10045000120912010A4342600D9942680901702392
:100460009A430A434260029841032A484038006890
:1004700001225203904308432649403908600E98F0
:10048000096849084900014322484038016003983F
:1004900042022048403840682449084010431D4A21
:1004A000403A506004985268520A52020243194876
:1004B000403842600198174A4002403A92680A4028
:1004C00002431448403882601249059840398968CF
:1004D000490A490201430F484038816010980028BA
:1004E00000D0012080F3108815B0F0BD10B5114C7C
:1004F0002078002808D0FFF790FEFFF73FFE0E4956
:1005000008700020207010BD5FF730F80120F9E777
:100510002032FC07801000400012004020300050C4
:10052000202DFC070035005040200040FF01FCFF5B
:10053000C0C0C0C04B8DFC074A8DFC0710B5FF2220
:10054000154901320A60BFF34F8FBFF36F8F134914
:100550000A6013490B6840241B0A1B0223430B60EB
:100560001049898A0021C30700D03521830702D5AD
:100570007D231B021943430702D575231B0419432E
:10058000000702D53D2000060143064820380163DC
:1005900001488038026010BD80E100E080E200E0A8
:1005A00008E400E0A010004000280CD000BF00BF0D
:1005B00000BF00BF00BF00BF00BF00BF00BF00BF43
:1005C00000BF401EF0D17047421C0178401C00293A
:1005D000FBD1801A70470000064C0125064E05E04D
:1005E000E36807CC2B430C3C98471034B442F7D354
:1005F000FFF792FD002DFC07202DFC07014801218B
:10060000018070470E1500500A48011F0988CA076B
:1006100006D0028807239A43E94B9B781343038053
:10062000490706D5018807229143E54A12790A4312
:1006300002807047B810004080B5E148018AC08947
:100640005EF778FC5CF7A9FF10484188890703D062
:100650004188032291434180018880220A4302801D
:10066000018904229143018181898907FCD541F7E1
:1006700058FE07480021016006480168490700D577
:1006800000BE01684907FCD580BDC0460800005087
:10069000080200401000004080B50A2000F016F863
:1006A00080BD80B50B2000F011F880BD80B50C2016
:1006B00000F00CF880BD80B50D2000F007F880BD7B
:1006C00080B50E2000F002F880BD000010B5044691
:1006D0005DF76AF9E0B2012181405048016010BD28
:1006E000F8B5044601273E0205200507688DC005C0
:1006F00006D51B205CF78EFF4A48018839430180EC
:100700008036288840013040698A474A0A400243BF
:100710006A8221681348016061684160A168816054
:10072000E168C1602169016161694161A16981611B
:10073000E169C16104623E490A6842624A688262B4
:100740008A68C2624A690263CA684263096981634E
:10075000334808210180A88AC00600D4FEE700BE05
:10076000F8BDC0460090FC07024800882B481021C5
:10077000016070472C130050F8B5044605200507AA
:10078000288A0421014329822889402101432981A3
:100790002248012707602248082101803E02688D17
:1007A000C00506D51B205CF735FF1E48018839437C
:1007B00001808036288840013040698A1A4A0A4000
:1007C00002436A8221681948016061684160A1683A
:1007D0008160E168C1602169016161694161A1696C
:1007E0008161E169C161046211490A6842624A6833
:1007F00082628A68C2624A690263CA68426309699E
:100800008163A88AC00600D4FEE700BE688A094951
:1008100008404018001D6882F8BDC04680E200E034
:1008200000330050800000507FFE00005090FC0715
:1008300028ED00E0FC7F000070477047B0B5174C12
:100840005F4DA1880F200840022806D0042810D050
:100850000C2811D00128F4D11FE02889A9898142F0
:100860000FD2A088C02101402046C02912D01030EC
:1008700011E001F045FCE4E701F042FC2088012191
:1008800005E0208802218843208020888021884339
:100890002080D6E778300088D3E7B0BD041100503F
:1008A00080B55CF77AFE1948018809050CD518490E
:1008B0000A8805231340052B06D108880422024329
:1008C0000A80088801221EE00188C90606D5114960
:1008D0008A88D20702D00A88120610D40088C0067F
:1008E0000CD50C488188890708D50188C90505D52C
:1008F000022181800188084A0A40028080BD0120CF
:100900008880088880229043088080BD04000050C1
:100910000002005000010050FFFE000070B5384892
:10092000092104241823224658F732F905461B20D2
:100930002870FD26304660F7EDF90021A982E960B4
:1009400029616C606E806870284658F73CF970BD6C
:100950001FB51446002202920192069A00921A468E
:10096000234660F77DFC04B010BD0000B0B514480C
:1009700082791449D4B20C236343CD5CFF2D0AD095
:10098000012C02D102228271F4E7521C8271C81834
:10099000406880470EE0C1790B4ACCB21C23634308
:1009A000D45CFF2C08D0491CC171D318DB68002B24
:1009B000F3D098470020B0BD0021C1800120B0BD18
:1009C000488DFC07CC28FC074C23FC0770B50C486D
:1009D000092104240A23224658F7DAF805461B2089
:1009E00028701426304660F795F9FF21743129816B
:1009F0006C606E806870284658F7E5F870BDC04698
:100A00001B0D00001FB5144601220292044A0192F8
:100A1000069A00921A46234660F722FC04B010BDE5
:100A2000A022FC0770B5124D2C68002C19D111487A
:100A3000092104222C2358F7ABF80446286017201C
:100A400020840D4820800026668020460A3011212F
:100A50005AF71DFC2685E6846684E683A68320205B
:100A6000E076204658F7AFF80020286070BDC046F9
:100A7000608CFC07040D0000030A000010B5154C43
:100A8000206800281CD1144809210422522358F759
:100A90007FF802462B2000211154226091720F48EA
:100AA000D08090800D201080D172FF2008301081FE
:100AB00010460B300C320E21094B60F76BF82068A2
:100AC00058F781F8002020600420022158F791FA9D
:100AD00010BDC0465C8CFC070D0D00004C040000EE
:100AE000682CFC07F8B500920D468100104A565854
:100AF0005418002E0AD101020A310E4804271E2381
:100B00003A4658F745F8064607702060B71C102192
:100B100038465AF7BCFB38462946009A5AF79EFBDE
:100B200001207070304658F74EF800202060F8BD64
:100B3000948CFC07140E000010B5014601200A4AEF
:100B4000914210D3121D91420DD8029CF231C8B2CD
:100B50008100064A5058002803D0511800220A602C
:100B600080470020207010BD0E0400007C8CFC0724
:100B70001FB5144605220292044A0192069A009279
:100B80001A46234660F76CFB04B010BDC422FC0774
:100B900070B50C464C4988421ED04C4A90422CD02D
:100BA0004B49884247D12078401E09285ED88000F2
:100BB000494A11584D4B99425CD04848814200D077
:100BC0007CE04248042108230A4657F7E1FF2178D8
:100BD0000170616841606FE06268002A01D100BE67
:100BE00062683C48824201D300BE6268207837497F
:100BF0004018042158F70BFB60E02578681E09288F
:100C000036D8800034490B58344EB34256D10818B8
:100C1000816A016064683248018809062FD531492C
:100C2000096809042BD494490988C90727D1A81851
:100C300004212246DEE7531C0121984241D30A32A7
:100C400090423ED8C01EC0B2411E8A00224B995825
:100C5000002933D0214CA14230D0244CA1422DD0C8
:100C60009A18002313609362884727E000BE25E0AE
:100C700000BE23E010180021016081621EE0EFF346
:100C80001083012181F310880088000603D41648E0
:100C900006880E430680002B02D081F3108802E004
:100CA000002080F31088901E80B2042108230A4699
:100CB00057F76EFF4460057057F785FF04980021D1
:100CC0000170084670BDC046010400000304000026
:100CD00002040000FDFF3F00B48DFC07FF20FC076D
:100CE000080000503000004008330050FD20FC0791
:100CF000B0B50C460025202D04D041F7FAFD605513
:100D00006D1CF8E70020B0BDB0B5044609480A4D97
:100D1000402229465AF7A2FA483508483022294687
:100D20005AF79CFA0648001B064908801430488090
:100D3000B0BDC04670A0FC07D017F207B0A0FC07FA
:100D4000B8A0FFFF78A0FC0707481E21418001885A
:100D500003220A430280018804220A4302808B484E
:100D6000012101707047C046001600507047000016
:100D700070B514460D46104658F750F901282FD18A
:100D8000287801020831AA791648002A0CD089B2C5
:100D90000623224657F7FCFE0646A8785FF798FB25
:100DA0003080A879307114E0AA8889B2921D93B27C
:100DB000224657F7EDFE0646A8785FF789FB00212B
:100DC00031713080A8887080701DAA88E91D5AF79B
:100DD00045FA304657F7F7FE0021204658F709F943
:100DE000002070BD140C0000FD2801D000207047C9
:100DF000004870474C23FC077047704710B5044605
:100E000040793F280FD841F774FD2070010EE17042
:100E1000010CA170000A607041F76BFD2071000A9F
:100E2000C0210143617110BD80B5FFF727FE80BD71
:100E30006A21564A515A01807047C04680B54822FF
:100E400052498A5C0270401C49315AF707FA80BD4A
:100E50007D21C180002181801021418008210180F5
:100E60007047000080B55FF781FF03480021C17023
:100E70000248017080BDC04620BAFC0780BAFC075A
:100E8000F8B504467A2646431B4885194F782F77D4
:100E90002846143008210A4660F721FAA81C009061
:100EA00010223946174660F71AFA41F722FD124B15
:100EB000995D01220A439A556882204600F034FC6D
:100EC000297F0177698A4182E98AAA8A6B8B2D8BF7
:100ED000058343838282C182801C00993A465AF777
:100EE000BDF9204600F020FC57F76DFEA000274911
:100EF000081800214161F8BD988CFC0770B581008D
:100F00000D4A54585518002C10D101020A310B48D3
:100F100004221E2357F73CFE044601260670286073
:100F2000801C074907225AF799F96670204657F73F
:100F30004AFE0020286070BD908CFC07140E000053
:100F4000F82CFC0780B55FF7FBFD002801D0FFF708
:100F500095FD80BD10B50C46017801290CD0002903
:100F600010D142884821094B5A544933011DD2B24D
:100F700018465AF773F903E040886A21034A505231
:100F8000002000E04820207010BDC046488DFC07BE
:100F9000F0B585B04A78032A15D8C0467A4412794C
:100FA000520097440601010C0849019101A904224D
:100FB00007E007A201A90B46F0CAF0C300E0891CB4
:100FC0001022FFF78FFD05B0F0BDC04640E20100E2
:100FD000000102030405060708090A0B0C0D0E0F99
:100FE00000208880488001200870704780B55CF739
:100FF0008FF880BDF8B56946C870020A8A70020C85
:101000004A70000E087008465CF76AF88FBD70479A
:10101000704770B505460469261D3068002805D064
:10102000304641F72FFD57F720FDF6E700202861F5
:10103000204657F71AFD70BD10B589B2431C002039
:1010400009280AD00C46C440E40704D09CB2641CB2
:10105000944203D09B1C401CF2E70920C0B210BD93
:10106000F0B58BB01E4607920F46044610980690C6
:1010700000880890002101200246092913D0032589
:101080008540099020463446089ECE403B460127C5
:1010900037407E421F462E4032432646044609987A
:1010A000801C491CE9E70A92802030439E210140C0
:1010B000A08A03911D4902910190002000901C49D3
:1010C0000AAA132338464DF763FB0546002829D1A9
:1010D0000897202701210591384657F74BFC0996C0
:1010E000064639465AF7D3F8266130461E30114974
:1010F0006160A0600898008830830598E081142022
:10110000E082A08A70800998C00307990843308064
:10111000069800887083301D41F7ACFCA08A00213E
:1011200057F767FF28460BB0F0BDC0469027FC0775
:101130000A1800007428FC07004870479428FC0730
:10114000FEB5019302920C4614205EF7DDFC0546C5
:10115000002800D100BE2778082F13D8698B288B70
:101160003A4600F0F7F800280ED060788D268028E7
:1011700039D8082F0AD0072F0BD0062F0BD10828FB
:1011800009D030E081262EE082262CE0072802D00C
:1011900029E0062827D32E1D35462D68002D0BD0BB
:1011A0002979B942F9D100223046294641F7DAFCC3
:1011B000284657F75AFC60780830012157F7DAFBC8
:1011C0000546617808315AF762F82078287160780E
:1011D0006871A81D6278A11C5AF740F8304629466C
:1011E00041F76CFC0026064802230199029A57F742
:1011F000CFFC21780170467057F7E5FC0020FEBD5A
:1012000001140000F8B514460D46104657F706FFC6
:10121000012840D114205EF777FC0746002803D050
:10122000798B388B3E7F06E000BE1A20018818209B
:1012300000881C221678324600F08CF80246787F2F
:101240000002083029788E4213D117466A7881B29D
:10125000931DF548224657F79BFC06460020307147
:10126000378068787080701D6A78A91C59F7F6FF7E
:101270000AE081B2EC4806231546224657F788FC5F
:101280000646802030713580304657F79CFC00219F
:10129000204657F7AEFE0020F8BDC046F8B51F4601
:1012A0000C460878082811D80725002100911AA6B5
:1012B000784400794000874419040F04060612158B
:1012C00018001A4E12E00D25174E0FE000BE002642
:1012D00001200090354609E00A2515A606E00825FC
:1012E00018A603E006250EA600E014A6AB1C1848BD
:1012F000394657F74DFC0746207838707D700098C6
:10130000002804D1B81C31462A4659F7A7FF3846B1
:1013100057F759FC0020F8BD52656E657361730084
:10132000FFEEDDCCBBAA00000A2CFC07F62BFC0765
:10133000312E302E302E302D4C45000001D2008051
:1013400005000100123456FFFE9ABCDE00000000CA
:1013500003140000B0B58BB2411C00200446092CD8
:101360000DD01D46E540ED0702D0A24202D0891CF7
:10137000641CF4E7092A01D0481C00E0002080B278
:10138000B0BD80B558F76EF949F74BFE80BD00BE81
:10139000704780B5002046F7B6FF5EF737F980BD8D
:1013A00080B5012046F7AFFF80BD80B549F739FE13
:1013B000FFF7CAFC80BD80B546F7F1FF80BD000095
:1013C00080B50648018801229143018058F72EF923
:1013D00041F736F9FFF7B8FC80BDC046083300502E
:1013E00070B50C78A51E052D37D81C0A7D442D79C3
:1013F0006D00AF440221323543517A206043524A96
:101400001518887878216854C0070DD071350C20E4
:101410006043D0490E1831462D310622284659F72F
:101420001DFF2C20305CA8710C206043C9490818AE
:1014300033210022425449E07A206043424908188F
:101440007821002242540C206043C24908183321FD
:10145000425420465FF704FC38E000F069FE35E0B6
:101460007A256543384C60193A30891C172259F7A0
:10147000F5FE605D04210143615527E07A2565434F
:10148000314E70196130891C1024224659F7E6FE4E
:10149000705D2043705519E07A2060432A4A141881
:1014A0008B1C488A002808D020461E301C22194672
:1014B00059F7D4FE2078022106E0A01C1C22194610
:1014C00059F7CCFE2078012101432170002070BD26
:1014D00080B50A78072A24D8180A920001A39A58DE
:1014E0009746C0460515FC072315FC072315FC0786
:1014F0002315FC072715FC073115FC073115FC07E0
:101500002D15FC077A2141430F4A002353540C2127
:101510004143904A5118332201238B54FFF7EEFCCC
:1015200006E000BE04E0FFF733FD01E0FFF7A8FC92
:10153000002080BD180A7A224243034880180978A7
:101540007822815400207047988CFC070020704757
:1015500000207047FEB51F4615460E46104657F749
:101560005DFD01280DD0002400285AD102971420D7
:101570005EF7CAFA07460028019604D0798B388BAB
:1015800006E002244DE000BE1A20018818200088E1
:101590003288FFF751FD064608281ED800943C1DEE
:1015A0002468002C27D02079B042F9D16079831DBE
:1015B0001D4802992A4657F7EBFA0546019800881C
:1015C000288000232B7160796880681D6279A11DD5
:1015D0001C4659F743FE28460AE0134806230299A1
:1015E0002A4657F7D5FA01990988018080210171AF
:1015F00057F7E9FA15E03E770298010A79773846FD
:101600005EF7A0FA0146094801272A463B4657F7EC
:10161000BFFA067057F7D7FA2846394657F7E9FC5C
:10162000009C2046FEBDC046140C000002140000C1
:1016300070B5294EB06800F051F80546084C2146B7
:1016400059F792FD706107494143481901D0201AAA
:1016500080B23061306808210143316070BDC046FE
:10166000710200008FFDFFFFF8B5174800210160EF
:10167000642016490E5ABB4CA76B30467843284964
:101680004018284959F770FD054620821048007817
:10169000022801D00B2400E01C243C36774320486C
:1016A0003818204959F760FD2818001900F016F87D
:1016B0000849401880B257F7E3FF0120C0070649E8
:1016C0000A6882430A60F8BDA4B9FC07C08BFC0716
:1016D00080BAFC07E20400003000004080B50246FA
:1016E000C00B09D09F48C06B00210B4659F766FD1F
:1016F0008905800A401880BD9A48C06B4243900A11
:1017000080BDC04680B5FFF7E9FF80BD80B5954933
:10171000896B414302480818024959F725FD80BDED
:1017200020A1070040420F0010B5014680008D4AFD
:1017300014186069002800D010BD143409020A3161
:10174000054804221E2357F723FAFF2108310180A0
:10175000206010BD488DFC07140E000090B07E483C
:10176000C82106910180002444807C4808210B9107
:1017700001800E947A4E0E98002812DC00200D9005
:101780000D9A0E990B2A09DC30224A43B1180D9AA2
:10179000920088500D99491C0D91F1E7481C0E905C
:1017A000E9E7F368E1430120002B0C90074600D0E5
:1017B0000F46F8006B4D2A6A0243686A09902A6254
:1017C0000A977F0F002B0A4600D11A46D000C01995
:1017D000099A104368623769002F0C9B00D00B46B2
:1017E0001A0F002F084600D13846000180186A6A97
:1017F0000243286A6A621A0102432A627768002F4C
:1018000000D00C910C98C20F002F00D1394648002F
:101810008018696A0143286A69620C9A5100014381
:1018200029626C622C620A98F060336172600E94D7
:101830000E98002835DC00200D900D980B282CDC2C
:101840000D980E990B2828D830200E994143711815
:101850000D9A92008958491C00D100BE0E9941434F
:1018600071180D9A92008958002913D00E99484397
:1018700030180D9989004058C1170D9A59F732FD5B
:101880000E9A120159F72EFD6A6A0A43296A6A62A2
:10189000014329620D98401CCEE70E98401C0E9023
:1018A000C6E7314F38880EAE30803088C046C0461B
:1018B00030880422D1430842089201D03C8003E0E2
:1018C000B88901218843B8810B9BB88B2749014017
:1018D00007200990C0020818B883254801881943D9
:1018E0000180C18D0626B143C18501210A9189037A
:1018F000BA8B0A43BA8301881E4A0A400280418893
:10190000059631439943418005273E07728D1A4B56
:10191000FF33C18D19400F23D20504932ED41A032F
:1019200003235B021943C185C18D1143C1850E4B51
:10193000998B0B9A91439983998B042291439983B4
:101940004188F94A0A404280C18D0A9A1143C185F3
:10195000718D4907FCD52EE0003100500233005054
:10196000148DFC07488DFC0704030050FFC30000E2
:1019700052000050FFBF000000F0FFFF0A9B9A02D8
:101980001143C185C18DEC4A0A40D9035118C18564
:10199000E849898B0B9A1143E64A9183918B089A07
:1019A0009143E44A9183C18D9943C185918B13463C
:1019B000402291439983DF4B998B03220C92114370
:1019C0009983028820231A434021C9430A40028098
:1019D000D84A108C0393184308401084F08A802260
:1019E000079210430840F082308EFF2290433086E9
:1019F000308F089B1843182290433087308FA022E5
:101A000002430A403287CD480380B088CC49014068
:101A1000B1800A980004CB490860681CCA4902904A
:101A20005CF748FF02205CF70DFFC8480068C1B2B0
:101A30000C20AA29014600D00899328882438818D0
:101A40003080C046C046C2480088A883C1480068AC
:101A5000A8610A98C046C046BF480090BA48021D17
:101A6000BE4EBF49BF4B30465BF7CCFB6420315ABA
:101A70000C9A1202002902D11146E8313152662136
:101A8000705A002807D1B1480068C0B2AA28079848
:101A900000D06E2070520892E8815BF7ADFAAB4837
:101AA0008069A949C86002985CF7B0FFAE48006839
:101AB000AE49884200D0C4E0AF48B04959F7E7FBCF
:101AC00009980102AE4859F7E2FBFEF755FBAD4815
:101AD000AD490160AD48AE493024224659F7BEFBFE
:101AE000AC483E460027C771877147710771C770C0
:101AF000877047703F210170A748A8A1402259F77D
:101B0000ADFBB648C77187710A9941710A46C02179
:101B100001710399C1708470477004990170B048D5
:101B20000770B048B0490160B048B1490160B148A0
:101B3000B1490160B14832210170B1480660B14835
:101B40000260B1480660B14805990160B048099942
:101B50000160B0480B990160100205901646801D87
:101B6000AD490860AD490860AD49834808606A78AE
:101B70001B2075495BF7A6FDAA4807600A220C984E
:101B800039463346A84CA0470420099009220899F9
:101B90003346A54CA04730460899099A3B46A24CCB
:101BA000A047A24C20465CF703FCA1480188A1890C
:101BB000079B1943A1819F490B220A800B99218021
:101BC000A780A1899943A1810C99A181944C868316
:101BD000078409978784059F97485CF7E7FC554978
:101BE0000889304308815BF735F95BF779F95BF7D2
:101BF00093F95D4800685D4988423CD020688F4970
:101C00000860514AD0681072010ED172010C9172B5
:101C1000000A50723846C030564A00281BD0401E79
:101C20005449435C1678344639460C9F3C400F4675
:101C300045490C19247A5C4074401470784C521C4D
:101C4000EBE74B484B497A02944200D934E72258DB
:101C50006250241DF7E73C4E103646491C223046A0
:101C60005CF70EF8002800D000BE30465BF738FA6B
:101C70003D483E490160206840F7ECFA704C099EEF
:101C80002671E6700A988007016839430160FFF702
:101C90005BF82878012808D16A4801884907FCD4F4
:101CA0002E70284638305BF751F948200E222A540E
:101CB000E67065480670AE62EE622E6328464930D3
:101CC000624959F7CBFA48356E84042460492046AE
:101CD00057F75DF92046314657F78BF9FFF7C2F801
:101CE000FFF7C2FC0520FEF729FC10480699018089
:101CF0000F480B99018057A05B4DA8475BA0A847F0
:101D00005FA0A8470E9664A0A8470FA806700121FF
:101D10000DAD2A4633465CF7C1FC0EA821462A4683
:101D200033465CF7F7FCFEE7FFF900000031005096
:101D30000233005004030050FF0F00000002005067
:101D4000FFF7000080E200E03032FC07D07FF807A8
:101D5000D87FF807D47FF80700000000C08BFC078D
:101D6000A000FC07000000009CB8FC076587341247
:101D700000B0FC07048EFC0700A0FC07AC140000B8
:101D800000B9FC072CBAFC07A428FC07D0B9FC0753
:101D900094BCF107ABB9FC075CBCFC0720008000D9
:101DA00000C0000000000400000028220000000025
:101DB0000000040000F7C3F77E00000030F00708C1
:101DC000000000000004000000000000000000000F
:101DD000000000000000000000000000B3B9FC0794
:101DE000CDB9FC0750B9FC072A17F20754B9FC0714
:101DF000282AFC0758B9FC071C29FC07AAB9FC07CC
:101E00005CB9FC0760B9FC0764B9FC0768B9FC075A
:101E10006CB9FC0770B9FC0748B9FC0744B9FC076A
:101E20004CB9FC070000084091D7F10700110050A1
:101E30007C110050C0110050BA28FC070802004075
:101E400020BAFC070016005080BAFC07682CFC077B
:101E50009022FC070D0A202D2D2D2D2D2D2D2D2D01
:101E60002D2D2D2D2D2D00001121FC070D0A2049AF
:101E7000324320444131343533585F4453500000DD
:101E80000D0A202D2D2D2D2D2D2D2D2D2D2D2D2DD2
:101E90002D2D0D0A00000000493243205374617259
:101EA0007431210A0D00000080B5B9484379002B38
:101EB00000D009230A4841680A4800225BF724FB46
:101EC00080BDC04680B5B2484379002B00D00923BD
:101ED0000348011D034800225BF7E2FA80BDC046BB
:101EE0003032FC07C08BFC070549884200D000BE99
:101EF00004480188044A11408918091D018070476F
:101F00001111111112000050FC7F0000F8B50446B9
:101F100000260A4F302E0FD0BD19E88AFD2801D1C6
:101F2000074969605DF776FE002803D0826828467D
:101F3000214690471836EDE7F8BDC0462C8CFC07CB
:101F40000827FC0770470000F0B58BB03022002155
:101F500081541F221204244B1D68954301246204FE
:101F6000AA181A60224B234D4561234D234E244F5E
:101F7000244AC261066243621C4A8262C562224AE6
:101F800007604260E004514A1368834313602829C4
:101F900003D001A84154491CF9E71C4800684030AF
:101FA00001A9282259F75AF9794D6C715DF718FB90
:101FB000FFF788FFFFF778FF00F08CF85DF74EFB26
:101FC0005DF760FB5DF7D2FAEC70114800880721DD
:101FD00001402971FEF78AFA25485DF791FB5DF70C
:101FE00015FB0BB0F0BDC046740000401920FC0783
:101FF0001520FC077920FC0741F6F1073908FC079A
:102000007520FC071DF6F107451FFC074CB9FC07BE
:10201000B8100040002070477047000080B51F20B6
:10202000000401218A07536F83434804181850673E
:1020300010680721884310600C48018808220A4371
:1020400002805DF7CDFAFFF73DFFFFF72DFF00F0AF
:1020500041F85DF703FB5DF715FB05485DF740FBB5
:102060005DF7D4FA0520FEF769FA80BD080000503C
:1020700070A0FC0770470000022902D0012900D09F
:1020800000BE002802D0FF2804D000BE022901D1E2
:102090000C2070473E484079002800D00920704746
:1020A00080B50A480168C90703D0016802220A43C3
:1020B00002600168490204D50121890502680A43CA
:1020C000026003485CF760FF80BDC046000200402C
:1020D000F422FC0780B55CF7EFFF2D48407900281B
:1020E00002D1C120400100E00248034908605DF7C9
:1020F0005DF880BD2018000900100040704770474F
:102100000248018801229143018070470411005068
:1021100010B50446FEF758FA1D4900228A8108814D
:1021200082B2024821465CF799F910BD00110050B7
:10213000B0B50C460649884209D1481C022519460B
:102140002B4656F725FDA188018056F73CFDB0BD12
:102150000D0C000070B504460C2060430C490818B3
:102160002A21405CFF280ED000250A4E1C2068431F
:10217000315CFF2909D030180169002901D02046BF
:1021800088476D1CF2E7FEF779FCFEF76BFE70BD29
:10219000488DFC074C23FC0780B5FEF76FFC80BD23
:1021A00002E008C8121F08C1002AFAD17047704720
:1021B000002001E001C1121F002AFBD1704700007E
:1021C00080B502485AF764FB80BDC046A000FC07FA
:1021D00017B967984C664C01963331B19159001587
:1021E0002368EC521E6244749A1BD18BAB75B66E99
:1021F0009EE7BA08B9A948ABA1AC031C2E0D296C07
:1022000020EE8D0CE1F04A0CB325DC536A68862D74
:1022100028D5E1C1E1C54729B55765C3BA47159E21
:102220004F43313C939242E6A876FA3BEFB4875A8B
:102230008C09E0D1815442408E4FD2B377E32A77A4
:1022400020EE8D0CE1F04A0CB325DC536A68862C35
:102250004F43313C939242E6A876FA3BEFB487595C
:1022600017B967984C664C01963331B191590014F7
:102270002368EC521E6244749A1BD18BAB75B66D09
:1022800028D5E1C1E1C54729B55765C3BA47159DB2
:1022900000000000EC1BF207648CFC070400010046
:1022A000021400009D12FC07FD11F207910BFC07C0
:1022B000390BFC07710BFC07050AFC075109FC07E9
:1022C000F8000000130E0000D114FC07150E0000EA
:1022D000E113FC07170E00004D15FC07190E000056
:1022E0003515FC07150D00005115FC0703280028C3
:1022F0000229012980000000AB13FC070200000046
:10230000B713FC07080000009313FC07000100004E
:10231000A113FC0700020000F5B0F0074000000028
:10232000FD82F007100000007F6FF007040000003E
:10233000C113FC07010000008313FC07200000000C
:102340008F13FC070000000000000000FD000000EB
:102350008423FC072D0000001D09FC07000000007D
:102360000000000000000000FF000000000000006E
:10237000000000000000000000000000000000005D
:1023800000000000EE22FC07100000000100000029
:10239000100010005D27FC07EC22FC070200000083
:1023A0000100000000000000000000000022FC0707
:1023B0001000000008000200010000000000000002
:1023C000F222FC0702000000010000000D000D00D9
:1023D000582CFC07EC22FC07020000000100000062
:1023E00000000000000000002022FC071000000098
:1023F000088000000180000000000000F222FC07BD
:10240000020000000100000009000900362CFC0752
:10241000EC22FC07020000000100000000000000A8
:1024200000000000D021FC071000000001020000A5
:102430000200000000000000F022FC070200000083
:10244000090002000200000000000000F222FC0768
:1024500002000000010000000B000B00EA2BFC074B
:10246000EC22FC0702000000010000000000000058
:1024700000000000E021FC07100000000100000047
:102480000200000000000000F222FC070200000031
:10249000010000000B000B00FE2BFC07EC22FC07E8
:1024A0000200000001000000000000000000000029
:1024B000F021FC07100000000102000001000000F4
:1024C00000000000F022FC070200000009000200EA
:1024D0000200000000000000F222FC0702000000E1
:1024E000010000000C000C00402CFC07EC22FC0753
:1024F00002000000010000000000000000000000D9
:102500001022FC0710000000410000001400000031
:1025100000000000F022FC07020000000900020099
:102520000200000000000000F222FC070200000090
:10253000010000000C000C00182CFC07EC22FC072A
:102540000200000001000000000000000000000088
:102550003022FC07100000000902020032000000D7
:1025600000000000F022FC07020000000900020049
:102570000200000000000000F222FC070200000040
:10258000010000000A000A004D2CFC07EE22FC07A7
:102590001000000001000000100010006D27FC0773
:1025A000EC22FC0702000000010000000000000017
:1025B000000000004022FC0710000000080002009C
:1025C0000180000000000000F222FC070200000071
:1025D00001000000080008002D2CFC07EC22FC077D
:1025E00002000000010000000000000000000000E8
:1025F0005022FC07100000000880000001000000CD
:1026000000000000F222FC070200000001000000B0
:1026100011001100C72BFC07EE22FC071000000080
:1026200001000000100010007D27FC07EC22FC07D1
:102630000200000001000000000000000000000097
:102640006022FC07100000000102000002000000F0
:1026500000000000F022FC07020000000900020058
:102660000200000000000000F222FC07020000004F
:102670000100000010001000D92BFC07EC22FC0721
:102680000200000001000000000000000000000047
:102690007022FC0710000000010000000200000092
:1026A00000000000F222FC07020000000100000010
:1026B00007000700252CFC07EC22FC0702000000A5
:1026C0000100000000000000000000008022FC0764
:1026D00010000000410000000200000000000000A7
:1026E000F022FC07020000000900020002000000C6
:1026F00000000000F222FC070200000001000000C0
:1027000012001200B42BFC071027FC070900000080
:10271000130C00003701F207150C00000F02F2073E
:10272000170C00003D03F207000C00002B00F2071D
:1027300006FD00005F00F20703FD00003F00F20706
:1027400008FD0000AD00F2070EFD0000FB00F207DF
:1027500005FD0000710DFC07001A212D03595A08D0
:10276000E4862A9E8FE911BC7C98434218595A0886
:10277000E4862A9E8FE911BC7C7C464218595A088F
:10278000E4862A9E08E911BC7CD04742180000006C
:1027900000280000010000000000000003280000E5
:1027A0000100000002000000292A000001000000D2
:1027B00080800000032800000100000004000000E9
:1027C000242A00000100000080800000032800008F
:1027D0000100000006000000252A000001000000A2
:1027E00080800000032800000100000008000000B5
:1027F000272A00000100000080800000032800005C
:10280000010000000A000000262A0000010000006C
:102810008080000003280000010000000C00000080
:10282000282A00000100000080800000032800002A
:10283000010000000E000000232A0000010000003B
:1028400008800000032800000100000010000000C4
:102850002A2A000001000000088000000328000070
:102860000100000012000000502A000001000000DA
:10287000078000007C28FC07030000000014000013
:102880004111FC07130C00005515FC070314000050
:102890000512FC076110FC071310FC071110FC0760
:1028A0000F10FC070000000000000000F4011700FA
:1028B000F4352348D0070640643248004F00080032
:1028C000170001000100A000010100001400000039
:1028D000CD09FC0700000000FF0000000000000020
:1028E00000000000140000003911FC07FD0000008A
:1028F00049FEF107FF00000000000000250AFC0768
:102900006D09FC07782CFC073121FC07A822FC0785
:10291000708DFC07988CFC07658CFC070500000097
:102920005039FC07000400001092FC07640200000C
:10293000048EFC07000400008094FC077005000072
:102940002003000000A60E0004000000D2000000DA
:10295000320000003C000000010000000100000007
:10296000020000000200000004000000030000005C
:10297000060000000000000002000000020000004D
:102980000000000000000000030000000300000041
:102990000500000005000000060000000A0000001D
:1029A0000A000000C8000000B80B00000200000090
:1029B000B80B0000B80B000010000000D4010000AC
:1029C000CC010000700200006A000000040000005A
:1029D00001000000200000000A00000001000000CB
:1029E000E20400008A020000DC050000AF000000E5
:1029F000A02BFC07082AFC07182AFC07A82BFC07B9
:102A0000FC28FC0700000000A8B8FC07A0B8FC07E1
:102A1000B8B8FC07F8B8FC075827FC075C27FC0788
:102A20008423FC07E90DFC07491FFC071D20FC0758
:102A300027B6F00785B6F0078DB6F007DDB6F007CC
:102A4000F5B6F0070BB7F0072DB7F007ADBAF007F2
:102A500051BDF00791BBF007B1BBF007D1BBF00748
:102A60000FBCF0071FBCF00779D0F00735CEF00798
:102A700053CEF0076FCEF00789CEF0079DCEF0075A
:102A80001BCFF00733CFF0077B8FF1070392F107DD
:102A9000F797F0076DCDF10751CEF1074DCEF10755
:102AA00049CEF1078D21F007E91EFC073116FC071E
:102AB0006916FC070D17FC070517FC07BB70F0072C
:102AC000896FF0072970F007F965F1070122F10716
:102AD00069F9F107E9F9F1070D1FFC07C9FAF107D8
:102AE00059FBF10791FBF10700000000F90DFC070D
:102AF000FB0DFC079BA1F007595AF107C760F107CE
:102B0000FD64F107FD63F107D736F1076545F1076D
:102B10005DF9F0070DDBF0076D0DFC0785AAF007E6
:102B2000599AF007D19AF0078D9BF007CF2DF00747
:102B3000892EF0071D73F007E771F0078536F0075F
:102B400000000000ED0FFC07F50FFC07F10CFC077F
:102B5000A785F1071B86F1079F86F107090DFC0782
:102B60000000000000000000000000000000000065
:102B70000000000000000000000000000000000055
:102B80000000000000000000000000000000000045
:102B90000000000000000000000000000000000035
:102BA000AC28FC07608DFC07E428FC072C8CFC0794
:102BB0000200000052656164206D652028696E6422
:102BC000696361746529005772697465206D6520B9
:102BD000286E6F20727370290052656164206D65E4
:102BE00020286E6F7469667929004144432056613C
:102BF0006C75652031004441313435333100414436
:102C0000432056616C7565203200765F362E302E7B
:102C100032302E3133333800496E64696361746534
:102C200061626C650052656164206D650057726970
:102C30007465206D65004C454420537461746500D3
:102C4000427574746F6E205374617465004C6F6EBE
:102C5000672056616C756500436F6E74726F6C20EF
:102C6000506F696E74000000526E6963615F41705D
:102C7000705F5465737400005521FC079921FC07AF
:102C80000000000000000000450FFC0700000000ED
:102C90000000000000000000290EFC0700000000FA
:102CA00000000000000000003D0EFC07310EFC0794
:102CB000510EFC07550FFC0700000000E10FFC0758
:102CC000FD0DFC070000000000000000FD0EFC07E9
:102CD000910FFC070000000000000000810EFC07BF
:102CE00000000000000000000000000000000000E4
:102CF00000000000000000000300001000010000C0
:102D0000202DFC07202DFC07300C0000B021FC0713
:102D1000C08BFC07C08BFC0744020000B021FC07FD
:0400000507FC0111E2
:00000001FF
