:0200000407FCF7
:100000008855FC072501FC072D01FC074501FC076D
:1000100000000000000000000000000000000000E0
:100020000000000000000000000000005D01FC076F
:1000300000000000000000005F01FC075F13FC07E8
:100040004910FC07FD38FC07A526F0076113FC07E3
:100050008D12FC076301FC070D10FC076301FC0710
:100060001910FC076301FC07F110FC07FB10FC07EB
:100070000511FC070F11FC071911FC076301FC07B0
:10008000A513FC076301FC076301FC076301FC0780
:100090006301FC076301FC076301FC076301FC07C4
:0800A00000008E070E000000B5
:0200000407FCF7
:100110000348854600F068FF00480047E922FC07D5
:100120008855FC070F4880470F4800470420714658
:10013000084203D0EFF309800C490847EFF3088029
:100140000A49084704207146084203D0EFF30980AA
:1001500007490847EFF3088005490847FEE7FEE72F
:10016000FEE7FEE7B53DFC071101FC079D12FC0709
:100170000512FC07F8B5074601200023024600904F
:100180001946032049F73EF90446022180300170E8
:10019000FF4DFE482A6843881146FF31F7310B8630
:1001A00080884886FB48066A0123DB069E431E437F
:1001B0000662FF320020FF32383250829082D082B5
:1001C0001D200882F4484884F448C882F448088313
:1001D00000204882384649F755FC01462868FF3020
:1001E000F730C28B920992010A43C283ED484168FD
:1001F00000208847002C02D0204648F7ECFC20461F
:10020000F8BDFFB58BB0064616980027022821D00E
:100210000D9801881498814278D371880846403837
:100220003F2802D8159855F7E9FC0C98361D008830
:10023000149A80190E995EF75FFF0C980188149844
:1002400008180C9908800D9801881498081A0D99BF
:1002500008805CE100200E9D079069782C780902E7
:1002600021433180E978AC780902214371808C46C2
:10027000403904242D1D024603468E46402900D3F2
:100280002878614604291FD0052914D0062918D0E2
:1002900070463F283DD8159855F7B0FC0006000E73
:1002A00004D0C148008D0006C00F30D002230120C9
:1002B000BE4A002712E0697800290FD0BC4A1723F4
:1002C0000CE0BC4A0F2309E0522802D0D22802D009
:1002D00002E0142000E01520B74A1F23002A1AD09C
:1002E000984218D2800010580490002813D00020A3
:1002F0000890059070884038402803D3287805245A
:1003000030716D1C701D00900498B5E0FEE0302740
:10031000F0E03327EEE07088042872D10627E9E088
:10032000522862D00CDC4B283FD004DC41286AD034
:10033000422858D111E04C2820D0502853D140E019
:10034000632830D004DC572818D061284BD19BE0BB
:100350006C2864D0772846D109E00098297801708C
:100360000098641C401CA4B26D1C009081E00498AD
:10037000401C04900178089881427AD10098A41C0E
:10038000401C41084900881C009068782A780002C7
:10039000104308800599AD1CA4B2002969D00890CB
:1003A0000020059065E00120FBE710222946009817
:1003B0005EF7A2FE009810341030A4B21035009001
:1003C00057E0204640301499039088420BD84022D1
:1003D000294600985EF790FE009840300090039800
:1003E000403584B245E0342743E00822294600988E
:1003F0005EF782FE009808340830A4B208350090F9
:1004000037E068E0FFE70622294600985EF774FEB1
:100410000098A41D801DA4B2AD1D009029E0149881
:10042000001B80B203903088001B001D81B20120A8
:1004300007900498401C04900098401C400840001D
:1004400000900498007857281CD04228CBD10098FF
:100450000170090A417000982946801C0090039A97
:100460005EF74AFE03980399201884B2009840185A
:1004700000900498401C0490007800281ED0002FA3
:1004800017D01BE04908E2E71498001B81B20098DE
:100490000391401C40084000009001200A4607904C
:1004A000294600985EF728FE0399601884B20098E8
:1004B000DDE70D990988A14200D331E70D98008846
:1004C000A04208D304990978002904D1079900298A
:1004D00003D1A04201D034270CE00D99001B088005
:1004E0000C9801880098801B001F08180C99002F99
:1004F00008800CD07088042809D0062807D040381E
:10050000402804D30E984079707100E034273846B3
:100510000FB0F0BDFFB581B01F4616460C46104621
:100520005CF7AEFC00257F2802D02189062909D07E
:100530003B4632462146019855F7F3FE05462846CC
:1005400005B0F0BDC00601D50225F8E720780028E7
:10055000F5D1300AA11D42F77CF8F0E7F1B598B06B
:10056000189842F774FA0446189805210079134A3E
:100570004006C00F099068460184618B08460A381E
:10058000904276D2E08A062873D319E030BCFC078B
:100590004CB9FC07C0000040108000002941000059
:1005A0007671000058BFFC0748BEFC073803F2070D
:1005B0004003F2079C03F207D803F207770C000010
:1005C0001922D201904254D8228BFF23F5339A424C
:1005D0004FD8521C9300D2184243521C0A23521087
:1005E00059438A4245DC217F00290CD1617F0029D3
:1005F00009D1A17F002906D1E17F002903D1202163
:10060000095DC90635D0274620377978C906C90E55
:10061000491F0C292DD2A18A81422AD8E17C0029C8
:1006200027D0421E082A01D9082000E0401E81423E
:100630001FD8684646F7CCFA00281AD1FE4D06228C
:10064000286221460AA85EF757FDA8792E46803E0B
:1006500000287DD06079800901280BD00AA809996B
:100660004CF785FD010003D03820405C002870D095
:100670009BE008E1F06A807A012808D0042806D0BF
:100680000AA84CF7E1FD286200284ED054E0686AC1
:1006900006220AA932305EF753FD002806D00AA8C8
:1006A0004CF7D2FD2862002802D012E0686AF9E710
:1006B00000210AA84CF7DEFD2862F16A897A012937
:1006C00005D18B071A6849068A430A431A60002835
:1006D00011D0F16A286A0622253010315EF730FD0C
:1006E000002808D1286AF16A2030C07AC97B884284
:1006F00001D1286A1EE0D148D1490088C96880B27A
:1007000006225043081842F7A7F9014614A806220A
:1007100002305EF7F1FC13AA00213C2042F769FC8D
:100720000121B06D47F790FEA9E011A90AA84CF786
:10073000A1FD2862002838D00146253106220FA8E5
:100740005EF7DAFC286A08AA2030C17A0FA801E017
:1007500041E024E04CF7EEFB002812D0286A20305C
:10076000C07A002809D16846B649008C4BF755FB82
:1007700008AA0121B3484CF7DDFB68460AA9008CA2
:100780000AE008AA012111A84CF7D4FB00280CD0DC
:10079000296A6846008C32314BF755FB05E00A1890
:1007A000527D002A08D010286DDBF06A407A0228BA
:1007B00006D0032804D00EE0401C1028EFDBF4E73D
:1007C0006846008C052806D308AA0AA809994CF7A0
:1007D000B1FB002857D00022694620464CF753FC55
:1007E000002850D1F06A407A02280BD0032809D0A3
:1007F0000023684602880AA809994CF765FC00287E
:1008000002D02FE00123F4E7E18A68460181218BC1
:100810004181618B81817878062241096846817522
:100820007878C106C90E6846417521460E305EF7DC
:1008300063FC189800794006C10F6846017503886B
:10084000214602A8B26D47F7A5F90146B06502A896
:1008500042F71DFC0020B065214668461C31008827
:1008600046F709FA49F788FA734C2034207A0028B1
:1008700005D0002109205CF746FC002020720021F1
:1008800008465CF7E8FA19B0F0BDF8B56E4C0646BC
:1008900085000F4660594C21095C24290ED140691E
:1008A0001022791D2E305EF727FC6159252040313A
:1008B000087300221146304654F7F3FA60594C2170
:1008C000095C0C291FD140691022791D2E305EF77A
:1008D00013FC60595F214069095C09072DD401466A
:1008E0002E3110221E305EF72BFC00280CD06059F0
:1008F000092140300173304654F7F0FF01460022D1
:10090000304653F74DFEF8BD0421684601706A4633
:100910000521304653F7EEFF684601786020014319
:1009200068460170304654F7D9FF014668460278A0
:100930000123304653F749FFF8BD304654F7CEFF48
:10094000012809D060590721403001730022114667
:10095000304654F7A6FAF8BD615900204969C03104
:10096000887160590421426930461E3253F7C2FF34
:10097000605941694031897F002907D01A214030F0
:1009800001730021304654F716FBF8BD1B2140309F
:100990000173304654F764FBF8BDF8B52A4C0546A0
:1009A0008600A0594C22125C192A11D140224D30E8
:1009B000491D5EF7A1FBA059402224494D305EF746
:1009C000BFFB002805D02149284620395BF723FDCD
:1009D000F8BD0B21684601706A460521284653F789
:1009E00089FF684601786020014368460170284607
:1009F00054F774FF0146684602780123284653F7EE
:100A0000E4FEF8BDFFB581B003980C46060A002548
:100A10005CF736FA002827D0132825D0142823D0D5
:100A20000B48B700C0592030407BC00637D503982B
:100A30005CF726FA15280DE030BCFC0768B9FC0706
:100A400060BBFC0750F5F1073CBEFC07FCBDFC0792
:100A500078BBFC070CD0A07941F7ECFF304647F794
:100A600087F8032806D015E0A07941F7E3FF1FE0DF
:100A700002251DE03248C0592030407B400704D594
:100A80003D21304642F7D4FC04E03D2200213046AF
:100A900042F7DDFC3D21304646F7B2F808E020463B
:100AA000103828490181468120464EF79BFD0125DB
:100AB000284645E524485222006864308188C37E78
:100AC0005143224A12688918FF225F32525AFF317D
:100AD000120AD21A01310B8CD2B2DB0B09D00B8C6B
:100AE0005B045B0C0B84002A03D18088184A012127
:100AF00011547047FFB51746140A81B0104A029886
:100B0000A100515840780026114D002907D0295DD9
:100B1000002905D0002803D1204643F7EDFE2E55CD
:100B20003A46049B0299019844F777FE08E50A4883
:100B300008490160094941607047704770470000EB
:100B400078BBFC070608000084BBFC074CB9FC0717
:100B5000C08BFC070459F007C0000840490C00BFD7
:100B60007FB5E4486B460188428889186A4611803F
:100B700001214C0022181546403DED8F065B52883E
:100B8000AD19AA18491CC9B21A530729F1D3818992
:100B9000C089081881B2D981D888002821D0188945
:100BA000002820D0988800281FD0588900281ED0FF
:100BB000988900281DD0588800281CD000291CD0F6
:100BC000188800280BD00720062254001C5B8C429A
:100BD00001D22146D0B2521E52B2002AF5DA04B038
:100BE00070BD0320FBE70420F9E70220F7E70520AA
:100BF000F5E70620F3E70120F1E70720EFE7F0B57E
:100C000095B0EFF310801090012080F31088BA485F
:100C1000816B4A07520F69460A800A92816B012252
:100C2000C908C9008163B5498B8869464B80022495
:100C3000B24B00219980C16A09078B0F69468B80EE
:100C40000F93C16A0C2399430831C162052109073A
:100C500009880906CB0F6946CB800521090709934E
:100C600009888023194305231B071980A449898A11
:100C70004906CB0F69460B81A1490893898A402315
:100C800019439F4B9982016A09074B0F69464B81B3
:100C90000C93036A0E218B4303629B4D9948686055
:100CA000FF204030A8602888A043288097484168EA
:100CB0000B071B0F69468B810B93416809090901DA
:100CC00008314160416849064B0F6946CB810D935D
:100CD000416870239943603141608748403801681A
:100CE0008904CB0F69460B820293036841140B43BE
:100CF00003600168CB07DB0F69464B820E930168E6
:100D00001143016041688903CA0D69468A820392D2
:100D10004168CA05D20D6946CA8204928168890376
:100D2000CA0D69460A8301928168CA05D20D6946D7
:100D30004A8305924168764A11400322D2038918FA
:100D400041604168490A4902FF314131416081688F
:100D50006F4A11400322D203891881608168490AD1
:100D60004902FF3141318160642000F02DF9A889EA
:100D700069468007C00F8883A8892043A881002482
:100D8000604F288800260121084328800A2000F0AF
:100D90001BF9FF205F4941303A680A4200D0761CB7
:100DA000401E3F1D0004000CF6D1A88A8004FCD12F
:100DB0005149886B671CC208D2007807400F024374
:100DC0008A630A2000F000F960004A49FCB20E5222
:100DD000082CD5D348480A99826BD208D2000A431E
:100DE00082636946454A498891800F998A00C16AA1
:100DF0000C2399431143C1620999CA0105210907CE
:100E0000098880239943114305221207118008990C
:100E10008A013B49898A402399431143384A918288
:100E20000C994A00016A0E23994311430162374825
:100E30000B994268120912010A4342600D994268F7
:100E4000090170239A430A434260029841032A48E9
:100E50004038006801225203904308432649403934
:100E600008600E9809684908490001432248403843
:100E700001600398420220484038406824490840F5
:100E800010431D4A403A506004985268520A520278
:100E900002431948403842600198174A4002403ADC
:100EA00092680A400243144840388260124905980B
:100EB00040398968490A490201430F484038816036
:100EC0001098002800D0012080F3108815B0F0BDE4
:100ED00010B5114C2078002808D0FFF790FEFFF7DE
:100EE0003FFE0E4908700020207010BD02F0F2FA9B
:100EF0000120F9E7204EFC0780100040001200405E
:100F0000203000502049FC070035005040200040B0
:100F1000FF01FCFFC0C0C0C04D8DFC074B8DFC071E
:100F200010B5FF22154901320A60BFF34F8FBFF39E
:100F30006F8F13490A6013490B6840241B0A1B0278
:100F400023430B601049898A0021C30700D0352153
:100F5000830702D57D231B021943430702D575235E
:100F60001B041943000702D53D2000060143064833
:100F70002038016301488038026010BD80E100E044
:100F800080E200E008E400E0A010004010B5062078
:100F900000F01AF810BD10B5092000F015F810BDCA
:100FA00010B5812000F010F810BD10B5044800F015
:100FB0000BF810BD10B5034800F006F810BD000096
:100FC000010200000108000000280CD000BF00BF93
:100FD00000BF00BF00BF00BF00BF00BF00BF00BF19
:100FE00000BF401EF0D17047064C0125064E05E0BB
:100FF000E36807CC2B430C3C98471034B442F7D33A
:10100000FFF78AF8F848FC071849FC070148012156
:10101000018070470E1500500A48011F0988CA0751
:1010200006D0028807239A43634BDB78134303807F
:10103000490706D50188072291435F4A92790A43FE
:1010400002807047B8100040B0B505200007018845
:10105000302211430180038803210B430380204B7E
:101060001C886407FCD403889343038003888B4364
:101070000380514CE3894380238A9D1E194B5D8078
:1010800007251D8005881543058005880D430580CB
:101090001D886D07FCD403889343038002888A432C
:1010A00002804289920702D042898A4342810189A3
:1010B00080220A430281018A042291430182818AAB
:1010C0008907FCD541F72DF9E06907490860074811
:1010D0000168490700D500BE01684907FCD5B0BDCD
:1010E0000833005000160050080200401000004075
:1010F00080B50A2000F064F880BD80B50B2000F0B8
:101100005FF880BD80B50C2000F05AF880BD80B536
:101110000D2000F055F880BD80B50E2000F050F88D
:1011200080BD0000FEB500930292019106460124A5
:101130000021204632465EF723F807460D46E44A72
:10114000D06C0840916C3940014300D100BE114B76
:101150000098002806D030461C4600F01DF82346B3
:10116000DB4A08E0D06C2840916C3940014300D143
:1011700000BEB4401C80D06C2840916C39400143C3
:1011800000D100BE029901980143700018184180F7
:10119000FEBDC0460430005010B50446CC49886CF2
:1011A000C96C224662F74BF9C00700D100BE01208E
:1011B000A0400249088010BD488DFC070230005055
:1011C00070B5C0B203460A3B01210A469A4093B269
:1011D0000A4C1C195C406608094B1C880025360423
:1011E00002D06D1C760CFAE79443AAB20D469540E6
:1011F00025431D8081405248016070BDFFFF010002
:101200000E140050F8B5044601273E0205200507DC
:10121000688DC00506D51B2002F032FD4A480188C2
:10122000394301808036288840013040698A474A26
:101230000A4002436A822168134801606168416084
:10124000A1688160E168C1602169016161694161F2
:10125000A1698161E169C16104623E490A68426233
:101260004A6882628A68C2624A690263CA684263E3
:1012700009698163334808210180A88AC00600D427
:10128000FEE700BEF8BDC0460090FC07024800889B
:101290002B481021016070472C130050F8B504460C
:1012A00005200507288A0421014329822889402135
:1012B0000143298122480127076022480821018033
:1012C0003E02688DC00506D51B2002F0D9FC1E48E1
:1012D0000188394301808036288840013040698A7E
:1012E0001A4A0A4002436A8221681948016061680B
:1012F0004160A1688160E168C16021690161616943
:101300004161A1698161E169C161046211490A68B1
:1013100042624A6882628A68C2624A690263CA6833
:10132000426309698163A88AC00600D4FEE700BE53
:10133000688A094908404018001D6882F8BDC04607
:1013400080E200E000330050800000507FFE00008B
:101350005090FC0728ED00E0FC7F000070477047CC
:1013600010B50F4CA1880F200840022806D0042891
:101370000BD00C280CD00128F4D110E020880221D9
:10138000884320802088802106E002F095FCE9E770
:1013900002F092FC2088012188432080E2E710BD02
:1013A0000411005005210807028830239A43028067
:1013B000028803239A430280828812050DD5184AB9
:1013C00013880B40052B08D110880421014311809C
:1013D000108801218843108070478188C90606D58E
:1013E00010498A88D20702D00A88120610D4808851
:1013F000C0060CD50B488188890708D50188C90526
:1014000005D5022181800188074A0A400280704781
:101410000120888008888022904308807047C04659
:101420000002005000010050FFFE000070B5384877
:1014300009210424182322465BF7DCFA05461B2009
:101440002870FD26304662F727F90021A982E9605D
:1014500029616C606E80687028465BF7E6FA70BDA3
:101460001FB51446002202920192069A00921A4673
:10147000234661F73DFF04B010BD0000B0B514482D
:10148000027A1449D4B20C236343CD5CFF2D0AD0F9
:10149000012C02D102220272F4E7521C0272C81817
:1014A000406880470EE0417A0B4ACCB21C2363436C
:1014B000D45CFF2C08D0491C4172D318DB68002B88
:1014C000F3D098470020B0BD002101810120B0BDBC
:1014D000488DFC07B444FC074840FC0770B50C4835
:1014E000092104240A2322465BF784FA05461B20BF
:1014F00028701426304662F7CFF8FF217431298115
:101500006C606E80687028465BF78FFA70BDC046CD
:101510001B0D00001FB5144601220292044A0192DD
:10152000069A00921A46234661F7E2FE04B010BD07
:10153000043FFC0770B5124D2C68002C19D11148DE
:10154000092104222C235BF755FA04462860172052
:1015500020840D4820800026668020460A30112114
:101560005DF7E3FD2685E6846684E683A683202076
:10157000E07620465BF759FA0020286070BDC0462F
:10158000648CFC07040D0000030A000010B5154C24
:10159000206800281CD114480921042252235BF73B
:1015A00029FA02462B2000211154226091720F4823
:1015B000D08090800D201080D172FF2008301081E3
:1015C00010460B300C320C21094B61F7A3FF206849
:1015D0005BF72BFA00202060042002215BF73BFC24
:1015E00010BDC046608CFC070D0D00004C040000CF
:1015F0005448FC07F8B500920D468100104A565831
:101600005418002E0AD101020A310E4804271E2365
:101610003A465BF7EFF9064607702060B71C1021C9
:1016200038465DF782FD38462946009A5DF764FD2D
:101630000120707030465BF7F8F900202060F8BD9B
:10164000988CFC07140E00001FB514460E2202925F
:10165000044A0192069A00921A46234661F748FE10
:1016600004B010BD0C3FFC0710B5014601200A4A2A
:10167000914210D3121D91420DD8029CF231C8B292
:101680008100064A5058002803D0511800220A60F1
:1016900080470020207010BD0E040000808CFC07E5
:1016A0001FB5144607220292044A0192069A00923C
:1016B0001A46234661F71CFE04B010BD983FFC0794
:1016C00070B50C464E4988421FD04E4A90422DD0EC
:1016D0004D49884249D12078401E092862D88000AF
:1016E000B7490818416A4E4A91425FD04848814242
:1016F00000D080E04348042108230A465BF77AF9CA
:10170000217801706168416073E06268002A01D14C
:1017100000BE62683D48824201D300BE6268207804
:101720003849401804215BF7A4FC64E02578681E62
:10173000092839D88000F4490818416A344B994285
:1017400059D1C16C243001606468324801880906AF
:1017500032D53149096809042ED4A4490988C9073A
:101760002AD1A81804212246DDE7531C0121984202
:1017700044D30A32904241D8C01EC0B2411E8900F3
:10178000E14A5218516A002935D0214B994232D092
:10179000234B99422FD01346243300241C60D46479
:1017A000884728E000BE26E000BE24E00146243140
:1017B00000220A60C2641EE0EFF31083012181F36E
:1017C00010880088000603D4144806880E4306805B
:1017D000002B02D081F3108802E0002080F31088F3
:1017E000901E80B2042108230A465BF703F9446087
:1017F00005705BF71AF9049800210170084670BD66
:10180000010400000304000002040000FDFF3F008B
:10181000B73CFC070800005030000040083300507F
:10182000B53CFC07B0B50C460025202D04D041F78F
:1018300066F860556D1CF8E70020B0BD10B5044691
:101840000548064970225DF757FC0548001B05490D
:1018500008801430488010BD70A0FC07D03FFC0702
:10186000B8A0FFFF78A0FC0710B507480188074A19
:101870001368114C23405918116040885168214069
:101880000818506010BDC046183000408CA0FC07FE
:1018900010B507480188074A1368074C23405918B8
:1018A00011604088516821400818506010BDC04642
:1018B0003830004098A0FC070000FFFF07481E21B9
:1018C0004180018803220A430280018804220A43DE
:1018D00002806948012101707047C046001600501F
:1018E0007047000070B514460D4610465BF7C8FA05
:1018F00001282FD1287801020831AA791648002A38
:101900000CD089B2062322465BF774F80646A87805
:1019100060F78CFD3080A879307114E0AA8889B214
:10192000921D93B222465BF765F80646A87860F7E9
:101930007DFD002131713080A8887080701DAA88DB
:10194000E91D5DF7D9FB30465BF76FF800212046B3
:101950005BF781FA002070BD140C0000FD2801D057
:1019600000207047004870474840FC0770477047A8
:1019700010B5044640793F280FD840F7C0FF2070CB
:10198000010EE170010CA170000A607040F7B7FF12
:101990002071000AC0210143617110BD80B5FFF7BD
:1019A000F5FD80BD5849498C0180704780B5564986
:1019B0000A780270401C491C5DF79EFB80BDC04642
:1019C000A48DFC077D21C1800021818010214180F0
:1019D000082101807047000080B561F789FE034847
:1019E0000021C1700248017080BDC04654BAFC0796
:1019F000B4BAFC07FEB57A2402904443EA480719BA
:101A00004E783E773D461435082128460A4661F750
:101A1000A7FC38461C300190102E04D8B81C1022A8
:101A2000314661F79DFC40F76AFFF94B195D0122D1
:101A30000A431A557882029E304600F03BFC019919
:101A400009780177798A418269882A88EB88AC888D
:101A5000048343838282C182B91C801C10225DF7FB
:101A60004BFB304600F026FC5AF7DFFFB000E94997
:101A7000081800214163FEBD488DFC0770B5810048
:101A80000D4A54585518002C10D101020A310B4848
:101A900004221E235AF7AEFF044601260670286072
:101AA000801C074907225DF727FB667020465AF71E
:101AB000BCFF0020286070BD948CFC07140E000051
:101AC000F048FC0780B561F7FBFC002801D0FFF768
:101AD0005DFD80BD10B50C46017801290BD00029B1
:101AE0000ED1428808490A704B1C011DD2B218461B
:101AF0005DF702FB02E0408803494884002000E0D3
:101B00004820207010BDC046A48DFC07F0B585B0FC
:101B10004A78032A15D8C0467A441279520097446D
:101B20000601010C0849019101A9042207E007A25E
:101B300001A90B46F0CAF0C300E0891C1022FFF790
:101B400059FD05B0F0BDC04640E2010000010203AE
:101B50000405060708090A0B0C0D0E0F00208880EB
:101B6000488001200870704780B55FF705FA80BD96
:101B7000F8B56946C870020A8A70020C4A70000EF5
:101B8000087008465FF7E0F98FBD000080B549484E
:101B900000210160FFF704FA444800781F21490141
:101BA000414A13688B43C006800DC018106080BD89
:101BB00080B53F4802210170FFF7E8F980BDC046BB
:101BC000F8B51F460C460878082811D807250021CB
:101BD00000911AA6784400794000874419040F0444
:101BE0000606121518001A4E12E00D25174E0FE0CA
:101BF00000BE002601200090354609E00A2515A602
:101C000006E0082518A603E006250EA600E014A6A7
:101C1000AB1C184839465AF7EDFE07462078387055
:101C20007D700098002804D1B81C31462A465DF723
:101C300063FA38465AF7F9FE0020F8BD52656E6522
:101C400073617300FFEEDDCCBBAA0000F647FC0712
:101C5000E247FC07312E302E302E302D4C4500004F
:101C600001D2008005000100123456FFFE9ABCDE4E
:101C7000000000000314000080B50B4801688905CE
:101C8000C90E0A4A11701F21490102688A43026085
:101C90000748012101700748016803220A430260D6
:101CA000FFF77EF980BDC0464C1200401849FC0782
:101CB00006100040AC10004070B50C78A51E052D34
:101CC00037D81C0A7D442D796D00AF44022132358E
:101CD00043517A206043874A1518887878216854E0
:101CE000C0070DD071350C2060437C490E18314679
:101CF0005531062228465DF7FFF95420305CA87163
:101D00000C206043754908185B210022425449E0C9
:101D10007A206043774908187821002242540C2029
:101D200060436E4908185B214254204661F728FC45
:101D300038E001F0E1FF35E07A2565436D4C60192C
:101D40003A30891C17225DF7D7F9605D0421014301
:101D5000615527E07A256543664E70196130891C0C
:101D6000102422465DF7C8F9705D2043705519E0D4
:101D70007A2060435F4A14188B1C488A002808D0D8
:101D800020461E301C2219465DF7B6F92078022144
:101D900006E0A01C1C2219465DF7AEF9207801214F
:101DA00001432170002070BD9C8CFC0780B50A782F
:101DB000072A24D8180A920001A39A589746C046C9
:101DC000E11DFC07FF1DFC07FF1DFC07FF1DFC07B5
:101DD000031EFC070D1EFC070D1EFC07091EFC0759
:101DE0007A214143434A002353540C214143F94A89
:101DF00051185B2201238B54FFF740FE06E000BE22
:101E000004E0FFF783FE01E0FFF7F4FD002080BD52
:101E10009C8CFC07488DFC0710B50C78012C03D076
:101E2000092C09D04C7802E04C78432C02D0002CCD
:101E300000D000BE01F060FF002010BDF8B51C46C8
:101E400010460D465BF71CF802282DD1240A00D05D
:101E500000BE0C206043F7490F1852203C54FF2C61
:101E60001ED03E46503601200090F0700420032121
:101E70005AF7F1FF288850217852687A3071553727
:101E80000A350622384629465DF736F97A2060433E
:101E9000184908187821415C2046009A61F724FB14
:101EA000204601F03BFF00E000BE0020F8BDC04628
:101EB00010B51C4610465AF7E3FF03280AD1200A42
:101EC0000C214143F84840185221FF22425201F0B0
:101ED0004FFF00E000BE002010BDC046488DFC074B
:101EE000180A7A22424303488018097878228154DC
:101EF000002070479C8CFC0700207047F0B589B02B
:101F00001D4614460878022827D0012835D000281D
:101F100040D12348067800211F2E009101D82020AF
:101F2000811B01AFB8195DF700F91D48411C384607
:101F300032465DF7E1F833460A331848294622460F
:101F40005AF758FD0446468000982070201D3946F7
:101F500032465DF7D1F820461AE010480A23294698
:101F600022465AF747FD7D2101810021C1801021C1
:101F7000818008214180022109E00948468C0748F8
:101F80000A23294622465AF735FD46800121017071
:101F90005AF74BFD002009B0F0BDC0460B0E000003
:101FA000A48DFC070020704770B50C78172C14D84E
:101FB0000125A5400D4E354201D0002070BD012CF9
:101FC00006D0032C09D14878002809D000BEF4E7D8
:101FD0004878002807D000BEEFE701F08DFEECE75F
:101FE000FFF770FDE9E7FFF7A5FAE6E700F08E00DE
:101FF00010B510465AF744FF002801D000BE09E092
:10200000054809210422012423465AF7F3FC0470F1
:102010005AF70BFD002010BD020D00000020704794
:1020200000207047F0B589B0039316460C46FD209A
:102030005FF7DEF80290002800D100BE08A9002753
:102040000F70208860F700FA05466088002800D0ED
:1020500000BE002D78D1FD20FFF780FC002800D1C4
:1020600000BE0399090A009108A90A781421514376
:1020700043685D182D79022D24D159580988394BB0
:1020800099421FD1002005900490208860F777F9CD
:10209000002800D100BE07A9002204AB4EF764FF60
:1020A0000120400207990140480A214660F752F991
:1020B000C5B2002D29D1E28808A80178009860F700
:1020C00024FB22E001968669002E3D4606D0A588B5
:1020D0006188A31D10462A46B04705460597049718
:1020E000208804A94EF7BBFC002D019E0DD10820CD
:1020F0000499085E002807D46288A1882088A31D5F
:102100004EF717FD054600E00025002D1CD1029872
:10211000009F39465FF78AF80146A088801D83B288
:10212000114832465AF766FC0546801DA288A11D5B
:102130005CF7E2FF08A800786880A088A8802F706C
:1021400028465AF772FC00250848042303993246B2
:102150005AF750FC8570218801805AF766FC0020F0
:1021600009B0F0BD022900000AFD0000160C0000B5
:1021700070B5EFF31085012484F31088052006075D
:10218000708DC00509D55648847001F06FFD124965
:102190000870124800882040487030888021014330
:1021A00031800F4801680722914301604168490767
:1021B000FCD53188090600D400BE0A4901610A49EC
:1021C0004161002D02D084F3108870BD002080F39F
:1021D000108870BD488DFC07304EFC078000005011
:1021E0000000F4070F009909090404A4F8B51C4F76
:1021F000BC68204600F036F8394D696A00226A62F0
:102200000E180D4930465CF7FDFE78610B494143DD
:10221000881902D00849081A80B238613868082144
:1022200001433960286A002802D0A04200D200BED3
:10223000F8BDC046488DFC07710200008FFDFFFF0E
:1022400080B506480021016001F0D8FC0120C007DC
:1022500003490A6882430A6080BDC046A8B9FC07EA
:102260003000004080B50246C00B09D01C48006B0E
:1022700000210B465CF7F0FE8905800A401880BDFE
:102280001748006B4243900A80BDC04680B5FFF7F7
:10229000E9FF80BD80B51249896A414303480818A7
:1022A00003495CF7AFFE80BD488DFC0720A1070005
:1022B00040420F0010B501468000094A1418606BB7
:1022C000002800D010BD343409020A310548042228
:1022D0001E235AF78FFBFF2108310180206010BDBB
:1022E000488DFC07140E000000B59FB0DF48C821E0
:1022F0001A91018000254580DD4808211291018056
:102300001C95DC4C1C98002812DC00201E901E9AA4
:102310001C990B2A09DC30224A43A1181E9A92000C
:1023200088501E99491C1E91F1E7481C1C90E9E752
:10233000E3681195EA430120002B074600D01746B9
:10234000FD00CD498E6C2E43CD6C8E6419977E0FA7
:10235000002B174600D11F46FB009B192B43CB6473
:102360002369002B0E4600D01046050F002B119F4D
:1023700000D11A4612015219F36C1343B26CF36484
:1023800003011343B364F764B7641999E1602061F2
:102390001C971C98002835DC00201E901E980B28E6
:1023A0002CDC1E981C990B2828D830201C994143FE
:1023B00061181E9A92008958491C00D100BE1C99D0
:1023C000414361181E9A92008958002913D01C9924
:1023D000484320181E9989004058C1171E9A5CF77F
:1023E000CFFE1C9A12015CF7CBFEF26C0A43B16C73
:1023F000F2640143B1641E98401CCEE71C98401C57
:102400001C90C6E79D4D28881BAC20802088C046C4
:10241000C04620880422D1430842199201D02F805F
:1024200003E0A88901218843A881129B2F46A88B2D
:102430009349014007201890C0020818A883914EC4
:10244000308818433080F08D06229043F0850125B6
:10245000A803B98B0143B98330888B49014031808F
:1024600070880C9210439843708005200F900407E9
:10247000618D0F2000900202F08D90437D22D200EA
:10248000C9058249824B09921AD4032149020843A3
:10249000F085581CF18D0143F185B88B1299884362
:1024A000B883B88B04218843B88370887949014088
:1024B0007180F08D2843F085608D4007FCD518E0D1
:1024C0000B46114618310843F085F08D1840E9039A
:1024D0004018F085B88B12990843B883B88B1999C6
:1024E0008843B883F08DA843F085B88B402188439A
:1024F000B88328021490B88B032103910843B88352
:1025000030882021084340221592D2431040308069
:10251000388C1691084310403884E08A80210D9150
:1025200008431040E082208EFF2188432086208FC0
:10253000199E304318210B9188432087208FA021BA
:10254000014310921140218753480680A0885349C7
:102550000140A180280452490860FFF709FE514F4D
:102560003868189908401CA908700878022820D0FB
:102570001795608D149908420F9D12D001F076FBDB
:102580000A2802D80B2001F07BFB3E48C08DC00713
:1025900007D13C49C88D179A1043C885608D400704
:1025A000FCD5386802210143A943396078684007A7
:1025B000FCD53D480068C1B20C20AA29014600D0D4
:1025C00031462288824388182080C046C04637485A
:1025D0000068374909886826364B119A9A53264D68
:1025E000A987A86301201790C046C046324A101F31
:1025F00000683249884200D02CE113960098050704
:10260000042000210E911646199507463118081F1F
:102610003246EC32904200D320E100681E901E9BAF
:102620002B40092005071E9AAB425CD11E9B1D0A58
:10263000EEB2D2B2921F112A00D9EBE05200C0468E
:102640007A449288520097443B008900E500E500F7
:10265000E500E500E500E500E500E500E5009D009A
:10266000B100C500D200E500D800DD000031005007
:1026700002330050188DFC07488DFC0704030050FE
:10268000FFC3000052000050FFBF0000FF0F00001A
:10269000FFEF0000FFF9000000020050FFF700000C
:1026A00080E200E00000F407D07FF807D47FF8074D
:1026B000D87FF807C48BFC07D47EF807A5A5A5A58D
:1026C000AC4A1398105CC0001018B2005CF714FDFF
:1026D0001399A84A505C40195054C0B2052800D242
:1026E00098E000BE96E0900F0FD01E98A249884255
:1026F0000BD838460830214628311E9A8A4223D109
:10270000B9599E4A1180199D7FE71E98199D28404E
:1027100018990907884203D10020C046C04611E03D
:102720001E9828401799C90788420BD01E98284048
:102730000F994907884205D01E98284003994907F8
:10274000884277D1381D60E7A11C1E9A8A4267D162
:10275000B9596622874B9952199D56E769220A9208
:10276000844B985CC00018181030B2005CF7C4FCB1
:102770000A99804A505C40195054C0B20D2849D380
:1027800000BE47E07E4AB9584843BA58120C801A36
:1027900000B2C008774B4033D88288B2101A810843
:1027A000784A11400818401C988233E0744AB9589E
:1027B0004843BA58120C801A00B2C0086D4B40331F
:1027C000588388B2101A81086E4A11400818401CBC
:1027D00018831FE00E9DA8001CAA1018B2005CF719
:1027E0008BFC7519032D0E9514D300BE12E06448BE
:1027F000385862215F4A50520CE0614838585D49B0
:10280000086507E05E48385864215A4A505200046F
:1028100000D100BEB0003818001D594E199DF4E6D5
:10282000214624311E9A8A42199D09D1B959534A29
:102830005180EAE61E98401C10D000BE3846E4E6FF
:10284000214620311E9A8A4200D0DEE6B9594B4A11
:102850009180DAE6662047490E5A39E0454E304607
:1028600040301C99818309211D9A5143130CC91AC8
:1028700009B2C908018491B2591A8A08414B1A4019
:102880005118491CC183139AB05CC10701D000BE26
:10289000B05C4008B0546920315CCA073A4D3B4FE8
:1028A00001D000BE315C490831546420315A0029FE
:1028B00001D1099931526620365A002E08D1344987
:1028C0000968C9B2AA290D9E00D06E2629490E5268
:1028D000EE81A08C179DA843A0840D20FEF774FB09
:1028E00060892843022113918843608160894006F2
:1028F000FCD566800998FEF767FB608903998843D9
:10290000608160890006FCD57F201F4A50702048F6
:10291000806920498860EFF31086179880F310884B
:1029200020880D99084320803868189988433860BA
:1029300078684007FCD518483861184878612088C5
:102940000D9988432080608D14990842179F0CD000
:10295000119890700F4D287801F092F9104968781D
:10296000002802D1C88DB843C885002E1AD087F33D
:1029700010881AE0C48BFC074C420050A000FC07F2
:10298000D47EF807FF3F0000488DFC070000F407E5
:10299000D07FF807304EFC070F009909090404A402
:1029A00052000050002080F31088119B0F9EEF48CA
:1029B0000068EF49884200D0C4E0EE48EE495CF779
:1029C000B4FB18980102ED485CF7AFFBFEF7B6F8D0
:1029D000EB48EC490160EC48EC49302202925CF78C
:1029E0008BFBEB480027C771877147710771C77070
:1029F000877047703F210E910170E648E6A1159A55
:102A00005CF77AFBF4480770F448F5490160F54833
:102A1000F5490160F549F6480860F6480A21017059
:102A2000F5480770F54832210F910170F4480660AF
:102A3000F448179D0560F4480660F4480C9901605D
:102A4000F34818990160F348129E0660280201902D
:102A5000801DF1490860F1490860F148C5490160ED
:102A600000F032FC208902998843208120890D9949
:102A700008432081208930432081208CA843208472
:102A800060890B99884360812089159908432081CA
:102A9000208A042188432082A08A8007FCD5E08C0C
:102AA000E04908400B2109020143E184E08C179EB4
:102AB0003043E084608912990843102111918843C2
:102AC0006081608CB043608420891599884320819F
:102AD000D5483730B5072968014029600E98400273
:102AE000D24A11688143700308181060D048401C16
:102AF0001168014311609D4800689D4988420C950A
:102B00003CD0C7480068C9498860CA4A90681071BB
:102B1000010ED171010C9171000A50710198C03001
:102B2000C54A002818D0401EC349435C1678354674
:102B300003990D40BF494D192D795D4075401570C1
:102B4000521CEEE7BD48BC497202934200D934E7FB
:102B50001A585A501B1DF7E7B64D1C35B6491C22B2
:102B600028465EF75DFA002800D000BE28465EF7D2
:102B7000EBF97E487E490160179E0C9DA8480068CD
:102B80003FF768FBAE480771C77028680199084392
:102B90002860FEF793FE304600F064FCA848C7703A
:102BA000A8480770A848076547658765A74E0C22A7
:102BB0003270701CA6495CF79FFA77840426A549F9
:102BC00030465AF716F91996304639465AF743F9FE
:102BD000FEF702FFFFF734FB0520FEF7A1F99E4840
:102BE0001A9901809D48129901809749C86C886C98
:102BF000C00600D400BE9A4911980880179948026F
:102C000008900E9880020A90C8031890954896493B
:102C10000818964940188008401E0B90208900062D
:102C200000D4BBE1286B1899084200D0B6E1844873
:102C30000088C00700D0B1E15AF7DFFB002630461C
:102C400000F010FC80480079042800D0A6E1179815
:102C500000F008FC1C961CA804210E914AF76EFF98
:102C6000002800D19AE11798814908600868002877
:102C7000FCD1E869744B5969884201D25E613146E2
:102C8000411ACA095979182A02D8002900D185E1C8
:102C9000002906D06C498869401C886100F090FDCD
:102CA0007CE1744A118807915188069191880591B9
:102CB000D188049116801646089910315180159AD2
:102CC000B2805C216C4B595AB1815F494861B0892F
:102CD00010430299C9430840B08168480260BFF3BD
:102CE0004F8FBFF36F8F308810433080F0881043D0
:102CF0000840F08030880E9988433080B088C0B298
:102D0000B080F08870210140402900D0C2E06220EC
:102D1000185A00285A4900D001464648418059486F
:102D2000401C544E3188014331801920FEF74CF984
:102D30003088089B184330803088159908433080CC
:102D400070880E990843708070884F4908407080E1
:102D50000098400271880143718070884B49084097
:102D600014998031014371804948A7E09CB8FC0761
:102D70006587341200A0FC07AC14000000B9FC0702
:102D800060BAFC078C44FC0700BAFC077CFCF10726
:102D9000DAB9FC07B0BCFC072000800000C00000CE
:102DA0000000840000002822000000000000040051
:102DB00000F7FFFF7F00000030F0FF0F0000000071
:102DC00000040000000000000000000000000000FF
:102DD0000000000000000000FDB9FC0750B9FC072E
:102DE000603FF20754B9FC071046FC0758B9FC07CE
:102DF0000445FC07B0B9FC07B1B9FC07D9B9FC0719
:102E00005CB9FC0760B9FC0764B9FC0768B9FC074A
:102E10006CB9FC0770B9FC0748B9FC0744B9FC075A
:102E20004CB9FC07FFF00000C8FEFFFF00020040A5
:102E3000FFFF1F00304EFC07188EFC0700B0FC0798
:102E400054BAFC07B4BAFC07488DFC07A48DFC07F4
:102E50005448FC07F43EFC07003100500233005098
:102E6000023000500C4800001001FC07030004F879
:102E7000FC00004000150050C48BFC0780E100E01E
:102E800040760000FF0F0000FF1F00003FFE000023
:102E9000FCFF00003088E749084030807088F24924
:102EA000084070807088039988437080EB4A104610
:102EB00040383188014031801046089BE8494988F4
:102EC0000140E7484180E648008817990843E449F3
:102ED000088009981730E24909890140D24A518196
:102EE000DF49498901409181DD4800890A990840FC
:102EF0001843DB4A1081DA48408908401843D84912
:102F00004881D748008813990843D54E30803088CF
:102F10008007FCD41798F081308A0E90C749498801
:102F2000C14A528933890A98034013433381BE4A08
:102F3000928973890340134373810E98401A09994B
:102F40004143002804DCC94A8918C017084001E041
:102F5000C7480818C7495CF76BF882091932B24EA6
:102F600070787F2810D0101A41B2C9114840401A19
:102F700040B20828BA4809DBFA4EB069401CB0617B
:102F80000E9200F01DFC0E9A7270B54806994180B1
:102F9000059981800499C1800799018072B6AC4877
:102FA00000790228384602D0A5480068806A1C9043
:102FB0009C48C088C00700D02CE159F7EAFA199A5A
:102FC000002800D126E1A248C078002836D0A08A87
:102FD000C00700D091E09E48008800282ED1A64866
:102FE000806A002803D096480068806A1C9000F030
:102FF00005FE974881781CA85AF7C3F800281DD011
:10300000286940061AD4924881781CA84AF796FD90
:10301000002813D00A98FF308F4AD18E01401498AF
:103020000143D1861C9A002A0AD0286A8549401893
:10303000DA28854E06D8521E1C9203E030BFE9E024
:103040000022814EC748008AC74BD968081818610A
:10305000E86B8A4B18400843E863E86B88490840EE
:10306000C14B596989020143E963E86B774908401C
:10307000196949050818E8638248824200D300BEF6
:10308000B849086C496C00235BF7E6FF0903000DA3
:103090004118B5484069821C8A4200D0481EB14997
:1030A00008626B4909794A1E914146F75DFC7648F2
:1030B000C06A80471899286B0842FCD00199306893
:1030C0000842FCD030680D9988433060554800892B
:1030D000452805D84621534A1181081AF549486206
:1030E0003FF7F3F8B068F349C86130680006FCD5D3
:1030F00020890D9988432081199A56480178208AA1
:1031000010432082574B18681043186047481346F5
:1031100002460089179EB0431081608A012903D1BD
:103120001199884360822FE03D46119F38436082A9
:10313000608A18436082FFF71BF8608A3843608218
:103140003D480B990162EFF3108086F310882188C7
:103150000D9A91432180002802D086F3108802E066
:10316000002080F31088608D149908422F460C9D32
:103170000AD00020CF4988700B2000F081FD2C4937
:10318000C88D179A1043C88500202083608D14993C
:10319000084206D126490888159A1043169A90438A
:1031A00008802249088C159A1043169A9043088487
:1031B000A08C179EB043A0840D20FDF705FF608909
:1031C000304313998843608160894006FCD50F988D
:1031D0006080A08AC00603D51248801E1299018023
:1031E00030BFA08AC006124A02D50E48129901804B
:1031F0001088169B1843109E304010800B49088C95
:1032000018433040088400F05FF8164A1068199996
:103210008843106062B602481A990180FEE4C046F5
:103220000031005002330050488DFC070403005069
:1032300052000050FFEF00000000F407304EFC0782
:1032400058B9FC07C8FEFFFF00020040FFFF1F0047
:1032500054BAFC07B4BAFC07023000503FFE00002D
:103260000015005010ED00E0FFE100002BFDFFFF16
:10327000D5020000AA05000074BEFC0700FCFFFF99
:10328000FF03E0FF40420F0058BFFC0710B5692163
:103290000C48415C103000228A4204D218C81C60DD
:1032A0000030521CF8E710BD10B568210548415C9C
:1032B00000228A4204D218C81C600030521CF8E771
:1032C00010BDC046C48BFC07F8B5244C2088C0054F
:1032D000234D1AD523488078012803D100F0C6FC7D
:1032E0001B2812D8208DC00400D4A88AFF201C30CF
:1032F0001D4908801B2000F0C3FC1C4801880122E6
:103300000A43028020884007FCD5194819A11822D9
:103310005BF7F2FE1DA020491CC81CC1FDF707FC8D
:103320001E481F490160032739020091042500242B
:103330001C4E284622462346B0470A22012638461C
:1033400021463346174CA0470922284600993346A8
:10335000A0470349088830430880F8BD2A00005080
:103360000C030050488DFC07304EFC0780000050D5
:1033700020000840F99DF00700000000E3A1F107DC
:10338000000000004FA4F107000000005D05FC07ED
:103390008B08FC079B09FC07C000FC0700000840E5
:1033A000070010002511FC070549884200D000BE27
:1033B00004480188044A11408918091D018070479A
:1033C0001111111112000050FC7F0000F8B50446E5
:1033D0000026234F302E0FD0BD19E88AFD2801D1D9
:1033E000064969605DF78AFF002803D08268284695
:1033F000214690471836EDE7F8BDC0460444FC0767
:10340000B0B50025164C002815D0012D27D8E08A2C
:103410005DF774FF002802D04168204688470020ED
:10342000E0816060A060FF20E082207D59F73BFDD5
:1034300018346D1CE9E7012D11D8FF20E08200202F
:1034400020606060A060E060206128461030C0B25B
:10345000A082214659F7CDFC18346D1CEBE7B0BDB6
:10346000308CFC07B0B5D04D2978012921D1124903
:10347000002803D008884007FCD402E008884007F1
:1034800017D400232B70C8888988000444181F2093
:103490004006492122465FF7E3FF286469646421FE
:1034A0004143080CA86205486043800B401C40085B
:1034B0002863B0BD488DFC070016005011110100B3
:1034C00010B5F24C082020701120FDF77DFD03207F
:1034D000607010BDFEB5624803250570614C204642
:1034E0001438016814220A436B218A430260A06ADF
:1034F0005D4988610020C043A06220683F21884365
:103500002060206859490840206060685849084098
:103510000121019189020291401860606068402198
:103520000143302081436160A069524908400B216A
:1035300049064018A061A0694F4908406902401837
:10354000A061A0691821014327208143A161432084
:1035500020714A4880474A4880474A488047404847
:1035600005700095484806684848804748488047A5
:10357000206848490840F105401820603B4E40361D
:1035800020683040490C401820604127277160684E
:1035900037490840029940186060384880473848E9
:1035A0008047384880472E480570374805683748B7
:1035B000804737488047206836490840E905401869
:1035C000206020683040490C4018206027716068F6
:1035D00027490840029940186060284880472848D9
:1035E0008047284880471E48009901702648006897
:1035F0002168284A1140C20589182160216831409C
:10360000254D0540A801081820606068019988438D
:103610006060154EB069A06220681C210143232020
:10362000814321602068114908402060A069114948
:103630000840072189064018A061A0690E4908408A
:103640000F21C9014018A061A0691E21014321205A
:103650008143A1610D4880470D488047F586FEBD36
:103660000510004018300040304EFC07FF7FFFFF80
:10367000FFF9FFFFFFFFFFC03FF0FFFFB11BFC079B
:10368000791CFC07AB0FFC07883000408D1BFC0742
:10369000970FFC07FFFF7F00FF010000704700004D
:1036A000F0B58BB03022002181541F221204344B1C
:1036B0001D68954301246204AA181A60324B334DE9
:1036C0004561334D334E344F344AC2610662436222
:1036D0002C4A8262C562324A07604260E004C74AEF
:1036E000136883431360282903D001A84154491C5F
:1036F000F9E72C480068403001A928225BF7FCFC60
:10370000C24DEC71FFF7DCFEFFF7CEFDFFF7BEFD0B
:1037100000F07EF900F0D8FA00F06AF8FFF7DAFE60
:103720006C712248008807210140A971FDF7D0FB88
:10373000FEF79AF8FEF7ACF81D490B881D4804689F
:103740001D4A1440E31803601C4B1C888569154012
:103750002C1984615B88C4691440E318C3614B8AE7
:10376000046A1440E3180362898A436A13405918B3
:103770004162A44802218170002101800BB0F0BD9C
:1037800074000040ED37FC07E937FC07D538FC072B
:10379000B938FC075D13FC079138FC079338FC0728
:1037A0009D36FC074CB9FC07488DFC07B81000405B
:1037B0001030004088A0FC070000FFFF643000408C
:1037C00080B5FFF77DFEFFF761FD00F021F900F005
:1037D0007BFAFDF77DFBFEF747F88A4802218170EE
:1037E0000021018080BDC046002070477047000066
:1037F0000E4908880E4A024001204302D2180A806E
:1038000041057E4A13688B431360810700224A6793
:103810001F2212044B6F934340041818486708682E
:10382000E0220243102082430A6070473830005083
:10383000FFFC000080B51F20000401218A07536FA0
:1038400083434804181850671068072188431060A4
:103850000D48018808220A430280FFF731FEFFF776
:1038600023FDFFF713FD00F0D3F800F02DFAFFF76A
:10387000BFFFFEF70DF8634802218170002101802F
:103880000520FDF74DFB80BD0800005004100040EE
:10389000704780B5E62800D3E620282800D82820E5
:1038A000F9214A0042437D20C10010465BF7AAFB84
:1038B0007F38C0B280BD00000548016807220A4376
:1038C0000260012080044D490A6882430A60704703
:1038D00030000040022902D0012900D000BE00289B
:1038E00002D0FF2804D000BE022901D10C2070476D
:1038F000D848C079002800D009207047F8B53F4863
:103900000168C90703D0016802220A43026001244A
:103910000168490203D5A10502680A430260270233
:10392000650237490095084608380668002E63D0BE
:10393000300606D58020086049F7A9FFFDF7BEFFD5
:103940002F49B00704D50220086045F79EFE2C4998
:10395000300714D508200860FDF7ACF83D4627462F
:103960000024204645F74AFE25490420B94A107133
:103970000220244A907014803C462F46009D3E420F
:1039800004D00F60012045F739FE1D492E4203D0B7
:103990000D6049F7E5FF1A49700604D5402008601C
:1039A00045F727FE1649F00604D51020086044F7B5
:1039B000E3F9134970070FD50420086012490888FD
:1039C000A043088059F780FD3EF73AFEFDF776FFE9
:1039D0000B490020ED4A1071F00707D00C6059F731
:1039E0008FFD49F754FF0649E8480471B0069AD59F
:1039F0002020086000BE96E7F8BDC04600020040E7
:103A0000180000400410004008330050488DFC07A7
:103A1000FCB57F2000025A4A516981430B20000205
:103A200008185061106880B25649401810609069BB
:103A3000554C044001235803009020189061032046
:103A400001900002146B04431463908F102404430C
:103A50009487908818439080A4484C4A02604C4A4E
:103A6000104610384B4CA58B054015204301E81833
:103A70005030A0836069484D05404848281860616F
:103A8000A069474D0540092040022818A061206820
:103A9000444D05404448281820606068434D054067
:103AA000434828186060A068424D054042482818E5
:103AB000A060E068414D054041482818E060B348E7
:103AC000C079002802D1C120400100E03D483E4DB0
:103AD0002860052080023D4F3880401DB880388C1A
:103AE00055260643AA2086433E84FF266C36304680
:103AF000C9303885364908460E30B885354838868D
:103B0000B986C01D388734482085A06B33490140F1
:103B100033480818A063334C2680208F10401F467E
:103B20002037C01920873048018811408919D531C4
:103B3000018081881140C918818001891140C9190B
:103B400001812136A680294801881140C9186031B9
:103B50000180818A19220A4306218A438282A88F22
:103B60002349014000980818A88722480168019A53
:103B700011430422914301601F486866FCBDC046A2
:103B80002030004000008888FF00FEFF59055C07D8
:103B90001FFCFFFF042000400000E0FF09581A004E
:103BA000FEE1FFFFE0E000000809294900000303EF
:103BB000696A686C031FFFFF70600000E0E0E0E0EE
:103BC0000B0A0A08201800090010004028130040C2
:103BD000260A000051080000070F00002F64E0FED5
:103BE000101A0601001200404412004088120040E2
:103BF000FF9F00008010004050015001F8B5642084
:103C000013490E5A614FBC6A30466043124940184E
:103C100012495BF7F7F9054638823C3666430E4891
:103C200030180E495BF7EEF9001D0D49C8602818E1
:103C3000C01D48610B4A1278022A01D11130486137
:103C4000FEF710FB0849401880B259F767FCF8BD31
:103C5000C48BFC07488DFC0720A1070040420F00E1
:103C6000304EFC07B4BAFC07E20400000E4801889D
:103C7000890918220A4000888004400F8018704784
:103C800010B51F21490282010A4007490B88074CE1
:103C90001C4014430C800A88054B13404007800CDD
:103CA0001818088010BDC04654000050FFF90000ED
:103CB000FFC7000070477047024801880122914306
:103CC000018070470411005018B508480168009140
:103CD0000099074A009B1A40FF2424040C40D9B2E3
:103CE0000919044BC9181143016018BD8000004038
:103CF00000FF00FF0A000A00B0B50C4606498842E2
:103D000009D1481C022519462B4658F773FEA18895
:103D1000018058F78AFEB0BD0D0C0000F8B50446CE
:103D20000C206043194D28185221405CFF280ED00A
:103D300000260D4F1C207043395CFF2909D038182C
:103D40000169002901D020468847761CF2E7FDF77B
:103D50001DFCE86CA86CC00600D400BE034810210E
:103D60000180FDF739FEF8BD4840FC0702300050E5
:103D700080B5FDF70BFC0548C16C806CC00600D413
:103D800000BE03481021018080BDC046488DFC075D
:103D90000430005002E008C8121F08C1002AFAD1FE
:103DA00070477047002001E001C1121F002AFBD1BB
:103DB000704700001A4988880722904388800520B0
:103DC00000078A89D2070DD0098800290AD1154930
:103DD0000A8802854A88828489880184418A124A35
:103DE0000A404282114906220A800121CA03104B6F
:103DF0001A60BFF34F8FBFF36F8F02221A60BFF3B9
:103E00004F8FBFF36F8F1960BFF34F8FBFF36F8F6B
:103E100041890422914341810021018062B67047AB
:103E200004030050A000FC077FFE00000034005097
:103E300080E100E017B967984C664C01963331B1C8
:103E4000915900152368EC521E6244749A1BD18B61
:103E5000AB75B66E9EE7BA08B9A948ABA1AC031C16
:103E60002E0D296C20EE8D0CE1F04A0CB325DC53AD
:103E70006A68862D28D5E1C1E1C54729B55765C3D4
:103E8000BA47159E4F43313C939242E6A876FA3BDF
:103E9000EFB4875A8C09E0D1815442408E4FD2B39F
:103EA00077E32A7720EE8D0CE1F04A0CB325DC5342
:103EB0006A68862C4F43313C939242E6A876FA3BDF
:103EC000EFB4875917B967984C664C01963331B1F6
:103ED000915900142368EC521E6244749A1BD18BD2
:103EE000AB75B66D28D5E1C1E1C54729B55765C3A6
:103EF000BA47159D00000000583FF207688CFC0788
:103F00000400010002140000C11BFC07010D0000A9
:103F1000F11FFC07000D0000A91FFC07000E0000A8
:103F2000191EFC07010E00003D1EFC07030E0000D9
:103F3000B11EFC070A0E0000FD1EFC070C0E00005F
:103F40008531F2071C0D0000C731F207100D00008B
:103F50008530F2070F0E0000F931F2072C0E000039
:103F60003932F207120C00005332F207080E00003B
:103F70006F32F2071B0E00009F30F2074916FC0754
:103F8000C116FC076916FC07A116FC071515FC07EE
:103F90006114FC07F8000000130E0000AD1DFC07C3
:103FA000150E0000B91CFC07170E0000F91EFC07D7
:103FB000190E0000E11EFC07150D0000A51FFC07EF
:103FC000210D00002120FC07220D00001D20FC0710
:103FD000080004900000000000000000030005D06D
:103FE0008B0035F010005CF0000010B0000018B03D
:103FF00000001AB0030051F0000038B000003AB0E1
:10400000000064B0000066B0000022B0000024B0E0
:10401000010005D0000000000A00008008030490A1
:10402000000004F0030006D0000000000A00008039
:1040300008030490000004F0030006D00000000014
:104040000328002802290129FD0000008040FC0708
:104050002D0000002D14FC070000000000000000EF
:1040600000000000FF000000000000000000000051
:104070000000000000000000000000000000000040
:104080004240FC071000000001000000100010007A
:104090005944FC074040FC070200000001000000FA
:1040A0000000000000000000643EFC07100000005B
:1040B0000800020001000000000000004640FC076C
:1040C00002000000010000000D000D004448FC0744
:1040D0004040FC070200000001000000000000005A
:1040E00000000000843EFC07100000000880000073
:1040F00001800000000000004640FC0702000000B4
:1041000001000000090009002248FC074040FC07AC
:10411000020000000100000000000000000000009C
:10412000343EFC0710000000010200000200000005
:10413000000000004440FC070200000009000200EB
:1041400002000000000000004640FC0702000000E2
:10415000010000000B000B00D647FC074040FC07A5
:10416000020000000100000000000000000000004C
:10417000443EFC07100000000100000002000000A7
:10418000000000004640FC070200000001000000A3
:104190000B000B00EA47FC074040FC070200000050
:1041A000010000000000000000000000543EFC0779
:1041B00010000000010200000100000000000000EB
:1041C0004440FC0702000000090002000200000059
:1041D000000000004640FC07020000000100000053
:1041E0000C000C002C48FC074040FC0702000000BB
:1041F000010000000000000000000000743EFC0709
:104200001000000041000000140000000000000049
:104210004440FC0702000000090002000200000008
:10422000000000004640FC07020000000100000002
:104230000C000C000448FC074040FC070200000092
:10424000010000000000000000000000943EFC0798
:10425000100000000902020032000000000000000F
:104260004440FC07020000000900020002000000B8
:10427000000000004640FC070200000001000000B2
:104280000A000A003948FC074240FC071000000001
:1042900001000000100010006944FC074040FC07CA
:1042A000020000000100000000000000000000000B
:1042B000A43EFC071000000008000200018000007E
:1042C000000000004640FC07020000000100000062
:1042D000080008001948FC074040FC0702000000E5
:1042E000010000000000000000000000B43EFC07D8
:1042F0001000000008800000010000000000000025
:104300004640FC07020000000100000011001100FF
:10431000B347FC074240FC0710000000010000000A
:10432000100010007944FC074040FC070200000028
:10433000010000000000000000000000C43EFC0777
:104340001000000001020000020000000000000058
:104350004440FC07020000000900020002000000C7
:10436000000000004640FC070200000001000000C1
:1043700010001000C547FC074040FC070200000089
:10438000010000000000000000000000D43EFC0717
:10439000100000000100000002000000000000000A
:1043A0004640FC0702000000010000000700070073
:1043B0001148FC074040FC0702000000010000001B
:1043C0000000000000000000E43EFC0710000000B8
:1043D0004100000002000000000000004440FC0713
:1043E00002000000090002000200000000000000BE
:1043F0004640FC070200000001000000120012000D
:10440000A047FC070C44FC0709000000130C000047
:104410004B29F207150C00002520FC07170C0000A3
:10442000572BF207000C00002328F20706FD0000BE
:104430005728F20703FD00003728F20708FD0000A7
:10444000B328F2070EFD00000F29F20705FD00005A
:10445000E518FC07001A212D03595A08E4862A9E04
:104460008FE911BC7C98434218595A08E4862A9E69
:104470008FE911BC7C7C464218595A08E4862A9E72
:1044800008E911BC7CD0474218000000010000017F
:10449000050AFC0701000002F50AFC070000000005
:1044A00000000000F4011700F4352348D00706404F
:1044B0006432000014000000DD14FC07000000005E
:1044C000FF000000000000000000000014000000D9
:1044D000ED14F207FD0000002126F207FF000000A6
:1044E000000000003515FC077D14FC076448FC073C
:1044F000F93CFC077C3FFC07988DFC079C8CFC0773
:10450000698CFC07050000008855FC0700040000CA
:104510002492FC07AC020000188EFC070004000087
:10452000DC94FC07700500002003000000A60E00CC
:1045300004000000D2000000320000003C00000037
:104540000100000001000000020000000200000065
:10455000040000000300000006000000000000004E
:104560000200000002000000000000000000000047
:10457000030000000300000005000000050000002B
:10458000060000000A0000000A000000C800000049
:10459000B80B000002000000B80B0000B80B0000D0
:1045A00010000000D4010000CC01000070020000E7
:1045B0006A0000000400000001000000200000006C
:1045C0000A00000001000000E20400008A0200006E
:1045D000DC050000AF0000008C47FC07F045FC073D
:1045E0000046FC079447FC07E444FC070000000079
:1045F000A8B8FC07A0B8FC07B8B8FC07F8B8FC07D7
:104600005444FC075844FC078040FC075D19FC0734
:10461000A136FC073538FC0793DEF007F1DEF00722
:10462000F9DEF00749DFF00761DFF00777DFF00719
:1046300099DFF00719E3F007BDE5F007FDE3F007A8
:104640001DE4F0073DE4F0077BE4F0078BE4F0079E
:10465000F5F9F007B1F7F007CFF7F007EBF7F00740
:1046600005F8F00719F8F00797F8F007AFF8F0072A
:10467000DFCDF10767D0F107DBB9F007CD0DF20709
:10468000B10EF207AD0EF207A90EF2078D21F00769
:10469000A933FC07ED21FC074122FC079522FC070A
:1046A0008D22FC07B57EF007837DF0077501FC07BE
:1046B000599EF107634CF1070134FC07D110F20752
:1046C000CD33FC07B111F2074112F2077912F2075C
:1046D000000000006D19FC076F19FC07B9C6F00750
:1046E000D592F1070302FC075F9DF1075F9CF1077C
:1046F0001505FC07EB72F107B922F1076B04F1070E
:10470000E118FC072BA4F007F1D2F0075FBDF0071A
:10471000D5BDF00785BEF007DB2DF007752EF0073D
:104720001581F007DF7FF0070937F0070000000070
:10473000691BFC07711BFC072518FC07F3C3F10775
:1047400075C4F10703C5F1073D18FC070000000020
:104750000000000000000000000000000000000059
:104760000000000000000000000000000000000049
:104770000000000000000000000000000000000039
:10478000000000000000000000000000A444FC073E
:10479000808DFC07CC44FC07308CFC070200000035
:1047A00052656164206D652028696E646963617477
:1047B0006529005772697465206D6520286E6F2029
:1047C000727370290052656164206D6520286E6FD8
:1047D0007469667929004144432056616C756520EF
:1047E0003100444131343533310041444320566176
:1047F0006C7565203200765F362E302E32302E31C9
:1048000033333800496E64696361746561626C6555
:104810000052656164206D65005772697465206D92
:1048200065004C454420537461746500427574748E
:104830006F6E205374617465004C6F6E6720566113
:104840006C756500436F6E74726F6C20506F696E8B
:1048500074000000526E6963615F4B6172696D693B
:10486000000000001D3DFC07713DFC07000000003A
:1048700000000000C51AFC07000000000000000056
:10488000000000009D19FC0700000000000000006F
:1048900000000000AD19FC07A519FC07C519FC07AD
:1048A000D51AFC07000000005D1BFC077119FC070E
:1048B00000000000000000007D1AFC070D1BFC0733
:1048C0000000000000000000F519FC0700000000D7
:1048D00000000000000000000000000000000000D8
:1048E00000000000000000000000000000000000C8
:1048F00003000010000100001C49FC072049FC07D0
:10490000680C0000A43DFC07C08BFC07C08BFC07B3
:0C49100058020000A43DFC070E0000004F
:0400000507FC0111E2
:00000001FF
